:020000040800F2
:10000000E0110020D9020008F7320008FD31000895
:10001000F5320008871C0008553C0008000000006D
:10002000000000000000000000000000FB3200089B
:10003000F11C000800000000F9320008FD32000841
:10004000F3020008F3020008F3020008F3020008BC
:10005000F3020008F3020008F3020008F3020008AC
:10006000F3020008F3020008F3020008F30200089C
:10007000F3020008F3020008F3020008F30200088C
:10008000F3020008F3020008F3020008F30200087C
:10009000F3020008F3020008F3020008F30200086C
:1000A000F3020008F3020008F3020008F30200085C
:1000B000F3020008F3020008A9330008F302000865
:1000C000F3020008F3020008F3020008F30200083C
:1000D000F3020008293C0008F3020008F3020008BC
:1000E000F3020008F3020008F3020008F30200081C
:1000F000F3020008F3020008DD330008F3020008F1
:10010000F3020008F3020008F3020008F3020008FB
:10011000F3020008F3020008F3020008F3020008EB
:10012000F3020008F3020008F3020008F3020008DB
:10013000F3020008F3020008F3020008F3020008CB
:10014000F3020008F3020008F3020008F3020008BB
:10015000F3020008F3020008F3020008F3020008AB
:10016000F3020008F3020008F3020008F30200089B
:10017000F3020008F3020008F30200080000000088
:10018000F3020008F302000800F002F800F095F80E
:100190000AA090E8000C82448344AAF10107DA45E2
:1001A00001D100F08AF8AFF2090EBAE80F0013F09F
:1001B000010F18BFFB1A43F0010318476C570000EA
:1001C0008C5700000A444FF0000C10F8013B13F06C
:1001D000070408BF10F8014B1D1108BF10F8015BA0
:1001E000641E05D010F8016B641E01F8016BF9D193
:1001F00013F0080F1EBF10F8014BAD1C0C1B09D1EA
:100200006D1E58BF01F801CBFAD505E014F8016B5B
:1002100001F8016B6D1EF9D59142D6D370470000ED
:100220000023002400250026103A28BF78C1FBD8FF
:10023000520728BF30C148BF0B607047662905F0E0
:100240001980652905F01680672905F0138061295A
:1002500005F01280692900F05F81642900F05C815B
:10026000752900F059816F2900F0F081782900F09C
:1002700017820368DB0928BF41F08001632900F081
:10028000BC87732900F0C187E32900F0DF870020D5
:1002900070471FB504F0E9FF01F00CF804000020DE
:1002A000002104F055FF401C60600020002104F094
:1002B00039FFE0601FBD10B510BD01F0FBF811461D
:1002C000FFF7E7FF03F034FD01F019F903B4FFF77E
:1002D000F2FF03BC03F0EEFC0948804709480047E1
:1002E000FEE7FEE7FEE7FEE7FEE7FEE7FEE7FEE7E6
:1002F000FEE7FEE704480549054A064B7047000043
:100300009933000889010008E00B0020E01100206B
:10031000E00D0020E00D0020704753EA020C00F0D1
:1003200069802DE9F04B4FF00006002B1FBFB3FA98
:1003300083F503FA05F424FA05F65E4012BF16436E
:10034000B2FA82F502FA05F4C5F120051EBF22FAC1
:1003500005FC44EA0C04203556EA044C4FEA1444E8
:1003600018BF641C4FF000084FF00009904271EB79
:10037000030C39D3002919BFB1FA81F701FA07F646
:10038000B0FA80F700FA07F6C7F120071EBF20FA7F
:1003900007FC46EA0C062037B6FBF4FCA7EB050782
:1003A000103F07F01F0BCBF120060CFA0BFB2CFAC9
:1003B00006F644BFB3460026202FA4BF5E464FF08A
:1003C000000B5BEA060C08BF4FF0010B19EB0B09A1
:1003D000ABFB027C48EB0608C01B06FB02CC0BFB08
:1003E00003CC71EB0C01C1E70B460246414648467F
:1003F000BDE8F08B13B54FF000004FF00001AFF3F4
:100400000080BDE81C4070470FB4044910B503AA32
:10041000029800F0FFFE10BC5DF814FB18000020ED
:100420000FB41CB50C0007AA009001D02044401E58
:10043000074B7B4469460190069800F0B4FE002CFF
:1004400003D06946002000F0C1FE1CBC5DF814FB1F
:10045000A10D000070B5044685690068C10601D58C
:10046000302600E02026C00707D070BDD4E9012166
:1004700030469047206A401C20626D1EF6D570BD44
:1004800070B5044685690078C00707D170BDD4E90E
:10049000012120209047206A401C20626D1EF6D565
:1004A00070BD09684A0501D540B27047C905FCD541
:1004B00000B2704709684A0501D5C0B27047C90546
:1004C000FCD580B2704770B50C460546012A05D0B0
:1004D0002878800600D5EA69002302E0012305E0C0
:1004E0005B1C934202D2E05C0028F9D1A869E618AF
:1004F000C01AA861286A184428622846FFF7AAFF94
:1005000004E0D5E9012114F8010B9047B442F8D377
:100510002846FFF7B5FF70BD2DE9F04106460024DF
:1005200010687529314616A510D0FFF7BAFF0028CC
:1005300002DA404213A507E031688A0701D512A507
:1005400002E0490704D511A5012401E0FFF7B2FF3D
:1005500000210A2206F1240709E0B0FBF2FCB0FBFF
:10056000F2F302FB1C00303078541846491C002876
:10057000F3D123462A463046BDE8F04100F02ABABE
:10058000000000002D0000002B00000020000000F3
:100590002DE9FF5F15468A460446DFF8AC80F84433
:1005A0000027D8E900103E46CDE9001010E03AF8E7
:1005B00016106A4602A800F055FE411C07D02178AB
:1005C000890603D5E269391891420DD80744761C93
:1005D0002078800602D5E069B84205DDAE42E6DB50
:1005E0003AF816000028E2D1A069C01BA06120469D
:1005F000FFF730FFD8E90010CDE90010002017E028
:100600003AF818106A4602A800F02CFEB0F1FF3F3D
:1006100081460BD000250DF1080B05E0D4E901213E
:100620001BF8050090476D1C4D45F7D308F10100FC
:10063000B0428046E4DB206A384420622046FFF75F
:100640001FFFBDE8FF9F00001E4D000070B504466F
:1006500021461068FFF72EFF002104F1240505E074
:1006600000F007023032C0086A54491C0028F7D154
:100670002068002308A2050708D500F020000843E1
:1006800004D0E069012305A2401EE0612046BDE8D8
:10069000704000F09FB90000000000003000000032
:1006A00070B504460D4621461068FFF703FF218808
:1006B000090502D50F4A7A4402E00E4A7A440E3206
:1006C000002104F1240305E000F00F060009965D07
:1006D0005E54491C0028F7D120780023000704D578
:1006E000702D02D009B1022311322046BDE87040BE
:1006F00000F070B90E4C00002DE9F05F8946044609
:100700004FF0000ADFF874B1FB44C0F820A0204687
:10071000E1688847002874D0252806D0D4E9012153
:100720009047206A401C2062F1E700265F46204681
:10073000E16888472028054607DB312D05D2781966
:1007400010F8200C08B10643F1E7B00701D526F0F8
:100750000406C4F81CA00027C4F818A02A2D09D04C
:10076000284603F0A0FA38B304EB8708303DC8F8F8
:10077000185019E059F8041B204604EB87029161D8
:10078000E1688847012F054618D1E069002820DA82
:1007900026F020061DE0D8F8180000EB800005EBDD
:1007A00040003038C8F818002046E1688847054600
:1007B00003F079FA0028EED1012F0AD02E2D08D1AE
:1007C0002046E16888477F1C0546022F46F0200638
:1007D000C4DBA069002803DA404246F00106A061AC
:1007E000F00701D026F010066C2D0BD0682D09D033
:1007F0004C2D39D06A2D35D0742D35D07A2D33D08B
:1008000016E038E0E1682F4620468847B8420546A2
:1008100009D16C2F26D04FF48060E1680643204652
:100820008847054604E06C2F1AD04FF480700643C9
:100830000DB3A5F14100192802D8203546F4006611
:100840004A462946204626604E46FFF7F7FC80B10F
:1008500001280BD0F61D26F0070000F1080956E725
:100860004020E4E78020D8E70020D6E706F104091D
:100870004DE7284652E7206ABDE8F09FE44B0000B0
:10088000421E12F8013F002BFBD111F8013B002B57
:1008900002F8013BF9D1704710B5203AC0F00B8047
:1008A000B1E81850203AA0E81850B1E81850A0E874
:1008B0001850BFF4F5AF5FEA027C24BFB1E81850CE
:1008C000A0E8185044BF18C918C0BDE810405FEA3E
:1008D000827C24BF51F8043B40F8043B08BF7047BA
:1008E000D20728BF31F8023B48BF11F8012B28BFBF
:1008F00020F8023B48BF00F8012B70474FF0000280
:1009000000B5134694469646203922BFA0E80C5005
:10091000A0E80C50B1F12001BFF4F7AF090728BFE0
:10092000A0E80C5048BF0CC05DF804EB890028BF5C
:1009300040F8042B08BF704748BF20F8022B11F085
:10094000804F18BF00F8012B704700004FF0013CAA
:1009500050F8042B51F8043B9A4221D1A2EB0C032E
:10096000934313EACC1317D150F8042B51F8043BEE
:100970009A4215D1A2EB0C03934313EACC130BD18B
:1009800050F8042B51F8043B9A4209D1A2EB0C0316
:10099000934313EACC13DBD04FF00000704700BF45
:1009A000D01A01BAB1FA81F101F0180122FA01F06E
:1009B000CB40C1F12001DBB2C0B2C01A2CFA01F366
:1009C000D11A914311EAC311E6D1704770477047BD
:1009D000704770472DE9F0470D4699469246044608
:1009E00000F124080168880604D5E06921F01001AF
:1009F000216000E00120A84201DD471B00E0002744
:100A0000A1697A1902EB0900081AA0612078C006D2
:100A100002D42046FFF71EFD002608E0D4E901219C
:100A20001AF806009047206A401C761C20624E454A
:100A3000F4DB2078C0060AD52046FFF70BFD06E060
:100A4000D4E9012130209047206A401C2062381EE2
:100A5000A7F10107F4DC07E0D4E9012118F805004B
:100A60009047206A401C2062281EA5F10105F3DC96
:100A70002046FFF705FD2078000602D50220BDE8DC
:100A8000F0870120FBE770472DE9FF4F0C461E461B
:100A90004FF0FF378BB0D2E90001DDF860800A909B
:100AA0008A46C1F30A5505B93D46002108464FF074
:100AB0000000BAF1000F00F4400005DA00EB8000FE
:100AC0004FF4400101EA50004FEA9059B9F1010F8B
:100AD00000DDB9460A9850EA4A000ED044F610509C
:100AE000A5F2FF3545432F14B8F1000F1ED0754213
:100AF000291E1EDDC9F100021CE0B8F1010F4FF004
:100B0000000001D0302103E0F24305E02154401CF5
:100B1000B042FBDB30460022002121540B99C1F882
:100B20000880C1E900200FB0BDE8F08FBD1B6D1C2F
:100B3000DEE74A4600DA694206A800F045FC06AB4B
:100B400093E8070003AB83E8070050460A9900F0DA
:100B5000DFFC8DE80700A0F500501F3800900398D7
:100B6000002D09DD42F21F014A46084403A9039003
:100B7000684600F03EFF08E0A0F500504A461F38E6
:100B800003A90390684600F048FF8DE807000004C1
:100B9000000C03D04FF0FF30410800E01046B8F1E0
:100BA000000F03D00022009215461EE0751E05D4EA
:100BB00000F084FB303262556D1EF9D5B346012238
:100BC000084302D000227F1C04E02078302801D1A5
:100BD00000227F1E002A099786D01DE0112D07DA1A
:100BE00000F06CFB303262556D1C50EA0102F5D109
:100BF000084302D00098C8B10EE00021681E05E04D
:100C0000235C625C63542254401E491C8142F7DB22
:100C1000AB46A81B401E0990002004F80B000B985F
:100C2000099AC0F80880C0E9002B7CE711264FF034
:100C3000000859E72DE9F04F88460446D21D22F0FE
:100C4000070191B0D1E90001CDE90A0103F003F8F1
:100C500002460B98C00F01D02D2007E020688107C5
:100C600001D52B2002E0202101EAC000032A0990CF
:100C700001D0072A05DB03464146204600F064FB0D
:100C80000BE12078800601D5E06900E00620B8F18C
:100C9000650F814606D0B8F1660F18D0B8F1670F1E
:100CA00070D131E00020B9F1110F009001DB112368
:100CB00001E009F101030AAA01A90CA8FFF7E4FE6B
:100CC000DDE90C70002609F10105834647E00120AB
:100CD0004B4600904FF000470AAA01A90CA8FFF765
:100CE000D3FEDDE90DB00C995D46002610B909F17F
:100CF00001000D18B9EB050003D4C0F1FF3609F16E
:100D00000105A5EB09002BE0B9F1010F01DA4FF065
:100D100001090020B9F1110F0090484601DD1123AF
:100D200000E003460AAA01A90CA8FFF7ADFEDDE921
:100D30000C704D4600268346207800070AD4AB4548
:100D400000DA5D4601A8012D04DD411911F8011CEE
:100D5000302907D04F4502DA17F1040F04DA0120D9
:100D600082460FE06D1EEEE7002F02DCED1B3E44D5
:100D700003E0781CA84200DD7D1CB81B00F1010ACD
:100D80004FF000472078000703D4AA4501DB4FF05D
:100D9000FF3A0021B7F1004F0DF143088DF84310E1
:100DA00024D002202B23002F01DA7F422D230A2199
:100DB000021EA0F1010000DC5FB197FBF1FC97FB84
:100DC000F1F201FB1C7C17460CF1300C08F801CD48
:100DD000EEE7A8F1010003702188090501D545213E
:100DE00000E06521A0F1010800F8011C09980FA995
:100DF000A1EB0807FF1D00B10120411901EBEA70CA
:100E0000A1693844081A401EA0612078C00602D4A7
:100E10002046FFF71FFB099828B1D4E9012190472C
:100E2000206A401C20622078C00622D52046FFF7A9
:100E300011FB1EE0002E04DBB34502DD01A8805D3E
:100E400000E03020D4E901219047206A401C206254
:100E5000761CAAF101005FEA000A0AD100F02AFA22
:100E6000C0680168405CD4E901219047206A401CB9
:100E70002062281EA5F10105DCDC07E0D4E9012190
:100E800018F8010B9047206A401C2062381EA7F119
:100E90000107F3DC2046FFF7F3FA032011B043E625
:100EA0002DE9F04F04460D46D21D22F0070089B00F
:100EB000D0E900974846394602F0CDFE0246F80FC9
:100EC00001D02D2307E02068810701D52B2302E004
:100ED000202101EAC0038DF820300BB1012000E091
:100EE0000020032A824601D0072A04DB2946204637
:100EF00000F02AFA3FE12078800601D40D2500E0B9
:100F0000E569C7F30A560D2D49DA00214FEA175B50
:100F100008464FF00000002F00F4400007DA00EB15
:100F200080004FF4400100EBD07001EA60008115B1
:100F3000012901DD4FF0FF3100224FEA850CBCF1A1
:100F4000180F06D31346ACF118004FF08052C24080
:100F500003E04FF4801323FA0CF30CF10C0CBCF1FA
:100F6000200F04D3ACF1200C09FA0CF001E007FAD1
:100F70000CF000294FF0004801DD18B90FE00ED148
:100F800040450CD319EB02095F4121B9404502D11C
:100F90009F4329EA0209BBEB175F00D0761C20882B
:100FA000000502D57B48784402E07A487844193835
:100FB00008AA302302F80A30037C0AF10101002E4E
:100FC0000AF1020A53546A4602DC4FF0300101E094
:100FD0004FF031014FF001088DF8001002D0A6F259
:100FE000FF3603E059EA470100D06B4E002D02DCCA
:100FF0002178090704D54FF002082E218DF8011041
:10100000C44600210BE0C7F303433F01C35C491C06
:101010006D1E02F80830052908F1010801DA002DDB
:10102000F1DC00210CE000EB1973491C1B786D1EEC
:10103000082902F808304FEA091908F1010801DA15
:10104000002DF0DC21688B0602D516E0A8F101081E
:10105000E04505DD02EB080313F8013C302BF5D029
:10106000B8F1000F09DD02EB080313F8013C2E2B49
:1010700003D1090701D4A8F10108002D05DD3E21A7
:1010800002F808106D1E08F10108407C002E02F8DD
:10109000080008F1010804DA2D20764202F8080061
:1010A00002E02B2002F808000A214FF47A708642F1
:1010B00008F101080BDB96FBF0F3303302F808303F
:1010C00096FBF0F308F1010800FB136601E0642EC3
:1010D0000CDB642096FBF0F3303302F8083096FB0B
:1010E000F0F308F1010800FB136601E00A2E06DBAD
:1010F00096FBF1F0303002F8080008F1010896FB89
:10110000F1F001FB1060303002F80800A16908F12D
:10111000010808EB050202EB0A00081AA06120781A
:10112000C00602D42046FFF795F9216A08AE01EB0C
:101130000A00206204E0D4E9012116F8010B90476F
:10114000BAF1010AF7D22078C00602D52046FFF78F
:1011500081F96E4609E016F8010B3E280FD0D4E95C
:1011600001219047206A401C2062B8F10108F2D2A8
:101170002046FFF785F909B00320BDE8F08F206A0B
:101180002844206203E0D4E90121302090476D1EFD
:10119000EBD3F8E76A43000002FCFFFF01694A1C39
:1011A00002610878704700B58FB0CDE901310021A8
:1011B000059105497944CDE9031011466846FFF7CA
:1011C0009BFA0FB000BD0000E5FFFFFF0A6802F8C0
:1011D000010B0A607047D1E900239A4202D2531CE6
:1011E0000B601070704710B5436913B1AFF3008006
:1011F00001E0FFF768F9012010BD127800F1240129
:101200000A7000224A700122EDE711684FF0FF32A8
:10121000E9E70000074B70B50D467B44FFF7C3FFBD
:101220000446284600F03EF910B14FF0FF3070BD83
:10123000204670BDFF2A000010B5436913B1AFF31B
:10124000008001E0FFF7A4F9012010BD128800F131
:10125000240182840022C2840122EDE711684FF04C
:10126000FF32E9E770B516460C46054600F01AF85D
:10127000036893F80101012806D0FF2C0FD8185DF0
:1012800068B101202C7070BDD3F8070132462146A9
:1012900003F2071303442846BDE8704018474FF097
:1012A000FF3070BD10B500F005F8001D10BD00BF87
:1012B000A13E0000004870479C0B002030B5B0F103
:1012C0000A024FEA900E71F100034EEA817EB0EB04
:1012D0000E0061EB91014FEA101E4EEA017E10EB09
:1012E0000E0041EB11114FEA102E4EEA016E10EB89
:1012F0000E0041EB11214FEA104E4EEA014E10EB69
:101300000E0041EB1141401841F100014FEAD000BD
:1013100040EA41704FEAD10110EB80054FEA8104A9
:1013200044EA907444EB01046D1944EB0404521B2D
:10133000A3414FF0000348BF0A3200D530BD401C26
:1013400041F1000130BD00002DE9F0411F46044687
:1013500003260168072A01F4006004DB08B116A522
:1013600005E016A503E008B115A500E015A521F0DC
:1013700010002060A069C01EA0610FB1401EA061D6
:101380002046FFF767F84FB1D4E90121384690476E
:10139000206A401C2062C01C206206E0206AFAE736
:1013A000D4E9012115F8010B9047761EF8D22046AA
:1013B000FFF766F8BDE8F0814E414E006E616E00A9
:1013C000494E4600696E66002DE9F0478146164693
:1013D0008AB0334878440DC88DE80D003048784411
:1013E000801C03AC0DC884E80D0041F69B30084416
:1013F000372190FBF1F290FBF1F5A5F1800501FB9F
:1014000012041B3C02D56442012000E00020DFF8FA
:1014100090A080460027FA44AAF1BE0A0DE0E0073A
:1014200009D03246684607EB47010AEB810100F01C
:10143000F4FA8DE8070064107F1C002CEFD1184FE0
:101440007F44AC3F18E0E80714D007EB04100DF11F
:10145000180A90E80E008AE80E00C068F04201D138
:1014600098190890324606A903A800F0D6FA03ABF3
:1014700083E807006D10641C002DE4D132466946F4
:10148000B8F1000F03A802D000F0B3FA01E000F0B9
:10149000C4FAC9E90001C9F808200AB0BDE8F0871C
:1014A000CC3F0000007B00F0800070470048704790
:1014B0007C0B00207546FFF7F9FFAE460500694634
:1014C000534620F00700854618B020B5FEF712FFFE
:1014D000BDE820404FF000064FF000074FF0000835
:1014E0004FF0000B21F00701AC46ACE8C009ACE8B6
:1014F000C009ACE8C009ACE8C0098D46704710B51A
:101500000446AFF300802046BDE81040FEF7DEBE83
:101510005FEA400C08BF91F0000F4FEA8C234FEABE
:10152000C12243EA51514FEA1C5018BF00F5F04068
:101530004FEA300018BF41F000415FEA6C5C00F0F8
:101540002980BCF1FF3F08BF40F080407047130C7A
:1015500006BF12044FF0100C4FF0000C130E04BF26
:1015600012020CF1080C130F04BF12010CF1040C51
:10157000930F04BF92000CF1020CD30F04BF520072
:101580000CF1010C11464FF00002A0F11F00A0EB7E
:101590000C00704711F0004F08BF704731F0004158
:1015A0003FF4D5AF0B0C06BF09044FF0100C4FF001
:1015B000000C0B0E04BF09020CF1080C0B0F04BF4A
:1015C00009010CF1040C8B0F04BF89000CF1020C13
:1015D000CB0F04BF49000CF1010CCCF12003A0EBB0
:1015E0000C0022FA03F302FA0CF241EA030100F1C3
:1015F0000100704720F07F4C80EA030023F07F4712
:10160000ACEB070303F57C5300F0004003F1FF034C
:101610002DE980494FEA154B09B44FEA144325EAF6
:101620000B4E24EA03480FF2042606EB1327490861
:101630003E785FEA320203FB0667C7F5000707FB47
:1016400006F64FEA54374FEAD64606F1020607FB84
:10165000066CCCF1005C4FEA1C472CEA074C07FBF8
:1016600006F40CFB06F504EB15464FEA961634BF5C
:1016700000204FF000404FEAD13706FB07FC4FEA4D
:101680001C4C0CFB0BF7D21B03FB0CF761EB0701A7
:101690000CFB0EF7B0EB074072EB17420CFB08F7A0
:1016A00034BFA2EB0742B2EB074261EB17414FEAAE
:1016B0000C444FEA910706FB07FC4FEA1C4C0CFB5D
:1016C0000BF7B0EBC74072EB573203FB0CF734BF9C
:1016D000A2EBC742B2EBC74261EB57310CFB0EF7EE
:1016E000B0EBC70072EB57720CFB08F734BFA2EBEC
:1016F000C702B2EBC70261EB5771039F4FEA8161EA
:1017000041EA921104EBCC044FEAD1374FEA8262EE
:1017100006FB07FC42EA90124FEA80604FEA1C4C3D
:101720000CFB0BF7D21B03FB0CF761EB07010CFB67
:101730000EF7B0EB074072EB17420CFB08F734BF13
:10174000A2EB0742B2EB074261EB17414FEA8C551F
:101750004FEA910704EB9C2406FB07FC4FEA1C4C64
:101760000CFB0BF7B0EBC74072EB573203FB0CF7E7
:1017700034BFA2EBC742B2EBC74261EB57310CFB5F
:101780000EF7B0EBC70072EB57720CFB08F734BFD3
:10179000A2EBC702B2EBC70261EB577115EB4C2508
:1017A0004FEA816141EA92114FEA82624FEAD137F2
:1017B00042EA901206FB07FC44F100044FEA806005
:1017C0004FEA1C4C0CFB0BF7D21B03FB0CF761EB35
:1017D00007010CFB0EF7B0EB074072EB17420CFB56
:1017E00008F734BFA2EB0742B2EB074261EB1741A7
:1017F00015EB1C154FEA813141EA92414FEA8232E2
:1018000042EA90424FEA80304FEA0C7644F10004FD
:1018100048EA03434EEA0B484FF0000EB2EB080CC7
:1018200071EB030724BF624639464EEB0E0E4FF0B4
:10183000000B0018524149414BEB0B0BB2EB080C6B
:1018400071EB03077BF1000B24BF624639464EEB78
:101850000E0E4FF0000B0018524149414BEB0B0BA1
:10186000B2EB080C71EB03077BF1000B24BF62465F
:1018700039464EEB0E0E51EA020718BF46F001063C
:1018800016EB0E7655F1000254F1000103D5BDE8C8
:101890008901BDE80088BDE88901BDE80048B619A6
:1018A000524141EB0101A3F10103704780807F7E2B
:1018B0007D7C7B7A797877767675747372717170C6
:1018C0006F6E6E6D6C6C6B6A6A6968686766666578
:1018D0006464636362616160605F5F5E5E5D5D5C06
:1018E0005C5B5B5A5A595958585757565655555577
:1018F0005454535352525251515050504F4F4F4ED7
:101900004E4D4D4D4C4C4C4B4B4B4A4A4A49494924
:101910004848484747474746464645454544444466
:10192000444343434342424242414141002B26D477
:10193000770021D01CB54FEA370703B44FF01000F1
:101940004FF010014FF000000FBCBDE810400BF14C
:10195000010BBBF1010F08BF5FEA170722BF12F1AD
:10196000010211F101014FF0004143F1000300F0C9
:10197000004043EA00007047F9D35708DAE746EA27
:10198000064613F1400F4FEA16461FDD13F1200FF4
:10199000DFBF16430A46002120335B42C8D0C3F1A3
:1019A000200746EA064602FA07F74FEA164646EAD5
:1019B0000706C3F1200722FA03F201FA07F721FA1A
:1019C00003F14FF0000342EA0702B1E746EA0206DC
:1019D00046EA06464FEA164646EA0106BCBF46EA14
:1019E0000646360C4FF000034FF000024FF00001A6
:1019F0009EE72DE9C048934630B491E8380007C807
:101A000031EA400C48BF34EA430C03D5FFF7F2FD3E
:101A1000FFF78CFFF0BCBDE800882DE9C048934675
:101A200030B491E8380007C810F0804F08BF13F0B9
:101A3000804F03D100F005F8FFF778FFF0BCBDE858
:101A4000008820F07F4780EA030023F07F4C07EBFB
:101A50000C03A3F57C5300F00040A3F1FE0392F0C9
:101A6000000F00F0B38095F0000F00F077802DE9B3
:101A700001494FEA11404FEA144621EA004800FBB1
:101A800006FC24EA064708FB06F607FB08F800FBFD
:101A900007F718EB06484CEB164C4FEA124B18EBC5
:101AA00007484FEA15464CEB174022EA0B4E0BFB5A
:101AB00006FC25EA06470EFB06F607FB0EFE0BFBAF
:101AC00007F71EEB064E4CEB164C4FF000061EEBD4
:101AD000074E4CEB174B18EB0B0840F1000018EBCE
:101AE0000E0B58EB000840F100008F1A4FF0000178
:101AF0003CBFC943661B14BFB5EB040C00213CBFBF
:101B0000C943F61B4FEA17444EEA8E0E27EA0445F6
:101B10004FEA1C4704FB07622CEA074C05FB07F75A
:101B20000CFB05F604FB0CFC16EB074642EB1742D8
:101B300016EB0C4642EB1C421BEB060658EB02026E
:101B4000414146EA9E0601D5BDE80189B6195241D8
:101B500041EB0101A3F10103BDE801894FEA1445FE
:101B60004FEA114724EA054621EA074C05FB07F432
:101B700006FB07F70CFB06F105FB0CFC11EB07411C
:101B800044EB17444FEA124711EB0C4144EB1C4461
:101B900022EA074C05FB07F206FB07F70CFB06F6EB
:101BA00005FB0CFC16EB074642EB174216EB0C4606
:101BB00042EB1C456A1854F1000148BF7047B61942
:101BC000524141EB0101A3F10103704795F0000F71
:101BD00037D04FEA11424FEA144721EA024624EA7D
:101BE000074C02FB07F106FB07F70CFB06F402FBB0
:101BF0000CFC14EB074441EB17414FEA154714EB7B
:101C00000C4441EB1C4125EA074C02FB07F506FB9F
:101C100007F70CFB06F602FB0CFC16EB074645EB40
:101C2000174516EB0C4645EB1C42121951F1000109
:101C300048BF7047B619524141EB0101A3F10103BE
:101C400070474FEA14454FEA114724EA054621EA56
:101C5000074C05FB07F106FB07F70CFB06F24FF0FC
:101C6000000605FB0CFC12EB074241EB174112EB9F
:101C70000C4251EB1C4148BF7047921841EB0101E7
:101C8000A3F101037047FEE710B5A82002F014F895
:101C90004FF4E13002F0EAF9542002F0B7FDBDE85C
:101CA000104001F024BE0000FFF7EEFF05A0FEF794
:101CB000ABFB08A10CA0FEF7A7FB00BF02F084F964
:101CC000FCE700000D0AC6F4B6AFB3C9B9A6210DF2
:101CD0000A000000D2B0BBF02D463430372DB0D40E
:101CE000CCECBBA20000000025730D0A0000000030
:101CF00070472DE9F0410446876D00F071F9064602
:101D000094F835000025022806D08020606584F80C
:101D100034500120BDE8F0812068016821F01601EF
:101D200001602068416921F080014161206C08B99F
:101D3000A06C20B12068016821F0080101602068D2
:101D4000016821F0010101600CE000F049F9801BFD
:101D5000052807D920206065032084F8350084F821
:101D60003450D7E720680068C007EED194F85C10C3
:101D70003F208840B860012084F8350084F8345052
:101D80000020C7E790F83510022903D08021416573
:101D900001207047052180F835100068016821F0A6
:101DA000010101600020704770B5044600F018F989
:101DB0000546601C02D004480078044400F010F985
:101DC000401BA042FAD370BD000000202DE9F84F5F
:101DD000DFF8BCA10022012503264FF00F090AF10C
:101DE000040BAAF1040E00BF0B6805FA02F42340AD
:101DF000A34270D10F7907F00307012F01D0022F02
:101E000016D187684FEA420806FA08FC27EA0C0751
:101E1000D1F80CC00CFA08FC4CEA070CC0F808C05A
:101E20004768A7430C79C4F3001494403C434460D2
:101E30000C79E443A4070AD0C4684FEA420C06FABE
:101E40000CF7BC438F6807FA0CF72743C7600C797F
:101E500004F00304022C12D1D40800EB840CDCF84B
:101E600020405707FF0E09FA07F824EA0804D1F8C2
:101E7000108008FA07F848EA0408CCF820800468C3
:101E80004FEA420C06FA0CF7BC430F7907F0030740
:101E900007FA0CF7274307604C6814F4403F70D0F2
:101EA0003C4C276847F480472760246822F00307EA
:101EB00004F480440094384C07EB040CDCF8084828
:101EC00097074FEA177809FA08F7BC43334FB8422F
:101ED00002D1002724E054E0314FB84201D101275C
:101EE0001EE0304FB84201D1022719E02E4FB84210
:101EF00001D1032714E02D4FB84201D104270FE090
:101F00002B4FB84201D105270AE02A4FB84201D130
:101F1000062705E0284FB84201D1072700E008272F
:101F200007FA08F72743CCF80878DAF80040574654
:101F3000D1F804C09C435FEACC2C00D51C433C6024
:101F4000DBF800405F46D1F804C09C435FEA8C2C6C
:101F500000D51C433C60DEF800407746D1F804C051
:101F60009C435FEA8C3C00D51C433C60084F083F13
:101F70003C68D1F804C09C435FEACC3C00D51C43CC
:101F80003C60521C102AFFF42FAFBDE8F88F000010
:101F9000083C01404438024000300140000002404B
:101FA0000004024000080240000C02400010024001
:101FB0000014024000180240001C02400069084062
:101FC00000D001207047426921EA02030A4043EA37
:101FD0000241816170470AB1816170470904FBE7E2
:101FE00001488068704700000000002002488168B6
:101FF0000278114481607047000000200B4810B542
:10200000016841F400710160016841F48061016080
:10201000016841F480710160032000F057F803204B
:1020200000F006F800F024F8002010BD003C02404B
:1020300070B50D4D04464FF47A712878B1FBF0F07D
:102040000A490968B1FBF0F000F012FB48B9102C06
:1020500007D200222146501E00F018F800206C60C4
:1020600070BD012070BD0000000000200C000020A9
:102070007047002809DB00F01F0201219140400950
:10208000800000F1E020C0F800117047F0B40E4B62
:102090001B680C46C3F30223C3F10705042D00D9C6
:1020A0000425191D072901D2002300E0DB1E0126AB
:1020B00006FA05F1491E214099409E40761E1640C1
:1020C0003143F0BC01F0DFBD0CED00E0064900F04B
:1020D000070208684FF6FF03184040EA0220034A4F
:1020E00010430860704700000CED00E00000FA05A6
:1020F000BFF34F8F05480168054A01F4E0611143C1
:102100000160BFF34F8F00BFFDE700000CED00E062
:102110000400FA052DE9F0470E46050065D0DFF80A
:102120001481D8F80000F7B200F00700B04207D2DF
:1021300088F80070D8F8000000F00700B04254D1D1
:1021400028683D4C810712D5400703D5206840F42C
:10215000E05020602878000703D5206840F46040F4
:1021600020602068A96820F0F000084320602878EB
:10217000C0072DD0304968680839012812D00228DC
:1021800013D0032811D00968890700292DDA2168A6
:1021900021F0030101432160FFF722FF814641F254
:1021A000883A0EE009688903EFE709688901ECE7DE
:1021B000FFF716FFA0EB0901514502D90320BDE846
:1021C000F0872068696800F00C00B0EB810FEFD158
:1021D000D8F80010404601F00701B14207D9077056
:1021E000006800F00700B04201D00120E7E728783E
:1021F000400705D52068E96820F4E05008432060D6
:102200002878000706D52068296920F4604040EA54
:10221000C100206000F038F82168084AC1F30311BA
:10222000515CC8400649086006480068FFF700FF97
:102230000020C4E7003C0240083802407C520008FD
:102240000C000020040000200448054900680968CB
:10225000044AC1F38221515CC84070470C00002041
:10226000083802408C520008044805490068096893
:10227000044AC1F34231515CC84070470C00002051
:10228000083802408C520008154810B5006810F05C
:102290000C02144813D01449042A0FD0082A0ED176
:1022A0000F4C241F2268236802F03F025B0207D50F
:1022B0002068C0F38810A0FB010106E0084610BDAD
:1022C0002168C1F38811A1FB00010023FEF725F866
:1022D0002168C1F30141491C4900B0FBF1F010BD78
:1022E000083802400024F40040787D012DE9F84FC1
:1022F00004006ED02078DFF84C93C007A9F10405E4
:102300004AD009F104000168C1F38101012908D014
:102310000068C0F3810002280AD1D9F80000400209
:1023200006D52868800337D560680028E1D033E0FF
:102330006068B0F5803F10D0B0F5A02F286810D0AD
:1023400020F480302860286820F4802028606068AD
:10235000A8B1FFF745FE06460DE0286840F480303E
:10236000F4E740F480202860F7E700BFFFF738FE6D
:10237000801B642873D828688003F7D50CE0FFF72A
:102380002FFE064605E000BFFFF72AFE801B6428EB
:10239000F0D828688003F7D42078DFF8AC82800773
:1023A0004FF0000A3ED5A748001D016811F00C0F40
:1023B00008D00068C0F3810002280BD1D9F80000D2
:1023C000400207D42868800716D5E068012800D1AC
:1023D00012E033E1E068B8B10120C8F80000FFF76F
:1023E000FFFD064605E000BFFFF7FAFD801B02284F
:1023F000C0D828688007F7D52868216920F0F80040
:1024000040EAC10028600DE0C8F800A0FFF7E8FD31
:10241000064604E0FFF7E4FD801B02281FD8286869
:102420008007F7D42078000722D5864F8748616956
:10243000703771B101210160FFF7D2FD064604E05B
:10244000FFF7CEFD801B022809D838688007F7D532
:102450000EE0C0F800A0FFF7C3FD064605E082E0ED
:10246000FFF7BEFD801B02287DD838688007F7D4AF
:102470002078400768D5DFF8CCB100270BF13C0B82
:10248000DBF80000C0000BD4DBF8001041F08051F5
:10249000CBF80010DBF80000012700F0805000901E
:1024A0006B4E3068C00510D4306840F480703060E6
:1024B000FFF796FD009005E0FFF792FD0099401AA6
:1024C000022850D83068C005F6D55E4EA0686C363C
:1024D00001280FD00528306810D020F001003060AE
:1024E000306820F004003060A068B8B1FFF778FDD4
:1024F00000900FE0306840F00100F4E740F0040085
:102500003060F7E7FFF76CFD0099411A41F288301F
:10251000814266D830688007F4D50EE0FFF760FD91
:10252000009007E0FFF75CFD0099411A41F2883006
:10253000814256D830688007F4D42FB1DBF8001000
:1025400021F08051CBF80010A069C8B33D49091DA6
:102550000968C1F3810102294AD00228504607D0F8
:10256000C8F8600000E03CE0FFF73AFD04463BE0BD
:102570004746C8F86000FFF733FD064605E000BF98
:10258000FFF72EFD801B02282BD828688001F7D486
:10259000D4E907010843A16A2E4A490802EB014128
:1025A000626A41EA8211084394F82C1040EA016102
:1025B000C9F8001001203866FFF712FD044606E056
:1025C0003EE000BFFFF70CFD001B022809D8286879
:1025D0008001F7D534E000BFFFF702FD001B0228A1
:1025E00002D90320BDE8F88F28688001F4D427E0E1
:1025F0000128F7D0D9F80000E26900F48001914287
:102600001CD1226A00F03F01914217D147F6C071F8
:10261000626A0140B1EB821F10D1A26A4FF0FF3312
:1026200000F4403103EB5202B1EB024F06D194F8B3
:102630002C1000F07060B0EB016F01D00120D1E7E9
:102640000020CFE70438024000004742800E474296
:10265000007000400000FFFF4FF0E02104280869EF
:1026600003D020F004000861704740F00400FAE74E
:1026700010B5401EB0F1807F01D3012010BD4FF096
:10268000E02460610F21601701F0FDFA0020A061D5
:1026900007202061002010BD7047704710B504006E
:1026A00003D094F83D0010B107E0012010BD0020D8
:1026B00084F83C00204600F01EF8022084F83D001B
:1026C000211D206800F090FE012084F8460084F867
:1026D0003E0084F83F0084F8400084F8410084F80C
:1026E000420084F8430084F8440084F8450084F8EC
:1026F0003D00002010BD704790F83D10012901D029
:1027000001207047022180F83D100168CA6842F03C
:102710000102CA6000681149884214D0B0F1804FAC
:1027200011D00F4988420ED00E4988420BD00E4975
:10273000884208D00D49884205D00D49884202D010
:102740000C49884204D1816801F00701062903D0B1
:10275000016841F001010160002070470000014064
:102760000004004000080040000C0040000401404C
:10277000004001400018004010B5007F01282AD118
:102780000021194800F011FB184C60800421164804
:1027900000F00BFB20806088F0B120886421401C91
:1027A000484300EE100A6088F8EE400A401C00EE34
:1027B000100AB8EE400A80EE801A84ED011A608893
:1027C000DFED0B0A401C00EE100AB8EE400A80EE66
:1027D000801A84ED021A10BD9FED060A84ED010AED
:1027E00084ED020A10BD0000340B00208801002097
:1027F00000247449000000002DE9F041054690F8DE
:102800003C0000260C46012810D0012085F83C0031
:1028100072B1042A1CD0082A2CD00C2A50D00126D0
:10282000002085F83C003046BDE8F0810220FBE73F
:10283000D4E90012E368286800F0ECFF2868816999
:1028400021F00C01816128688169A26811430FE0C1
:10285000D4E90012E368286801F02EF8286881693D
:1028600021F44061816128688169A26841EA0221FE
:102870008161D5E72868D4E9002C277B036A016AC7
:1028800021F480710162C16923F4206321F0030106
:1028900041EA0C0121F0F00C39074FF420674CEAB3
:1028A000116107EA02221A43C16102622868C16904
:1028B00021F00C01C1612868C169A26811432BE0B5
:1028C0002868D4E90021E768036AD0F820C02CF416
:1028D000805CC0F820C0D0F81CC023F420432CF446
:1028E000407C4CEA012121F4704C4FF6FF7101EA63
:1028F00007314FF4204741EA0C0107EA02321A433C
:10290000C16102622868C16921F44061C16128681F
:10291000C169A26841EA0221C16181E710B50400E2
:1029200003D094F83D0010B107E0012010BD002055
:1029300084F83C00204600F01EF8022084F83D0098
:10294000211D206800F050FD012084F8460084F825
:102950003E0084F83F0084F8400084F8410084F889
:10296000420084F8430084F8440084F8450084F869
:102970003D00002010BD704730B50446002551B120
:1029800004290DD0082910D094F8410094F845206E
:10299000012811D10EE094F83E0094F84220F7E7A8
:1029A00094F83F0094F84320F2E794F8400094F83C
:1029B0004420EDE7012A01D0012030BD022059B1A9
:1029C000042912D0082919D084F8410084F8450060
:1029D0000C2944D0012540E084F83E0084F84200F0
:1029E0002068C26842F0020210E084F83F0084F8D8
:1029F00043002068C26842F0040207E084F8400007
:102A000084F844002068C26842F00802C2600122D3
:102A1000206800F055FD14492068884214D0B0F1B8
:102A2000804F11D0114988420ED0114988420BD0F5
:102A30001049884208D01049884205D00F49884281
:102A400002D00F49884204D1816801F007010629AC
:102A500003D0016841F001010160284630BD2068C3
:102A6000C26842F01002D1E70000014000040040BB
:102A700000080040000C00400004014000400140FC
:102A8000001800402DE9F04104460068C668056959
:102A90004FF00007A90713D5B10711D5F91E016141
:102AA00001202077206880698007204602D0FFF748
:102AB00063FE04E000F07EF8204600F010F927776E
:102AC000680716D5700714D521686FF004000861F7
:102AD000022020772068806910F4407F204602D0D1
:102AE000FFF74AFE04E000F065F8204600F0F7F832
:102AF0002777280715D5300713D521686FF0080010
:102B00000861042020772068C0698007204602D031
:102B1000FFF732FE04E000F04DF8204600F0DFF849
:102B20002777E80616D5F00614D521686FF0100057
:102B30000861082020772068C06910F4407F204693
:102B400002D0FFF719FE04E000F034F8204600F050
:102B5000C6F82777E80708D0F00706D021686FF09D
:102B600001000861204600F01FF9280608D530064C
:102B700006D521686FF0800008612046FFF78CFDC4
:102B8000680608D5700606D521686FF04000086118
:102B9000204600F04AF9A8060AD5B00608D52168F3
:102BA0006FF0200008612046BDE8F041FFF775BDD9
:102BB000BDE8F081704770B5044690F83C000026EF
:102BC0000D4601280FD0012084F83C006AB1042A88
:102BD0001DD0082A2FD00C2A3FD00126002084F8CF
:102BE0003C00304670BD022070BD206800F080FCC3
:102BF0002068816941F0080181612068816921F0C4
:102C000004018161206881692A69114311E020680B
:102C100000F09EFC2068816941F4006181612068B8
:102C2000816921F480618161206881692A6941EAB2
:102C300002218161D2E7206800F0C0FC2068C169F0
:102C400041F00801C1612068C16921F00401C1613E
:102C50002068C1692A69114311E0206800F0E2FC94
:102C60002068C16941F40061C1612068C16921F433
:102C70008061C1612068C1692A6941EA0221C1619C
:102C8000ACE710B5040003D094F83D0010B107E0A4
:102C9000012010BD002084F83C00204600F01EF802
:102CA000022084F83D00211D206800F09DFB0120DA
:102CB00084F8460084F83E0084F83F0084F8400021
:102CC00084F8410084F8420084F8430084F844000A
:102CD00084F8450084F83D00002010BD704770471F
:102CE00010B50446022249B104290ED0082913D098
:102CF00094F84100012816D0012010BD94F83E0040
:102D00000128F9D184F83E200FE094F83F00012813
:102D1000F2D184F83F2008E094F840000128EBD17C
:102D200084F8402001E084F841200122206800F06E
:102D3000C7FB16492068164A884201D0904203D149
:102D4000436C43F4004343642068884213D0B0F1DD
:102D5000804F10D00F4988420DD00F4988420AD0C9
:102D60000E49884207D0904205D00D49884202D0D2
:102D70000C49884204D1816801F00701062903D07B
:102D8000016841F001010160002010BD0000014018
:102D9000000401400004004000080040000C004016
:102DA000004001400018004070470246002041B139
:102DB000042909D008290AD00C2901D11068006C17
:102DC00070471068406B70471068806B70471068E0
:102DD000C06B704770B5044690F83C00012812D0D3
:102DE000012584F83C50022084F83D00204600F084
:102DF000B9FC01004FF0000007D084F83D5084F882
:102E00003C00012070BD022070BD2168CA6822F01C
:102E10004002CA602168CA6822F48042CA6084F80D
:102E20003D5084F83C00002070BD704770477047EB
:102E300010F8411F4078084370470000F8B501685A
:102E400004460868CA684B6910F00F0F4FF0000580
:102E50005AD003F0010602F49077374365D0C107DA
:102E600005D0D10503D5616C41F0010161644107D2
:102E700005D5D90703D0616C41F002016164810777
:102E800005D5D90703D0616C41F0040161640107E5
:102E900007D502F02001314303D0616C41F00801F5
:102EA0006164616C00293BD0800604D5900602D590
:102EB000204600F0B6FD20684069616CC0F38010C8
:102EC00001F00801014320462BD000F083FD20686B
:102ED0004069400621D52068143050E8001F21F0D9
:102EE000400140E80012002AF5D1E06BA8B16E491C
:102EF0000165E06BFEF746FF002811D0E06B016D25
:102F000001B0BDE8F040084783060ED593060CD506
:102F10002046BDE8F84000F084BD2046FFF787FF5B
:102F2000F8BDFFF784FF6564F8BD266B2023012EF2
:102F30007DD1C6067BD5D60679D50868486800904D
:102F400048694FF00206400641D5E16B08684068C9
:102F50000004000CE8D0A28D8242E5D9E085C86962
:102F6000B0F5807F2DD020680C3050E8001F21F490
:102F7000807140E80012002AF5D12168143151E82F
:102F8000000F20F0010041E80002002AF5D120687E
:102F9000143050E8001F21F0400140E80012002AE0
:102FA000F5D184F84230256320680C3050E8001FCA
:102FB00021F0100140E80012002AF5D1E06BFEF785
:102FC00098FE6663A08DE18D401A81B22AE0A08D43
:102FD000E18D401A81B2E08D0028A5D00029A3D050
:102FE00022680C3252E8000F20F4907042E800078B
:102FF000002FF5D12068143050E8002F22F0010294
:1030000040E80027002FF5D184F84230256320687E
:103010000C3050E8002F22F0100240E80023002B73
:10302000F5D166632046FFF701FFF8BDFFE705060F
:103030002BD5150629D594F841002128F5D1A06893
:10304000B0F5805F01D12069B0B1206A411C2162D6
:10305000216800784860E08C401E0004000CE08489
:10306000E3D12068C16821F08001C1602068C16897
:1030700041F04001C160D8E7206A0088C0F3080031
:103080004860206A801C2062E5E74006CDD55006E6
:10309000CBD5CA68204622F04002CA6084F841308D
:1030A00000F0AAF8C1E70000C539000870B50400B7
:1030B00004D094F84100002510B106E0012070BD55
:1030C00084F84050204600F023F8242084F8410082
:1030D0002068C16821F40051C160204600F002FD63
:1030E0002068016921F4904101612068416921F063
:1030F0002A0141612068C16841F40051C1606564E2
:10310000202084F8410084F842006563002070BDEF
:1031100030B51A4887B0016841F0100101600068BD
:1031200000F01000059015481438016841F00101C5
:1031300001600068072400F0010005904FF4007062
:10314000009002200190012002900320CDE90304A9
:103150000B4D69462846FEF739FE28150090694652
:1031600004942846FEF732FE2520FEF782FF032254
:1031700011462520FEF78AFF07B030BD44380240D3
:103180000000024090F84230202B01D0022070470E
:1031900021B11AB10023036300F02ABD012070475A
:1031A00030B50068114988420CD1114841880A04A1
:1031B00008D402464C0412784FF0000306D50A2AC0
:1031C00001D0438030BD41F400410DE00D2A09D00B
:1031D000C1F30D04074D491C89B22A554180C72906
:1031E000EFD830BD41F48041418030BD0010014036
:1031F00014000020940900207047000000B5ADF2D3
:10320000844D0AA0FDF700F911A0FDF7FDF840F28A
:10321000844213496846FDF73FFB694611A0FDF75C
:10322000F3F8FEF765FF0DF2844D00BD0D0A48610D
:1032300072644661756C745F48616E646C65723A65
:1032400020D3B2BCFEB4EDCEF3C0B12E0D0A000007
:10325000B3A2CAD4D6D8C6F42E2E2E0D0A00000072
:10326000BC5300082573000001884068FEF7A6BE25
:1032700001884068FEF7A7BE10B586B014216846E5
:10328000FDF73CFB1948016841F02001016001682D
:1032900001F020010591016841F0800101600168A1
:1032A00001F080010591016841F0010101600168B0
:1032B00001F001010591016841F00401016000681D
:1032C0000B4C00F004000590012240212046FEF73F
:1032D00082FE40200121CDE900010220CDE902104B
:1032E00069462046FEF772FD06B010BD3038024038
:1032F00000140240FEE7FEE770477047FEF776BE17
:1033000030B593B030216846FDF7F8FA14210CA8C7
:10331000FDF7F4FA1E480025016841F08051016074
:10332000006800F0805011901A48016841F4804113
:1033300001600068022400F4804011900120009098
:10334000000401908001CDE90640192008904FF457
:10335000A870CDE9090404200B906846FEF7C6FF6B
:1033600008B172B6FEE70CA90F2081E831004FF4D6
:10337000A0500F904FF48050109005210CA8FEF73C
:10338000C9FE002801D072B6FEE713B030BD0000C0
:1033900040380240007000400248016841F470016A
:1033A0000160704788ED00E010B50A4C2068C068E5
:1033B000C043C00709D10848006980472168002040
:1033C000486221686420C862E06021686FF00100F3
:1033D000086110BDA40A0020840000200148FFF706
:1033E00051BB0000340B0020F0B50268294C2A4D77
:1033F0002A4E2B4F2B4B4FF0804CA04209D06045FA
:1034000007D0A84205D0B04203D0B84201D09842BC
:1034100004D122F0700E4A6842EA0E02A0421BD08C
:10342000604519D0A84217D0B04215D0B84213D089
:10343000984211D01C4DA8420ED01C4DA8420BD072
:103440001B4DA84208D01B4DA84205D01A4DA842DA
:1034500002D01A4DA84203D122F44075CA682A430B
:103460004D6922F080022A4302608A68C2620A68BB
:103470008262A04201D0984201D109690163012111
:1034800041610169C90703D0016921F001010161AE
:10349000F0BD0000000001400004004000080040B2
:1034A000000C004000040140004001400044014085
:1034B0000048014000180040001C0040002000406F
:1034C00010B501F01F030121046A99408C43046286
:1034D000016A9A401143016210BD10B5846842EA46
:1034E000032224F47F440A432243826010BD00007B
:1034F000F0B5036A026A22F001020262426884693E
:10350000124E24F073050C682C4323F002058B68DF
:103510002B430D4DA84201D0B04205D123F008073E
:10352000CB683B4323F00403A84201D0B04205D14D
:103530004D6922F4407215438A692A4342608461CE
:10354000496841630362F0BD00000140000401408E
:10355000F0B5026A036A23F01003036243688469CA
:103560000D6824F4E64444EA05248D6822F0200224
:1035700042EA05120F4D104EA84201D0B04206D1CA
:10358000CF6822F0800242EA071222F04002A842ED
:1035900001D0B04207D14D6923F4406343EA85036B
:1035A0008D6943EA850343608461496881630262EF
:1035B000F0BD00000000014000040140F0B5026AC7
:1035C000036A23F4807303624368C46922F40072BF
:1035D00024F073050C68124E2C438D6842EA0522D4
:1035E0000E4DA84201D0B04206D1CF6822F400624D
:1035F00042EA072222F48062A84201D0B04207D1F9
:103600004D6923F4405343EA05138D6943EA0513DA
:103610004360C4614968C1630262F0BD00000140BB
:103620000004014030B5046A026A22F4805202624A
:103630004268C3690D6823F4E64343EA05238D68B5
:1036400024F4005444EA0534084DA84202D0084D41
:10365000A84204D14D6922F4804242EA85124260B8
:10366000C36149680164046230BD0000000001408C
:103670000004014010B51E488AB00024016841F0E2
:103680000201016000681B4900F0020009901A481D
:1036900001604FF6FF71C160A7210461C0E9011408
:1036A000FFF73CF90120CDE9004002940022694671
:1036B00011480394FFF7A0F802200090CDE901041F
:1036C000042269460C480394FFF796F804200490FE
:1036D0005020059004A90848FFF77CFB002106480C
:1036E000FFF74AF904210448FFF746F90AB010BD74
:1036F0004438024000040140340B002010B5174844
:1037000088B00024016841F00101016000684FF0B9
:10371000804100F0010007901148016042F20F71F2
:10372000C16053210461C0E901144461FFF7A9FAA3
:103730006020009041F28830CDE901044FF48070A0
:103740000394CDE90504002269460548FFF733FAE2
:1037500000210348FFF7C4FA08B010BD403802400A
:10376000EC0A002070B5036800249A6822F0700506
:103770004A682A4322F007050A682A439A604A6881
:1037800012F00F0F31D11211082A2ED2DFE802F009
:103790002E2E2E2E0B2127040B69D1E90221006861
:1037A000FFF79BFE22E00A68052A10D00268136A20
:1037B000156A25F00105156202689569096925F009
:1037C000F00545EA01119161006803620EE00120F5
:1037D00070BD0A698968006800F00AF806E00A69A5
:1037E0008968006800F056F800E00124204670BDAA
:1037F00010B5036A046A24F001040462846924F0A9
:10380000F00444EA021423F00A020A4384610262CB
:1038100010BD000070B5056A046A24F0010404625A
:103820008469154EB04214D0B0F1804F11D0134EC0
:10383000B0420ED0124EB0420BD0124EB04208D061
:10384000114EB04205D0114EB04202D0104EB042DF
:1038500003D124F00304144301E044F001041A07E7
:1038600024F0F00444EA126225F00A0301F00A0190
:1038700019438261016270BD0000014000040040F4
:1038800000080040000C00400004014000400140DE
:103890000018004010B5036A046A24F010040462A2
:1038A000846923F0A00324F4704444EA023243EA1A
:1038B00001118261016210BD30B5046A056A25F00C
:1038C00010050562856925F4407545EA022222F457
:1038D00070454FF6FF7202EA033224F0A0032A4338
:1038E000A02404EA011119438261016230BD10B5C0
:1038F00000F00EF8032200212E20FEF7C7FB2E2039
:10390000FEF7B7FBFFF7FAFEBDE81040FFF7B2BEC7
:10391000144810B5026886B0002142F0010202602E
:10392000026802F001020592026842F0040202609D
:10393000006801AA00F004000590202000900220F9
:10394000032482E813000120049069460648FEF72C
:103950003DFA40200090694604940448FEF736FA88
:1039600006B010BD3038024000000240000802409E
:10397000F8B5064610480D460024016841F00401E0
:1039800001600068032200F00400009011461E2030
:10399000FEF77CFB1E20FEF76CFB094A074810600F
:1039A000C2E90154C2E903641046FEF777FEBDE8A0
:1039B000F8400348FEF7A0BE40380240000800402F
:1039C000A40A002010B5806B0021C185C184FFF7D7
:1039D0002EFA10BD01680C3151E8002F22F49072CC
:1039E00041E80023002BF5D10168143151E8002F84
:1039F00022F0010241E80023002BF5D1016B0129DF
:103A000009D101680C3151E8002F22F0100241E881
:103A10000023002BF5D1202180F842100021016302
:103A2000704708B590F84210222901D0022008BD45
:103A300082684FF480539A4201D1016921B1816AB1
:103A40009A421BD04AB10AE00268816A5268C2F306
:103A500008020A80816A891C08E0026972B1026862
:103A6000526802F07F020A70816A491C8162C18D2E
:103A7000491E0904090CC18503D01BE00268526885
:103A8000F1E70168CA6822F02002CA600168CA68CA
:103A900022F48072CA6001684A6922F001024A6118
:103AA000202180F8421000214163026B012A03D0DB
:103AB000FFF776FB002008BD016301680C3151E877
:103AC000002F22F0100241E80023002BF5D10168FD
:103AD0000A68D20602D50A6849680091818DFFF70D
:103AE000A5F9E7E770B5044600680169E26821F4CA
:103AF0004051114301612169A068E269084361698D
:103B0000114308432168CA6849F20C639A4302438F
:103B1000CA6020684169A26921F440711143416182
:103B200031492068884202D03049884202D1FEF7EC
:103B30009BFB01E0FEF788FBE26900231921642565
:103B40003226B2F5004F626828D0A0FB0101930F26
:103B50009200FCF7E2FB0146B0FBF5F06FF01802B3
:103B6000504301EB800006EB0010B0FBF5F000F0D5
:103B7000F002B1FBF5F002EB0012B1FBF5F06FF0D3
:103B80001803584301EB800006EB0010B0FBF5F082
:103B900000F00F0021681044886070BDA0FB010197
:103BA00092185B41FCF7B9FB0146B0FBF5F002014E
:103BB000B1FBF5F06FF01803584301EB800006EB02
:103BC000C000B0FBF5F000F0F80002EB4002B1FBE2
:103BD000F5F0584301EB800006EBC000B0FBF5F0B8
:103BE00000F00700D6E7000000100140001401407B
:103BF00081628285C28500214164222180F84210C1
:103C0000016921B10168CA6842F48072CA60016822
:103C10004A6942F001024A610068C16841F020012E
:103C2000C16000207047000010B50848FFF706F992
:103C30000648FFF7FDF82028FAD10122044903487D
:103C4000FFF7A0FA0028F8D110BD00005C0A0020A0
:103C500014000020FEE703B401984100009850EAE8
:103C6000C12018BF04204A0D18BF40F0010040F2E7
:103C7000FF72B2EB515F08BF40F00200012808BF9D
:103C8000052002B070470907090E002804DB00F187
:103C9000E02080F80014704700F00F0000F1E020F1
:103CA00080F8141D704730380A2801D2012070476F
:103CB000002070477047000010B504460420FEF74E
:103CC000CBFC0148046010BD1000002070B5054613
:103CD00000244FF47A7603E0304600F005F8641CC7
:103CE000AC42F9D370BD000070B54FF0E024002263
:103CF00065690949A36909684843A1699942FCD0EB
:103D000002D2A3EB010302E0A5EB010633441A44FF
:103D10000B468242F1D370BD1000002003490A68AF
:103D20005206FCD5C2B24A60704700000010014044
:103D3000FEF764F9FFF7E4FAFFF79EFAFDF7B4FF28
:103D4000FEE700000FB42DE9F04F8B4682460020BD
:103D500026498BB00DF15C080870012506463DE050
:103D600023A11698FCF7F2FD002808F10400D8F80A
:103D7000001080C8894680464FF0000416D02AE023
:103D80001DB959461948FCF77BFD002559F8240058
:103D900001F0FAF9CDE90001202102A8169AFCF7FA
:103DA0003FFB02A91148FCF76BFD641CBC42E7DB3A
:103DB00013E01DB959460D48FCF762FD002559F87E
:103DC0002430202102A8169AFCF72AFB02A90748F2
:103DD000FCF756FD641CBC42EBDB761C5645BFDB92
:103DE0000BB00248BDE8F00F5DF814FB9401002011
:103DF000256600000FB42DE9F04F8B468246002067
:103E000026498BB00DF15C080870012506463DE09F
:103E100023A11698FCF79AFD002808F10400D8F8B1
:103E2000001080C8894680464FF0000416D02AE072
:103E30001DB959461948FCF723FD002559F82400FF
:103E400001F0A2F9CDE90001202102A8169AFCF7A1
:103E5000E7FA02A91148FCF713FD641CBC42E7DB3A
:103E600013E01DB959460D48FCF70AFD002559F825
:103E70002430202102A8169AFCF7D2FA02A907489A
:103E8000FCF7FEFC641CBC42EBDB761C5645BFDB3A
:103E90000BB00248BDE8F00F5DF814FB940500205C
:103EA000256600002DE9F04190B0264809AC00F1EC
:103EB000100105AD0EC984E80E00F0E80712CDE947
:103EC0000C121EC885E81E0050E90910CDE90E103D
:103ED00004250DF1300803270DF1040C05AE022472
:103EE0004046009704958CE8510009AB16A217A133
:103EF0003846FFF727FF014615A0FCF785FACDE904
:103F00000246CDE9007809AB15A217A1032004955C
:103F1000FFF770FF014615A0FCF776FA0EAB1AA268
:103F20000AA101200094FFF70DFF014617A0FCF73E
:103F30006BFA1D490020401C8842FCDB10B00020B9
:103F4000BDE8F08194520008256400002C000000B8
:103F5000C6B4BDD3BDE1B9FB3A2025730D0A0000FC
:103F6000307825303258000020000000C6B4BDD3A0
:103F7000BDE1B9FB2028CAAEC1F9BDF8D6C6293AC1
:103F80002025730D0A00000025660000C6B4BDD3CD
:103F9000BDE1B9FB2028666C6F6174CAFDD7E929C1
:103FA0003A25730D0A000000A086010010B50548EF
:103FB000FFF75EF90348FFF757F90249091F087038
:103FC00010BD00007C0100207CB54FF4FA70FDF7B5
:103FD000EBFE104802881048018810A0FCF714FA84
:103FE000164890ED000A10EE100A01F0CDF80446D4
:103FF00013480D4690ED000A10EE100A01F0C4F8C7
:1040000041EC100B0FA053EC102BCDE90045FCF751
:10401000FBF97CBD880100208A010020494331560C
:10402000616C7565203D202564202049433256612E
:104030006C7565203D202564200000009001002063
:104040008C010020D5BCBFD5B1C8A3BA25302E3213
:10405000662525202020C6B5C2CAA3BA25302E3237
:1040600066487A0D0A000000006870470B4910B5D9
:10407000094AC1E9002000208860C86008618861A1
:104080000C2048610846FFF711F8BDE810400122F6
:1040900003490248FFF776B8001001405C0A00208F
:1040A000140000202DE9F041804620A0FCF7ACF977
:1040B0000025234F2C463E1F0BE0844202D12846A8
:1040C000BDE8F08157F824104046FCF73FFC20B1D2
:1040D000641C3068411C8C42EFDB57F8241019A097
:1040E000FCF792F9062C18D2DFE804F00307090B5D
:1040F000111400F09FFB054614E0022512E0032591
:1041000010E013A0FCF780F9FDF7F2FF0AE0FFF7DB
:10411000C9FE07E0FFF74AFF04E06A2210A11AA0D7
:10412000FCF772F91DA0FCF76FF9C8E70D0A697476
:10413000206973204749444C45210D0A00000000C6
:104140003C0000206974206973202573210D0A004A
:10415000D5FDD4DAD6D8C6F42E2E2E0D0A000000D6
:104160002E2E5C436F72655C436F64655C416C69C5
:10417000656E74656B5C75736D6172745F636F6E91
:104180006669672E6300000025735B25645D3A2035
:10419000B0A13FD5E22E2E2E0D0A0000656E6420E0
:1041A0006F662069740D0A0070B596B0054614ABB1
:1041B00001AA03A900F0DEF9002824D18DF84C00F3
:1041C0001D4C042615E000BF216806EBC00014ABAF
:1041D00008586A460BA900F0CDF9002813D103A9AD
:1041E0000BA800F03EFC80B19DF84C00401C8DF8FF
:1041F0004C00217DC0B28142E6D8207D9DF84C1054
:1042000088420ED1042016B070BD9DF800009DF8C4
:104210000410884201D90220F5E79DF84C00A075F2
:10422000EBE713A9284600F05DFA0028EBD19DF8D2
:104230004C0060750020E6E7840000202DE9F04185
:104240007F4C9AB0A57D207DA8427DD904212068AD
:1042500001EBC50119AB405810AA11A900F08AF969
:1042600011A978A0FCF7D0F800270DF1180833E069
:10427000208B0121B940084217D0222173A0FCF7FE
:10428000C3F8384600F098FA011971A02431FCF700
:10429000BBF822216DA0FCF7B7F8384600F08CFA85
:1042A0002044243048F827000CE0384600F084FA17
:1042B0002044416A48F82710E07D08B365A000BF9C
:1042C000FCF7A2F89DF84000401E874202D063A090
:1042D000FCF79AF87F1CFFB29DF840008742C7D3D5
:1042E0005FA0FCF791F800F0E3FA607D0B2814D290
:1042F000DFE800F0080D31384048525E6B788800E6
:1043000058A0DDE7206850F83500804704E02068B9
:1043100050F8351006988847064600F05FFA9DF879
:10432000640001287DD050A0FCF76EF894F8EC00F2
:1043300000280DD0D4F8F0100A20B1FBF0F200FBF9
:104340001212B1FBF0F100E002E048A0FCF75CF8CB
:104350001AB0BDE8F081206850F83520DDE906018B
:104360009047D9E7206806AE50F8353096E8070048
:104370009847D1E7206806AE50F8355096E80F0010
:10438000A847C9E70A980090206806AE50F8355053
:1043900096E80F00A847BFE7DDE90A01CDE9000173
:1043A000206806AE50F8355096E80F00A847B3E7EE
:1043B0000AAB06AE93E807008DE80700206850F8C6
:1043C000355096E80F00A847A6E70AAE96E80F001A
:1043D0008DE80F00206806AE50F8355096E80F00C3
:1043E000A84799E70BAE96E80F0001AE86E80F00EC
:1043F0000A980090206806AE50F8355096E80F00F5
:10440000A84789E70CAE96E80F0002AE86E80F00D9
:10441000DDE90A01CDE90001206806AE50F835500B
:1044200000E003E096E80F00A84775E7E07D31461D
:1044300018B116A0FBF7E8FF78E717A0FAE700002D
:10444000840000200D0A2573280000002563000069
:104450002573000030582558000000002C00000093
:1044600029000000256C64003B0D0A0046756E6350
:1044700074696F6E2052756E2054696D653A2564BB
:104480002E2531646D730D0A000000003D30582563
:10449000583B0D0A000000003D256C753B0D0A00DD
:1044A000F0B50446002007460646054623782C2B27
:1044B00003D0292B04D01BB103E015B9012700E07C
:1044C00015B31EB1222B2BD0F7B92FE0A3F1300C7E
:1044D000BCF1090F19D92D2B17D02B2B15D0A3F117
:1044E000610CBCF1050F10D9A3F1410CBCF1050F13
:1044F0000BD9582B09D0782B07D0222B0CD0202B8E
:104500001DD02C2B1BD0FF260CE05FB9612B00D3F4
:10451000203B01F8013B12E027B9012635460EE0A9
:10452000002567B100230B701670F0BD3DB15C2B08
:1045300002D1401CC0B2641C237801F8013B401C2E
:10454000C0B2641CB2E730B5002515700AE001F86E
:10455000014B1478401C641CE4B214709C4201D3DB
:10456000012030BD0478202C01D0002CEFD10D703B
:10457000002030BD2DE9FF4F002582B0984604464B
:104580002F462E464FF0010BAA462A46A94615E0B3
:10459000202910D002F07F03052B0CD202B9802213
:1045A00002F07F03042B01D12A290AD1521C0DF8F5
:1045B0000310D2B201E0852A04D0401C0178002902
:1045C000E6D162B102F07F0244A10DF80290684684
:1045D00000F047FA38B1012188F8001000224FF0AE
:1045E0000008234614E088F80090F7E708F101007E
:1045F00000F0FF0813F8010F202801D02A2807D166
:10460000184600F0BBF9282802D02A2800D04746D7
:104610001878282801D00028E8D10FB13C44641C48
:1046200000273946207888B1282804D0292806D0C8
:1046300022280FD010E079B96D1CEDB20CE059B909
:1046400025B16D1E15F0FF0501D00CE00127012EEC
:1046500032D039E049B100214DB12C280FD02028AB
:104660001FD028281DD07AB117E00121F4E72028B7
:1046700020D0039B18700398401C03901AE0521C32
:104680004FF0010BD2B20CE0BAF1050F05D20DF8D4
:104690000A000AF1010000F0FF0A0BF1010000F02E
:1046A000FF0B012D06D1BBF1020F03D1761C4FF099
:1046B000030BF6B2641CB5E70DF80A9007A1684633
:1046C00000F0CFF900B9002604980670039880F82E
:1046D000009006B03846BDE8F08F0000766F696440
:1046E000000000002DE9F04300248946314DB5B0AB
:1046F000214622466B18491CC9B29A760A29F9D379
:1047000003E000BF10F8011F91B101782829F9D109
:10471000461C012733AA69463046FFF7C1FE06440E
:104720009DF8CC0040B1012824D0FF2839D10BE0FE
:10473000012035B0BDE8F0839DF8000080B334A9B6
:10474000684600F023F908B10220F2E7204600F0A5
:1047500033F8284434994162288B07FA04F18843DE
:104760002883042029198876641CE4B20A2C18D9FD
:104770000320DEE7684600F089F900F101082046D1
:1047800000F01AF841196846243100F076F9288BB8
:1047900007FA04F108432919288381F81A80E3E70E
:1047A000FFE73078292801D00028B3D189F80040EC
:1047B0000020BEE784000020024610B5002001461C
:1047C000054B05E05C18491CA47EC9B22044C0B268
:1047D0009142F7D310BD0000840000200948006812
:1047E0000169C943CA070849D1F8F02004D14FF63E
:1047F000FF731A44C1F8F020406A1044C1F8F00079
:1048000070470000A40A00208400002000EBC001D3
:1048100001EB00104FF0FF3101EB800010B581B2C9
:104820004FF47A70FFF7A4F801490120C87510BD54
:10483000840000202DE9F0410F4D01260FA02968CA
:10484000FBF7E2FD00242F1D0DE000BF57F82410F8
:104850000FA0FBF7D9FD2868401E844202D00EA0AD
:10486000FBF7D2FD641C28688442EFDB0BA0FBF74A
:10487000CBFD3046BDE8F081380000206D795F66E1
:10488000756E635F6C6973745B25645D3A207B00B1
:1048900022257322000000002C2000007D0D0A005C
:1048A0000246012000E05043491EC9B2FBD27047C6
:1048B00007486FF00101026811610268090CD162BA
:1048C000C1600068002141620248C0F8F0107047E2
:1048D000A40A0020840000202DE9F041164D28880C
:1048E000010426D51549C0B2154F00260E54B968EB
:1048F0001248884704000FD0104800F0D1F8012872
:1049000001D0040014D0012C09D0022C09D0032CB2
:1049100009D0042C0CD108E0F868804708E009A011
:1049200004E00BA002E00DA000E00FA0FBF76CFD7F
:104930002E80BDE8F08100001600002094090020C0
:1049400084000020BAAFCAFDB4EDCEF3210D0A00F9
:10495000B2CECAFDB4EDCEF3210D0A00B2CECAFD2F
:10496000CCABB6E0210D0A00CEB4D5D2B5BDC6A5FC
:10497000C5E4B5C4BAAFCAFD210D0A0010F8011F85
:10498000202901D10028F9D1C8B270472DE9F043A0
:104990000D4600244FF00A09264601462C600A788D
:1049A000A2F13003092B14D903782D2B01D02B2B26
:1049B00000D174B1A2F14103052B0AD9582A05D0C0
:1049C00012F0FF0F17D00120BDE8F083012C02D0B8
:1049D000F9E7412A01D34FF0100902782D2A04D0BB
:1049E0002B2A04D0641CE4B203E0022600E0012676
:1049F000401C491CD3E70746B9F1100F01D084B120
:104A000012E0032C01D20220DEE73878302802D1F0
:104A10007878582801D00320D6E7A41EE4B2BF1C42
:104A200001E00420D0E70CB1641EE4B23878A0F1B4
:104A30003001092901D8884601E0A0F13708214654
:104A40004846FFF72DFF2A6808FB0020286017F86A
:104A5000011F0029E7D1022E01D140422860002029
:104A6000B2E702780B789A4201D00120704712B168
:104A7000401C491CF5E70020704702780A70027854
:104A8000002A02D0401C491CF7E770470021027839
:104A90001AB1491CC9B2401CF9E70846704700002A
:104AA000F0B58DB004461E236A4602A9FFF74BFD00
:104AB0000190002872D19DF80000271800263E4C76
:104AC0008DF800609DF8000054F8201002A8FFF750
:104AD000C8FF38B19DF80000401CC0B28DF800003E
:104AE0000728EFD39DF800000425344C072855D241
:104AF000DFE800F00404395A605F5E0030A0FBF785
:104B000083FC30A0FBF780FC3EA0FBF77DFC4DA0B2
:104B1000FBF77AFC5BA0FBF777FC6AA0FBF774FC61
:104B200078A0FBF771FC86A0FBF76EFC8BA0FBF76F
:104B30006BFC93A0FBF768FC97A0FBF765FC9CA0BF
:104B4000FBF762FCA1A0FBF75FFCA7A0FBF75CFCF6
:104B5000B3A0FBF759FCC0A0FBF756FCCBA0FBF7BA
:104B600053FCD7A01BE016A0FBF74EFCE4A0FBF71C
:104B70004BFC8DF800600BE0216805EBC000095884
:104B8000EFA0FBF741FC9DF80000401C8DF80000F1
:104B9000217D9DF800008142EED856E257E2FBF7F6
:104BA00033FC00200DB0F0BD05A0FBF72DFCCBE1E0
:104BB0002CE20CE2EBE100001C000020840000204D
:104BC0000D0A00002D2D2D2D2D2D2D2D2D2D2D2DB2
:104BD0002D2D2D2D2D2D2D2D2D2D2D2D55534D4183
:104BE00052542056332E332D2D2D2D2D2D2D2D2D80
:104BF0002D2D2D2D2D2D2D2D2D2D2D2D2D2D2D20F2
:104C00000D0A00002020202055534D415254CAC7A0
:104C1000D3C9414C49454E54454BBFAAB7A2B5C470
:104C2000D2BBB8F6C1E9C7C9B5C4B4AEBFDAB5F7EF
:104C3000CAD4BBA5BDBBD7E9BCFE2CCDA8B9FD200D
:104C40000D0A0000CBFC2CC4E3BFC9D2D4CDA8B957
:104C5000FDB4AEBFDAD6FACAD6B5F7D3C3B3CCD05B
:104C6000F2C0EFC3E6B5C4C8CEBACEBAAFCAFD2C07
:104C7000B2A2D6B4D0D02ED2F2B4CB2CC4E3BFC9EA
:104C80000D0A0000D2D4CBE6D2E2B8FCB8C4BAAF69
:104C9000CAFDB5C4CAE4C8EBB2CECAFD28D6A7B3D4
:104CA000D6CAFDD7D62831302F3136BDF8D6C62C1E
:104CB000D6A7B3D6B8BACAFD29A1A2D7D6B7FBB436
:104CC000AE0D0A00A1A2BAAFCAFDC8EBBFDAB5D8D3
:104CD000D6B7B5C8D7F7CEAAB2CECAFD292CB5A58E
:104CE000B8F6BAAFCAFDD7EEB6E0D6A7B3D6313024
:104CF000B8F6CAE4C8EBB2CECAFD2CB2A2D6A7B3AE
:104D0000D60D0A00BAAFCAFDB7B5BBD8D6B5CFD459
:104D1000CABE2ED6A7B3D6B2CECAFDCFD4CABEBDA8
:104D2000F8D6C6C9E8D6C3B9A6C4DC2CD6A7B3D674
:104D3000BDF8D6C6D7AABBBBB9A6C4DC2E0D0A00E7
:104D4000BCBCCAF5D6A7B3D63A7777772E6F706515
:104D50006E6564762E636F6D0D0A000055534D41EC
:104D60005254D3D037B8F6CFB5CDB3C3FCC1EE287B
:104D7000B1D8D0EBD0A1D0B4293A0D0A0000000080
:104D80003F3A202020202020BBF1C8A1B0EFD6FA66
:104D9000D0C5CFA20D0A000068656C703A202020B3
:104DA000BBF1C8A1B0EFD6FAD0C5CFA20D0A000062
:104DB0006C6973743A202020BFC9D3C3B5C4BAAF9D
:104DC000CAFDC1D0B1ED0D0A0A00000069643A20A5
:104DD00020202020BFC9D3C3BAAFCAFDB5C44944FF
:104DE000C1D0B1ED0D0A0A006865783A2020202074
:104DF000B2CECAFD3136BDF8D6C6CFD4CABE2CBAA3
:104E0000F3B8FABFD5B8F12BCAFDD7D6BCB4D6B427
:104E1000D0D0BDF8D6C6D7AABBBB0D0A0A00000089
:104E20006465633A20202020B2CECAFD3130BDF83F
:104E3000D6C6CFD4CABE2CBAF3B8FABFD5B8F12BB8
:104E4000CAFDD7D6BCB4D6B4D0D0BDF8D6C6D7AA82
:104E5000BBBB0D0A0A00000072756E74696D653A7D
:104E6000312CBFAAC6F4BAAFCAFDD4CBD0D0BCC6D1
:104E7000CAB13B302CB9D8B1D5BAAFCAFDD4CBD06A
:104E8000D0BCC6CAB13B0D0A0A000000C7EBB0B4E3
:104E9000D5D5B3CCD0F2B1E0D0B4B8F1CABDCAE434
:104EA000C8EBBAAFCAFDC3FBBCB0B2CECAFDB2A25A
:104EB000D2D4BBD8B3B5BCFCBDE1CAF82E0D0A00F4
:104EC0002D2D2D2D2D2D2D2D2D2D2D2D2D2D2D2D12
:104ED0002D2D2D2D2D2D2D2D2D2D414C49454E5453
:104EE000454B2D2D2D2D2D2D2D2D2D2D2D2D2D2DBC
:104EF0002D2D2D2D2D2D2D2D2D2D2D200D0A00008C
:104F00002D2D2D2D2D2D2D2D2D2D2D2D2D2D2D2DD1
:104F10002D2D2D2D2D2D2D2D2DBAAFCAFDC7E5B56B
:104F2000A52D2D2D2D2D2D2D2D2D2D2D2D2D2D2D39
:104F30002D2D2D2D2D2D2D2D2D2D2D2D200D0A001E
:104F400025730D0A0000000042A0FBF75DFA8DF802
:104F5000006016E0216805EBC0000BAB08580AAAF8
:104F600002A9FFF707FB9DF80010206850F83120D8
:104F700002A948A0FBF748FA9DF80000401C8DF8F4
:104F80000000217D9DF800008142E3D85DE0AFF292
:104F9000D030FBF739FA6A4602A93846FFF780FAA3
:104FA0009DF80000002843D101A902A8FFF7EEFCFC
:104FB0008DF8000010B104283AD102E03AA001991E
:104FC0001CE03CA0FBF720FA0120E0753DE038A092
:104FD000FBF71AFA6A4602A93846FFF761FA9DF80C
:104FE000000028BB01A902A8FFF7D0FC8DF8000043
:104FF00010B104281CD104E033A00199FBF704FA96
:1050000023E034A0FBF700FAE6751EE028A0FBF7CA
:10501000FBF96A4602A93846FFF742FA9DF80000FC
:1050200030B901A902A8FFF7B1FC8DF8000008B162
:105030000220B7E5019810F0FF0084F8EC0001D0E1
:1050400029A000E02FA0FBF7DFF919A0A7E50120B8
:10505000A8E500002D2D2D2D2D2D2D2D2D2D2D2DA7
:105060002D2D2D2D2D2D2D2D2D2D2D2D2DBAAFCAC4
:10507000FD204944202D2D2D2D2D2D2D2D2D2D2D77
:105080002D2D2D2D2D2D2D2D2D2D2D2D2D2D2D2D50
:10509000200D0A0025732069642069733A0D0A30D7
:1050A00058253038580D0A004845583A3058255888
:1050B0000D0A00003136BDF8D6C6B2CECAFDCFD437
:1050C000CABE210D0A0000004445433A256C750D07
:1050D0000A0000003130BDF8D6C6B2CECAFDCFD42A
:1050E000CABE210D0A00000052756E2054696D651C
:1050F0002043616C63756C6174696F6E204F4E0D57
:105100000A00000052756E2054696D652043616C81
:1051100063756C6174696F6E204F46460D0A00001E
:105120000160704710B500290AD00878002807D020
:1051300005487844FBF70AFC002801D0002010BD88
:105140000248784410BD0000160800000E08000058
:1051500010B500290AD00878002807D005487844FF
:10516000FBF7F4FB002801D0002010BD0248784472
:1051700010BD000006080000FE0700000808A0F5AA
:1051800000114FEA3101704743004FEAD30C4FEA58
:105190003C0C43401FBF40070CF1605113F0FE4F21
:1051A00070471CF0006F03D100200CF000417047E5
:1051B0000CF0004343EA507010B540EACC0000F018
:1051C0000EF800BF000000924FEA0001FFF7D6BFC3
:1051D0004FF000414FF00000A1F5002170470EF1A3
:1051E000020E2EF0030E5EF8044B244204D44FEA64
:1051F0004102B2F17F4F11D84FEA4003B3F17F4F24
:105200000CD80ED14FEAD07CB2F17F4F0CEB4C0C96
:105210000CF1020C08BF4CEBD17C04E04FF0080C01
:1052200001E04FEAD17C0CEB4C0324FA03F404F0C8
:105230000704B4F1040C06D20EEB840CBDE8104058
:105240004CF0010C6047DFE80CF0070802024FF059
:105250000040A0F5800010BD0846420018BFD2F102
:10526000807288BF00F0004010BD4FF04070E1EE4A
:10527000100A7047FBF7DEBCFBF712BE000000000F
:1052800000000000010203040607080900000000F6
:105290000102030404000000050000009A99993FF0
:1052A000333313400100000002000000030000003F
:1052B00010000000110000001200000013000000A8
:1052C0000000000000000000303132333435363742
:1052D000383941424344454640305800303132333A
:1052E000343536373839616263646566403078003A
:1052F000040000080000000000000002000100009F
:105300001030313233343536373839616263646591
:1053100066787000303132333435363738394142AF
:10532000434445465850000002400000000000A0E1
:105330000000000005400000000000C80000000060
:105340000C4000000000409C0000000019400000DC
:105350000020BCBE0000000034400000BFC91B8E0E
:1053600000000004B5400000504BCFD06607E2CFEC
:10537000010000006C4100003E8251AADFEEA7341C
:1053800001000000D9420000DCB5A0E23A301F97CE
:10539000FFFFFFFFB4450000FD25A0C8E9A3C14FF2
:1053A000FFFFFFFFFF3F0000000000800000000043
:1053B000FF3F0000000000800000000020202020AF
:1053C00020202020202020202020202020202020DD
:1053D000202020202020202020202020202642477E
:1053E00047232620202020200D0A202020202020B6
:1053F00020202020202020202020202020202020AD
:1054000020202020202020202020503535505050B2
:105410003547262020200D0A202020202020202073
:105420002020202020202020202020202020262373
:10543000234242353F42234247424247354747478E
:10544000502620200D0A202020202020202020204F
:1054500020202020202020202020202342424242C1
:1054600042475E50424242474235374A3550502605
:1054700020200D0A20202020202020202020202055
:105480002020202020202023422323424242422366
:10549000214A234242424242594A50474220202058
:1054A0000D0A202020202020202020202020202025
:1054B00020202026232323262342424242234A211E
:1054C00042422323234242232020202020200D0A71
:1054D00020202020202020202020202020202020CC
:1054E0002023232326354742424242235021504263
:1054F0005042232323422620202020200D0A202052
:105500002020202020202020202020202020202695
:10551000232323474242422323233735232342595F
:105520003F3542232320202020200D0A2020202048
:105530002020202020202020202020202020262362
:1055400023232323232326507E2323232323474A55
:1055500037594220202020200D0A20202020202002
:105560002020202020202020202020202020232335
:1055700023232323263F5926232323232326474A55
:105580005020202020200D0A202020202020202014
:10559000202020202020202020202623505935475D
:1055A0004242424A42232323232323262623262022
:1055B000202020200D0A2020202020202020202014
:1055C0002020202020202020504A3F3F4A4A4A598C
:1055D00059593535504742232323232020202020AA
:1055E00020200D0A202020202020202020202020E4
:1055F0002020202647593F3F4A4A4A59595959596C
:10560000595959595935472620202020202020203B
:105610000D0A2020202020202020202020202026AD
:10562000504A3F3F3F4A4A4A59595959595959597D
:10563000595959594A3526202020202020200D0A6A
:10564000202020202020202020202020424A3F4AC5
:105650004A4A4A59595935355050503535353535FE
:105660003559594A42202020202020200D0A202090
:10567000202020202020202026593F4A59595959BE
:1056800035504742232620202020234735353559E1
:1056900059594A232020202020200D0A2020202094
:1056A00020202020202059374A35355047232620F6
:1056B0002020202020202020202026473535353569
:1056C00059592620202020200D0A2020202020208B
:1056D00020202023373F4A59472020202020202007
:1056E0002020202020202020202023475050593FD8
:1056F0004A26202020200D0A2020202020202020A3
:105700002047373F4A5923202020202020202020D6
:105710002020202020202020202023594A3F3F50B5
:10572000202020200D0A202020202020202020358D
:105730003F4A4A35202020202020202020202020E1
:10574000202020202020202020474A3F3F4A26209A
:1057500020200D0A202020202020202020593F4AF0
:1057600059262020202020202020202020202020FA
:105770002020202020202026593F3F3F4720202066
:105780000D0A2020202020202020264A3F4A4720A2
:105790002020202020202020202020202020202009
:1057A00020202020202026593F3F352020200D0A90
:1057B000202020202020202026504742202020206A
:1057C00020202020202020202020202020202020D9
:1057D0002020202020233535502020200D0A202095
:1057E000202020202020424750422020202020201E
:1057F00020202020202020202020202020202020A9
:10580000202020202347504220200D0A2020202045
:10581000202026424742475042202020202020209E
:105820002020202020202020202020202020202078
:1058300020202350474242260D0A2020202000002D
:105840003F000000646563006964000072756E7457
:10585000696D650068656C70000000006C697374A8
:105860000000000068657800736875687561000065
:105870006C6564006D696E6E6965000079757169AB
:10588000000000006D756C7469000000726573653E
:1058900074000000696E74206D795F7465737428FC
:1058A000766F696429000000696E7420756728634B
:1058B000686172202A69646C65290000766F6964EA
:1058C0002077726974655F61646472287533322071
:1058D000616464722C7533322076616C290000009B
:1058E00075333220726561645F6164647228753358
:1058F0003220616464722900766F69642064656C8B
:1059000061795F6D7328753136206E6D73290000E3
:10591000766F69642064656C61795F75732875338F
:1059200032206E7573290000745A000800000020B0
:1059300094010000C4010008EC5A00089401002002
:105940004C100000200200081C0000004300000072
:10595000F8FFFFFF0C0000000E0000000F00000029
:105960002E0000001001000043000000F8FFFFFFC0
:105970000040404040404040404041414141414062
:105980004040404040404040404040404040404017
:1059900040050202020202020202020202020202A6
:1059A00002202020202020202020200202020202AB
:1059B0000202909090909090101010101010101003
:1059C000101010101010101010101010020202020F
:1059D0000202888888888888080808080808080853
:1059E000080808080808080808080808020202024F
:1059F0004000000000000000000000000000000067
:105A00000000000000000000000000000000000096
:105A10000000000000000000000000000000000086
:105A20000000000000000000000000000000000076
:105A30000000000000000000000000000000000066
:105A40000000000000000000000000000000000056
:105A50000000000000000000000000000000000046
:105A60000000000000000000000000000000000036
:105A70000000000032018210D324F41340581B08A8
:105A800054041A5C041A48041A64041A44041A4C94
:105A90000432061A74081A7C041A68041A8C041A50
:105AA00084041A70041369401B08E0081321511B79
:105AB00008BC0813CD3C1B08F8081AE90813105954
:105AC0001B08A5201AA81013C93F2B0894642114A1
:105AD000200D481408A94114083D421B08D90C198F
