:020000040800F2
:1000000040160020D9020008FF3C0008B13B000860
:10001000FD3C00085D1E0008594300080000000078
:10002000000000000000000000000000033D000888
:100030008D1F000800000000013D0008053D00087C
:10004000F3020008F3020008F3020008F3020008BC
:10005000F3020008F3020008F3020008F3020008AC
:10006000F3020008F3020008F3020008F30200089C
:10007000F3020008F3020008F3020008F30200088C
:10008000F3020008F3020008F3020008F30200087C
:10009000F3020008F3020008F3020008F30200086C
:1000A000F3020008B13D0008F3020008F302000863
:1000B000F3020008F3020008BD3D0008F302000847
:1000C000F3020008F3020008F3020008F30200083C
:1000D000F30200082D430008F3020008F3020008B1
:1000E000F3020008F3020008F3020008F30200081C
:1000F000F3020008F3020008F3020008F30200080C
:10010000F3020008F3020008F3020008F3020008FB
:10011000F3020008F3020008F13D0008F3020008B2
:10012000F3020008F3020008F3020008F3020008DB
:10013000DD1E0008F3020008F3020008F3020008C5
:10014000F3020008F3020008F3020008F3020008BB
:10015000F3020008F3020008F3020008F3020008AB
:10016000F3020008F3020008F3020008F30200089B
:10017000F3020008F3020008F30200080000000088
:10018000F3020008F302000800F002F800F095F80E
:100190000AA090E8000C82448344AAF10107DA45E2
:1001A00001D100F08AF8AFF2090EBAE80F0013F09F
:1001B000010F18BFFB1A43F001031847B478000081
:1001C000D47800000A444FF0000C10F8013B13F003
:1001D000070408BF10F8014B1D1108BF10F8015BA0
:1001E000641E05D010F8016B641E01F8016BF9D193
:1001F00013F0080F1EBF10F8014BAD1C0C1B09D1EA
:100200006D1E58BF01F801CBFAD505E014F8016B5B
:1002100001F8016B6D1EF9D59142D6D370470000ED
:100220000023002400250026103A28BF78C1FBD8FF
:10023000520728BF30C148BF0B607047662907F0DE
:100240008880652907F08580672907F08280612909
:1002500007F08180692900F05F81642900F05C81EA
:10026000752900F059816F2900F0F081782900F09C
:1002700017820368DB0928BF41F08001632900F081
:10028000C887732900F0CD87E32900F0EB870020B1
:1002900070471FB507F053F801F018F8040000206C
:1002A000002106F093FA401C60600020002106F057
:1002B00077FAE0601FBD10B510BD01F00BF91146D3
:1002C000FFF7E7FF04F0F8FE01F029F903B4FFF7A8
:1002D000F2FF03BC04F007FB0948804709480047C8
:1002E000FEE7FEE7FEE7FEE7FEE7FEE7FEE7FEE7E6
:1002F000FEE7FEE704480549054A064B7047000043
:10030000A13D00088901000840100020401600208F
:100310004012002040120020704753EA020C00F007
:1003200069802DE9F04B4FF00006002B1FBFB3FA98
:1003300083F503FA05F424FA05F65E4012BF16436E
:10034000B2FA82F502FA05F4C5F120051EBF22FAC1
:1003500005FC44EA0C04203556EA044C4FEA1444E8
:1003600018BF641C4FF000084FF00009904271EB79
:10037000030C39D3002919BFB1FA81F701FA07F646
:10038000B0FA80F700FA07F6C7F120071EBF20FA7F
:1003900007FC46EA0C062037B6FBF4FCA7EB050782
:1003A000103F07F01F0BCBF120060CFA0BFB2CFAC9
:1003B00006F644BFB3460026202FA4BF5E464FF08A
:1003C000000B5BEA060C08BF4FF0010B19EB0B09A1
:1003D000ABFB027C48EB0608C01B06FB02CC0BFB08
:1003E00003CC71EB0C01C1E70B460246414648467F
:1003F000BDE8F08B13B54FF000004FF00001AFF3F4
:100400000080BDE81C4070470FB4044910B503AA32
:10041000029800F00BFF10BC5DF814FB8C0000206C
:100420000FB41CB50C0007AA009001D02044401E58
:10043000074B7B4469460190069800F0C0FE002CF3
:1004400003D06946002000F0CDFE1CBC5DF814FB13
:10045000B90D000070B5044685690068C10601D574
:10046000302600E02026C00707D070BDD4E9012166
:1004700030469047206A401C20626D1EF6D570BD44
:1004800070B5044685690078C00707D170BDD4E90E
:10049000012120209047206A401C20626D1EF6D565
:1004A00070BD09684A0501D540B27047C905FCD541
:1004B00000B2704709684A0501D5C0B27047C90546
:1004C000FCD580B2704770B50C460546012A05D0B0
:1004D0002878800600D5EA69002302E0012305E0C0
:1004E0005B1C934202D2E05C0028F9D1A869E618AF
:1004F000C01AA861286A184428622846FFF7AAFF94
:1005000004E0D5E9012114F8010B9047B442F8D377
:100510002846FFF7B5FF70BD2DE9F04106460024DF
:1005200010687529314616A510D0FFF7BAFF0028CC
:1005300002DA404213A507E031688A0701D512A507
:1005400002E0490704D511A5012401E0FFF7B2FF3D
:1005500000210A2206F1240709E0B0FBF2FCB0FBFF
:10056000F2F302FB1C00303078541846491C002876
:10057000F3D123462A463046BDE8F04100F035BAB3
:10058000000000002D0000002B00000020000000F3
:100590002DE9FF5F15468A460446DFF8AC80F84433
:1005A0000027D8E900103E46CDE9001010E03AF8E7
:1005B00016106A4602A800F061FE411C07D021789F
:1005C000890603D5E269391891420DD80744761C93
:1005D0002078800602D5E069B84205DDAE42E6DB50
:1005E0003AF816000028E2D1A069C01BA06120469D
:1005F000FFF730FFD8E90010CDE90010002017E028
:100600003AF818106A4602A800F038FEB0F1FF3F31
:1006100081460BD000250DF1080B05E0D4E901213E
:100620001BF8050090476D1C4D45F7D308F10100FC
:10063000B0428046E4DB206A384420622046FFF75F
:100640001FFFBDE8FF9F0000066E000070B5044666
:1006500021461068FFF72EFF002104F1240505E074
:1006600000F007023032C0086A54491C0028F7D154
:100670002068002308A2050708D500F020000843E1
:1006800004D0E069012305A2401EE0612046BDE8D8
:10069000704000F0AAB90000000000003000000027
:1006A00070B504460D4621461068FFF703FF218808
:1006B000090502D50F4A7A4402E00E4A7A440E3206
:1006C000002104F1240305E000F00F060009965D07
:1006D0005E54491C0028F7D120780023000704D578
:1006E000702D02D009B1022311322046BDE87040BE
:1006F00000F07BB9F66C00002DE9F05F89460446F6
:100700004FF0000ADFF874B1FB44C0F820A0204687
:10071000E1688847002874D0252806D0D4E9012153
:100720009047206A401C2062F1E700265F46204681
:10073000E16888472028054607DB312D05D2781966
:1007400010F8200C08B10643F1E7B00701D526F0F8
:100750000406C4F81CA00027C4F818A02A2D09D04C
:10076000284604F0B9F838B304EB8708303DC8F8E0
:10077000185019E059F8041B204604EB87029161D8
:10078000E1688847012F054618D1E069002820DA82
:1007900026F020061DE0D8F8180000EB800005EBDD
:1007A00040003038C8F818002046E1688847054600
:1007B00004F092F80028EED1012F0AD02E2D08D196
:1007C0002046E16888477F1C0546022F46F0200638
:1007D000C4DBA069002803DA404246F00106A061AC
:1007E000F00701D026F010066C2D0BD0682D09D033
:1007F0004C2D39D06A2D35D0742D35D07A2D33D08B
:1008000016E038E0E1682F4620468847B8420546A2
:1008100009D16C2F26D04FF48060E1680643204652
:100820008847054604E06C2F1AD04FF480700643C9
:100830000DB3A5F14100192802D8203546F4006611
:100840004A462946204626604E46FFF7F7FC80B10F
:1008500001280BD0F61D26F0070000F1080956E725
:100860004020E4E78020D8E70020D6E706F104091D
:100870004DE7284652E7206ABDE8F09FCC6C0000A7
:10088000421E12F8013F002BFBD111F8013B002B57
:1008900002F8013BF9D1704710B5203AC0F00B8047
:1008A000B1E81850203AA0E81850B1E81850A0E874
:1008B0001850BFF4F5AF5FEA027C24BFB1E81850CE
:1008C000A0E8185044BF18C918C0BDE810405FEA3E
:1008D000827C24BF51F8043B40F8043B08BF7047BA
:1008E000D20728BF31F8023B48BF11F8012B28BFBF
:1008F00020F8023B48BF00F8012B70474FF0000280
:1009000000B5134694469646203922BFA0E80C5005
:10091000A0E80C50B1F12001BFF4F7AF090728BFE0
:10092000A0E80C5048BF0CC05DF804EB890028BF5C
:1009300040F8042B08BF704748BF20F8022B11F085
:10094000804F18BF00F8012B704700004FF0013CAA
:1009500050F8042B51F8043B9A4221D1A2EB0C032E
:10096000934313EACC1317D150F8042B51F8043BEE
:100970009A4215D1A2EB0C03934313EACC130BD18B
:1009800050F8042B51F8043B9A4209D1A2EB0C0316
:10099000934313EACC13DBD04FF00000704700BF45
:1009A000D01A01BAB1FA81F101F0180122FA01F06E
:1009B000CB40C1F12001DBB2C0B2C01A2CFA01F366
:1009C000D11A914311EAC311E6D1704770477047BD
:1009D0007047704710B500F07DFC006810BD10B581
:1009E000044600F077FC046010BD2DE9F0470D4689
:1009F00099469246044600F124080168880604D509
:100A0000E06921F01001216000E00120A84201DD31
:100A1000471B00E00027A1697A1902EB0900081AB8
:100A2000A0612078C00602D42046FFF713FD0026FF
:100A300008E0D4E901211AF806009047206A401C1A
:100A4000761C20624E45F4DB2078C0060AD520468D
:100A5000FFF700FD06E0D4E9012130209047206A2D
:100A6000401C2062381EA7F10107F4DC07E0D4E93E
:100A7000012118F805009047206A401C2062281EBA
:100A8000A5F10105F3DC2046FFF7FAFC207800060B
:100A900002D50220BDE8F0870120FBE770472DE971
:100AA000FF4F0C461E464FF0FF378BB0D2E90001D6
:100AB000DDF860800A908A46C1F30A5505B93D46C3
:100AC000002108464FF00000BAF1000F00F440008A
:100AD00005DA00EB80004FF4400101EA50004FEAD4
:100AE0009059B9F1010F00DDB9460A9850EA4A0061
:100AF0000ED044F61050A5F2FF3545432F14B8F13F
:100B0000000F1ED07542291E1EDDC9F100021CE037
:100B1000B8F1010F4FF0000001D0302103E0F243A3
:100B200005E02154401CB042FBDB3046002200218E
:100B300021540B99C1F80880C1E900200FB0BDE82D
:100B4000F08FBD1B6D1CDEE74A4600DA694206A83D
:100B500000F04AFC06AB93E8070003AB83E807000C
:100B600050460A9900F0E4FC8DE80700A0F500501B
:100B70001F3800900398002D09DD42F21F014A46FC
:100B8000084403A90390684600F043FF08E0A0F57D
:100B900000504A461F3803A90390684600F04DFFF5
:100BA0008DE807000004000C03D04FF0FF3041082F
:100BB00000E01046B8F1000F03D000220092154665
:100BC0001EE0751E05D400F089FB303262556D1EA3
:100BD000F9D5B3460122084302D000227F1C04E06D
:100BE0002078302801D100227F1E002A099786D064
:100BF0001DE0112D07DA00F071FB303262556D1CDB
:100C000050EA0102F5D1084302D00098C8B10EE0C5
:100C10000021681E05E0235C625C63542254401E80
:100C2000491C8142F7DBAB46A81B401E09900020FF
:100C300004F80B000B98099AC0F80880C0E9002B53
:100C40007CE711264FF0000859E72DE9F04F884660
:100C50000446D21D22F0070191B0D1E90001CDE98F
:100C60000A0103F07AFB02460B98C00F01D02D2039
:100C700007E02068810701D52B2002E0202101EA4E
:100C8000C000032A099001D0072A05DB034641462C
:100C9000204600F069FB0BE12078800601D5E06971
:100CA00000E00620B8F1650F814606D0B8F1660F66
:100CB00018D0B8F1670F70D131E00020B9F1110FF1
:100CC000009001DB112301E009F101030AAA01A947
:100CD0000CA8FFF7E4FEDDE90C70002609F1010520
:100CE000834647E001204B4600904FF000470AAA98
:100CF00001A90CA8FFF7D3FEDDE90DB00C995D4604
:100D0000002610B909F101000D18B9EB050003D454
:100D1000C0F1FF3609F10105A5EB09002BE0B9F19F
:100D2000010F01DA4FF001090020B9F1110F009015
:100D3000484601DD112300E003460AAA01A90CA8D8
:100D4000FFF7ADFEDDE90C704D46002683462078A6
:100D500000070AD4AB4500DA5D4601A8012D04DD89
:100D6000411911F8011C302907D04F4502DA17F15B
:100D7000040F04DA012082460FE06D1EEEE7002F1B
:100D800002DCED1B3E4403E0781CA84200DD7D1C24
:100D9000B81B00F1010A4FF000472078000703D488
:100DA000AA4501DB4FF0FF3A0021B7F1004F0DF1EA
:100DB00043088DF8431024D002202B23002F01DAA2
:100DC0007F422D230A21021EA0F1010000DC5FB149
:100DD00097FBF1FC97FBF1F201FB1C7C17460CF131
:100DE000300C08F801CDEEE7A8F10100037021886E
:100DF000090501D5452100E06521A0F1010800F8B1
:100E0000011C09980FA9A1EB0807FF1D00B10120E3
:100E1000411901EBEA70A1693844081A401EA0612B
:100E20002078C00602D42046FFF714FB099828B1A9
:100E3000D4E901219047206A401C20622078C00636
:100E400022D52046FFF706FB1EE0002E04DBB3454B
:100E500002DD01A8805D00E03020D4E90121904747
:100E6000206A401C2062761CAAF101005FEA000A99
:100E70000AD100F02BFAC0680168405CD4E9012176
:100E80009047206A401C2062281EA5F10105DCDC89
:100E900007E0D4E9012118F8010B9047206A401CB3
:100EA0002062381EA7F10107F3DC2046FFF7E8FABD
:100EB000032011B043E600002DE9F04F04460D4633
:100EC000D21D22F0070089B0D0E900974846394684
:100ED00003F043FA0246F80F01D02D2307E0206803
:100EE000810701D52B2302E0202101EAC0038DF800
:100EF00020300BB1012000E00020032A824601D0FF
:100F0000072A04DB2946204600F02EFA3FE120782C
:100F1000800601D40D2500E0E569C7F30A560D2DC2
:100F200049DA00214FEA175B08464FF00000002F16
:100F300000F4400007DA00EB80004FF4400100EBC2
:100F4000D07001EA60008115012901DD4FF0FF3109
:100F500000224FEA850CBCF1180F06D31346ACF102
:100F600018004FF08052C24003E04FF4801323FA80
:100F70000CF30CF10C0CBCF1200F04D3ACF1200CE1
:100F800009FA0CF001E007FA0CF000294FF00048D4
:100F900001DD18B90FE00ED140450CD319EB020961
:100FA0005F4121B9404502D19F4329EA0209BBEBC9
:100FB000175F00D0761C2088000502D57B48784456
:100FC00002E07A487844193808AA302302F80A3037
:100FD000037C0AF10101002E0AF1020A53546A4609
:100FE00002DC4FF0300101E04FF031014FF0010819
:100FF0008DF8001002D0A6F2FF3603E059EA47014F
:1010000000D06B4E002D02DC2178090704D54FF08B
:1010100002082E218DF80110C44600210BE0C7F311
:1010200003433F01C35C491C6D1E02F808300529CB
:1010300008F1010801DA002DF1DC00210CE000EBE1
:101040001973491C1B786D1E082902F808304FEAF5
:10105000091908F1010801DA002DF0DC21688B067E
:1010600002D516E0A8F10108E04505DD02EB080312
:1010700013F8013C302BF5D0B8F1000F09DD02EB7D
:10108000080313F8013C2E2B03D1090701D4A8F162
:101090000108002D05DD3E2102F808106D1E08F143
:1010A0000108407C002E02F8080008F1010804DA6B
:1010B0002D20764202F8080002E02B2002F80800FA
:1010C0000A214FF47A70864208F101080BDB96FB87
:1010D000F0F3303302F8083096FBF0F308F1010822
:1010E00000FB136601E0642E0CDB642096FBF0F33A
:1010F000303302F8083096FBF0F308F1010800FBEA
:10110000136601E00A2E06DB96FBF1F0303002F8A0
:10111000080008F1010896FBF1F001FB1060303087
:1011200002F80800A16908F1010808EB050202EBCA
:101130000A00081AA0612078C00602D42046FFF7F2
:1011400089F9216A08AE01EB0A00206204E0D4E9C3
:10115000012116F8010B9047BAF1010AF7D2207865
:10116000C00602D52046FFF775F96E4609E016F86D
:10117000010B3E280FD0D4E901219047206A401C82
:101180002062B8F10108F2D22046FFF779F909B0E0
:101190000320BDE8F08F206A2844206203E0D4E9F0
:1011A0000121302090476D1EEBD3F8E779640000F1
:1011B00002FCFFFF01694A1C02610878704700B514
:1011C0008FB0CDE901310021059105497944CDE980
:1011D000031011466846FFF78FFA0FB000BD0000FC
:1011E000E5FFFFFF0A6802F8010B0A607047D1E9CA
:1011F00000239A4202D2531C0B601070704710B546
:10120000436913B1AFF3008001E0FFF75CF90120FF
:1012100010BD127800F124010A7000224A700122E8
:10122000EDE711684FF0FF32E9E70000074B70B5BA
:101230000D467B44FFF7C3FF0446284600F042F901
:1012400010B14FF0FF3070BD204670BD1B3B000059
:1012500010B5436913B1AFF3008001E0FFF798F9CF
:10126000012010BD128800F1240182840022C28472
:101270000122EDE711684FF0FF32E9E770B516463D
:101280000C46054600F01AF8036893F8010101289E
:1012900006D0FF2C0FD8185D68B101202C7070BDEE
:1012A000D3F807013246214603F2071303442846C8
:1012B000BDE8704018474FF0FF3070BD10B500F02A
:1012C00005F8001D10BD00BF05550000004870471F
:1012D000FC0F002000487047DC0F002030B5B0F153
:1012E0000A024FEA900E71F100034EEA817EB0EBE4
:1012F0000E0061EB91014FEA101E4EEA017E10EBE9
:101300000E0041EB11114FEA102E4EEA016E10EB68
:101310000E0041EB11214FEA104E4EEA014E10EB48
:101320000E0041EB1141401841F100014FEAD0009D
:1013300040EA41704FEAD10110EB80054FEA810489
:1013400044EA907444EB01046D1944EB0404521B0D
:10135000A3414FF0000348BF0A3200D530BD401C06
:1013600041F1000130BD00002DE9F0411F46044667
:1013700003260168072A01F4006004DB08B116A502
:1013800005E016A503E008B115A500E015A521F0BC
:1013900010002060A069C01EA0610FB1401EA061B6
:1013A0002046FFF757F84FB1D4E90121384690475E
:1013B000206A401C2062C01C206206E0206AFAE716
:1013C000D4E9012115F8010B9047761EF8D220468A
:1013D000FFF756F8BDE8F0814E414E006E616E0099
:1013E000494E4600696E66002DE9F0478146164673
:1013F0008AB0334878440DC88DE80D0030487844F1
:10140000801C03AC0DC884E80D0041F69B300844F5
:10141000372190FBF1F290FBF1F5A5F1800501FB7E
:1014200012041B3C02D56442012000E00020DFF8DA
:1014300090A080460027FA44AAF1BE0A0DE0E0071A
:1014400009D03246684607EB47010AEB810100F0FC
:10145000F4FA8DE8070064107F1C002CEFD1184FC0
:101460007F44AC3F18E0E80714D007EB04100DF1FF
:10147000180A90E80E008AE80E00C068F04201D118
:1014800098190890324606A903A800F0D6FA03ABD3
:1014900083E807006D10641C002DE4D132466946D4
:1014A000B8F1000F03A802D000F0B3FA01E000F099
:1014B000C4FAC9E90001C9F808200AB0BDE8F087FC
:1014C000DC600000007B00F080007047004870473F
:1014D000DC0F00207546FFF7F9FFAE4605006946B0
:1014E000534620F00700854618B020B5FEF702FFEE
:1014F000BDE820404FF000064FF000074FF0000815
:101500004FF0000B21F00701AC46ACE8C009ACE895
:10151000C009ACE8C009ACE8C0098D46704710B5F9
:101520000446AFF300802046BDE81040FEF7CEBE73
:101530005FEA400C08BF91F0000F4FEA8C234FEA9E
:10154000C12243EA51514FEA1C5018BF00F5F04048
:101550004FEA300018BF41F000415FEA6C5C00F0D8
:101560002980BCF1FF3F08BF40F080407047130C5A
:1015700006BF12044FF0100C4FF0000C130E04BF06
:1015800012020CF1080C130F04BF12010CF1040C31
:10159000930F04BF92000CF1020CD30F04BF520052
:1015A0000CF1010C11464FF00002A0F11F00A0EB5E
:1015B0000C00704711F0004F08BF704731F0004138
:1015C0003FF4D5AF0B0C06BF09044FF0100C4FF0E1
:1015D000000C0B0E04BF09020CF1080C0B0F04BF2A
:1015E00009010CF1040C8B0F04BF89000CF1020CF3
:1015F000CB0F04BF49000CF1010CCCF12003A0EB90
:101600000C0022FA03F302FA0CF241EA030100F1A2
:101610000100704720F07F4C80EA030023F07F47F1
:10162000ACEB070303F57C5300F0004003F1FF032C
:101630002DE980494FEA154B09B44FEA144325EAD6
:101640000B4E24EA03480FF2042606EB1327490841
:101650003E785FEA320203FB0667C7F5000707FB27
:1016600006F64FEA54374FEAD64606F1020607FB64
:10167000066CCCF1005C4FEA1C472CEA074C07FBD8
:1016800006F40CFB06F504EB15464FEA961634BF3C
:1016900000204FF000404FEAD13706FB07FC4FEA2D
:1016A0001C4C0CFB0BF7D21B03FB0CF761EB070187
:1016B0000CFB0EF7B0EB074072EB17420CFB08F780
:1016C00034BFA2EB0742B2EB074261EB17414FEA8E
:1016D0000C444FEA910706FB07FC4FEA1C4C0CFB3D
:1016E0000BF7B0EBC74072EB573203FB0CF734BF7C
:1016F000A2EBC742B2EBC74261EB57310CFB0EF7CE
:10170000B0EBC70072EB57720CFB08F734BFA2EBCB
:10171000C702B2EBC70261EB5771039F4FEA8161C9
:1017200041EA921104EBCC044FEAD1374FEA8262CE
:1017300006FB07FC42EA90124FEA80604FEA1C4C1D
:101740000CFB0BF7D21B03FB0CF761EB07010CFB47
:101750000EF7B0EB074072EB17420CFB08F734BFF3
:10176000A2EB0742B2EB074261EB17414FEA8C55FF
:101770004FEA910704EB9C2406FB07FC4FEA1C4C44
:101780000CFB0BF7B0EBC74072EB573203FB0CF7C7
:1017900034BFA2EBC742B2EBC74261EB57310CFB3F
:1017A0000EF7B0EBC70072EB57720CFB08F734BFB3
:1017B000A2EBC702B2EBC70261EB577115EB4C25E8
:1017C0004FEA816141EA92114FEA82624FEAD137D2
:1017D00042EA901206FB07FC44F100044FEA8060E5
:1017E0004FEA1C4C0CFB0BF7D21B03FB0CF761EB15
:1017F00007010CFB0EF7B0EB074072EB17420CFB36
:1018000008F734BFA2EB0742B2EB074261EB174186
:1018100015EB1C154FEA813141EA92414FEA8232C1
:1018200042EA90424FEA80304FEA0C7644F10004DD
:1018300048EA03434EEA0B484FF0000EB2EB080CA7
:1018400071EB030724BF624639464EEB0E0E4FF094
:10185000000B0018524149414BEB0B0BB2EB080C4B
:1018600071EB03077BF1000B24BF624639464EEB58
:101870000E0E4FF0000B0018524149414BEB0B0B81
:10188000B2EB080C71EB03077BF1000B24BF62463F
:1018900039464EEB0E0E51EA020718BF46F001061C
:1018A00016EB0E7655F1000254F1000103D5BDE8A8
:1018B0008901BDE80088BDE88901BDE80048B61986
:1018C000524141EB0101A3F10103704780807F7E0B
:1018D0007D7C7B7A797877767675747372717170A6
:1018E0006F6E6E6D6C6C6B6A6A6968686766666558
:1018F0006464636362616160605F5F5E5E5D5D5CE6
:101900005C5B5B5A5A595958585757565655555556
:101910005454535352525251515050504F4F4F4EB6
:101920004E4D4D4D4C4C4C4B4B4B4A4A4A49494904
:101930004848484747474746464645454544444446
:10194000444343434342424242414141002B26D457
:10195000770021D01CB54FEA370703B44FF01000D1
:101960004FF010014FF000000FBCBDE810400BF12C
:10197000010BBBF1010F08BF5FEA170722BF12F18D
:10198000010211F101014FF0004143F1000300F0A9
:10199000004043EA00007047F9D35708DAE746EA07
:1019A000064613F1400F4FEA16461FDD13F1200FD4
:1019B000DFBF16430A46002120335B42C8D0C3F183
:1019C000200746EA064602FA07F74FEA164646EAB5
:1019D0000706C3F1200722FA03F201FA07F721FAFA
:1019E00003F14FF0000342EA0702B1E746EA0206BC
:1019F00046EA06464FEA164646EA0106BCBF46EAF4
:101A00000646360C4FF000034FF000024FF0000185
:101A10009EE72DE9C048934630B491E8380007C8E6
:101A200031EA400C48BF34EA430C03D5FFF7F2FD1E
:101A3000FFF78CFFF0BCBDE800882DE9C048934655
:101A400030B491E8380007C810F0804F08BF13F099
:101A5000804F03D100F005F8FFF778FFF0BCBDE838
:101A6000008820F07F4780EA030023F07F4C07EBDB
:101A70000C03A3F57C5300F00040A3F1FE0392F0A9
:101A8000000F00F0B38095F0000F00F077802DE993
:101A900001494FEA11404FEA144621EA004800FB91
:101AA00006FC24EA064708FB06F607FB08F800FBDD
:101AB00007F718EB06484CEB164C4FEA124B18EBA5
:101AC00007484FEA15464CEB174022EA0B4E0BFB3A
:101AD00006FC25EA06470EFB06F607FB0EFE0BFB8F
:101AE00007F71EEB064E4CEB164C4FF000061EEBB4
:101AF000074E4CEB174B18EB0B0840F1000018EBAE
:101B00000E0B58EB000840F100008F1A4FF0000157
:101B10003CBFC943661B14BFB5EB040C00213CBF9E
:101B2000C943F61B4FEA17444EEA8E0E27EA0445D6
:101B30004FEA1C4704FB07622CEA074C05FB07F73A
:101B40000CFB05F604FB0CFC16EB074642EB1742B8
:101B500016EB0C4642EB1C421BEB060658EB02024E
:101B6000414146EA9E0601D5BDE80189B6195241B8
:101B700041EB0101A3F10103BDE801894FEA1445DE
:101B80004FEA114724EA054621EA074C05FB07F412
:101B900006FB07F70CFB06F105FB0CFC11EB0741FC
:101BA00044EB17444FEA124711EB0C4144EB1C4441
:101BB00022EA074C05FB07F206FB07F70CFB06F6CB
:101BC00005FB0CFC16EB074642EB174216EB0C46E6
:101BD00042EB1C456A1854F1000148BF7047B61922
:101BE000524141EB0101A3F10103704795F0000F51
:101BF00037D04FEA11424FEA144721EA024624EA5D
:101C0000074C02FB07F106FB07F70CFB06F402FB8F
:101C10000CFC14EB074441EB17414FEA154714EB5A
:101C20000C4441EB1C4125EA074C02FB07F506FB7F
:101C300007F70CFB06F602FB0CFC16EB074645EB20
:101C4000174516EB0C4645EB1C42121951F10001E9
:101C500048BF7047B619524141EB0101A3F101039E
:101C600070474FEA14454FEA114724EA054621EA36
:101C7000074C05FB07F106FB07F70CFB06F24FF0DC
:101C8000000605FB0CFC12EB074241EB174112EB7F
:101C90000C4251EB1C4148BF7047921841EB0101C7
:101CA000A3F10103704710B50146806B026C12F07E
:101CB000500F05D0026CD20626D500F02AFA10BDCE
:101CC000016C41F40071016401688A6812F0405FA0
:101CD00017D1027EAAB9CA6A12F4700F02D08A68BC
:101CE00052050ED44A6822F020024A60016C21F4A9
:101CF00080710164016CC90403D4016C41F00101DD
:101D0000016400F0EBF910BD806BC26CBDE81040BF
:101D10000846104710B5806B40210164416C41F0CA
:101D20000401416400F0F5F910BD10B5806B00F0BE
:101D3000EFF910BD464910B54A6822F440324A60B6
:101D40004A6843681A434A6001684A6822F480720C
:101D50004A6001684A68036942EA03224A600168EE
:101D60004A6822F040724A6001684A6883681A43F0
:101D70004A6001688A6822F400628A6001688A68A1
:101D8000C3681A438A60816A6FF07062D142016849
:101D90008A6822F070628A6001688A680CD0836A5F
:101DA0001A438A6001688A6822F040528A6001689A
:101DB0008A68C36A1A4301E022F040528A600168CF
:101DC0008A6822F002028A6001688A68037E42EA19
:101DD00043028A6090F82010002901684A680FD0F9
:101DE00042F400624A6001684A6822F460424A6034
:101DF00001684A68174C436A04EB43331A4301E015
:101E000022F400624A600168CA6A22F47002CA625F
:101E10000168CA6A838B104C04EB03531A43CA62ED
:101E200001688A6822F400728A6001688A6890F802
:101E3000303042EA43228A6001688A6822F4806274
:101E40008A6001688A68406942EA8020886010BD23
:101E50000023014000E0FFFF0000F0FFFEE700006C
:101E600010B5A82002F042FF03F040F84FF4E13033
:101E700003F02AFC542004F007F8002142F20F700E
:101E800002F076FE01219FED040A084602F064FE8E
:101E9000BDE8104002F072BD00000000FFF7E0FF57
:101EA00004A0FEF7B1FA07A10AA0FEF7ADFA03F00D
:101EB0005BFAFEE70D0AC6F4B6AFB3C9B9A6210DA9
:101EC0000A000000D5FDB5E32D463430372DB5E7C7
:101ED000BBFA000025730D0A00000000014800F065
:101EE00081BA0000180E002001681823CAB2103A07
:101EF000B2FBF3F2054B6FF30901032A9B5CC36548
:101F000000D9091D81650846704700005A73000812
:101F100010B5014600208B698A6A4FF0C07453B136
:101F2000B3F5005F15D072B1012A0CD0022A0AD095
:101F3000032A09D104E01AB1012A06D0022A03D1EA
:101F4000C96AC90100D5012010BDC96AA142FAD0F1
:101F500010BD002AF7D0012AF2D0022AF3D0032ABA
:101F6000F3D010BD30B50468256825F480252560C0
:101F7000046863608368402B036803D0996000683D
:101F8000C26030BD9A600068C16030BD704700001B
:101F900078B50024009490F83C20012A19D0012241
:101FA00080F83C200A6807230568092A13D9EE68DF
:101FB0000A3A02EB420293409E43EE600B788A6835
:101FC0000A3B03EB43039A400368DD682A43DA6067
:101FD00010E0022078BD2E6902EB420293409E433E
:101FE0002E610B788A6803EB43039A4003681D69EE
:101FF0002A431A614A681F23072A13D205686E6BA9
:10200000521E02EB820293409E436E630B790A8854
:102010005B1E92B203EB83039A4003685D6B2A4315
:102020005A6327E005680D2A12D22E6BD21F02EBED
:10203000820293409E432E630B790A88DB1F92B283
:1020400003EB83039A4003681D6B2A431A6311E074
:10205000EE6A0D3A02EB820293409E43EE620B79E8
:102060000A880D3B92B203EB83039A400368DD6A52
:102070002A43DA62164B0568144A9D4206D10D6860
:10208000122D03D1556845F48005556005689D42C1
:1020900018D10B68102B01D0112B13D1536843F4C6
:1020A00000035360096810290CD10A490A4A0968DB
:1020B000B1FBF2F101EB8101490000E0491E009102
:1020C0000029FBD180F83C40002078BD002301406E
:1020D000002001400C00002040420F0010B50068B5
:1020E000084988420DD1084800F0EAF80648A830AF
:1020F00002F0A2FDBDE81040FA220449024800F0B7
:1021000035B810BD00200140D00D0020DC0B0020B0
:102110007047704770B504004FF0000503D0206C85
:10212000002610B107E0012070BD204600F01CF829
:10213000666484F83C60206CC00610D4206C20F4E7
:10214000885040F0020020642046FFF7F3FD6664EB
:10215000206C20F0020040F00100206400E0012526
:1021600084F83C60284670BD70470000F8B504460E
:1021700000200E46009094F83C10012907D0012160
:1021800084F83C1021688B68DB0702D011E0022044
:10219000F8BD8B6843F001038B604049404B0968F0
:1021A000B1FBF3F101EB410100E0491E0091002970
:1021B000FBD121688B68DB0503D58B6823F4807322
:1021C0008B6021688B68DB075DD0236C40F2016572
:1021D000AB4343F4807323644968490505D5216CFA
:1021E00021F4005141F480512164216CC90404D5CB
:1021F000616C21F00601616400E0606484F83C00D9
:10220000A16B2948274DC863A16B28480864A16BBE
:102210002748C86421686FF0220008602068416880
:1022200041F0806141602068816841F48071816083
:102230002168134632464C31A06B00F00DFA6868F5
:102240001C49C006206806D0884224D1816811F05C
:10225000405F13D01FE08842F8D0174A904203D164
:10226000D1F80423D206F1D0144A904213D1D1F808
:10227000041301F01F011029E8D30CE0816841F03C
:102280008041816007E0206C40F010002064606CA9
:1022900040F0010060640020F8BD00000C00002048
:1022A00040420F0000230140A71C00082B1D00081E
:1022B000151D0008002001400021014000220140BE
:1022C00010B50446002094F83C1001290CD00121DF
:1022D00084F83C1021688A6822F001028A60216833
:1022E0008A68D20702D01DE0022010BD8A6822F45D
:1022F00080728A60A16B91F83520022A07D10846C6
:1023000000F014F818B1216C41F0400121642168FB
:102310004A6822F080624A60216C21F4885141F0C1
:1023200001012164002184F83C1010BD2DE9F04129
:102330000446876D00F0D2FA064694F83500002571
:10234000022806D08020606584F834500120BDE862
:10235000F0812068016821F0160101602068416960
:1023600021F080014161206C08B9A06C20B1206887
:10237000016821F0080101602068016821F0010175
:1023800001600CE000F0AAFA801B052807D9202084
:102390006065032084F8350084F83450D7E720685E
:1023A0000068C007EED194F85C103F208840B86008
:1023B000012084F8350084F834500020C7E790F8F5
:1023C0003510022903D08021416501207047052185
:1023D00080F835100068016821F0010101600020DB
:1023E000704700002DE9F84304464FF00009CDF88E
:1023F000009063484FF41651A56D0068B0FBF1F7EB
:102400002E6894F85C10082000FA01F131420FD0D8
:1024100021680A6852070BD50A6822F004020A6094
:1024200094F85C108840A860606D40F00100606521
:1024300094F85C104FF0010808FA01F0304208D01F
:1024400021684969090604D5A860606D40F0020062
:10245000606594F85C1004208840304208D0216800
:102460000968890704D5A860606D40F004006065C4
:1024700094F85C1010208840304218D02168096818
:10248000090714D5A86020680168490304D50068CD
:10249000000308D5A16C07E00168C90503D40168F1
:1024A00021F008010160216C09B12046884794F8A9
:1024B0005C1020208840304231D021680968C9066C
:1024C0002DD5A86094F8350005282068016806D04D
:1024D000490347D5006800031DD4616C1CE021F05E
:1024E000160101602068416921F080014161206C82
:1024F00008B9A06C20B12068016821F008010160D2
:1025000094F85C103F208840A86084F8358084F8F7
:102510003490216D1FE0E16B09B120468847606D62
:1025200000282BD0606DC00714D0052084F835003A
:102530002068016821F0010101600098401C0090B2
:10254000B84203D820680068C007F6D184F8358007
:1025500084F83490E16C002910D001B02046BDE829
:10256000F04308470168C905D5D4016821F010017E
:10257000016084F8358084F83490CCE7BDE8F883B6
:102580000C0000202DE9F041044600F0A7F90646B2
:102590005CB1022084F83500002584F834502068AE
:1025A000016821F0010101600DE00120BDE8F0812A
:1025B00000F094F9801B052805D9202060650320D0
:1025C00084F83500F2E720680068C007F0D122687F
:1025D000116820480140D4E901031843D4E90336C7
:1025E0003343184363691843A3691843E3691843E5
:1025F000236A18430843616A042903D1D4E90B1301
:1026000019430843106020684069666A20F007019A
:1026100030460E43012704280CD1A06A0643E06A25
:1026200040B12046FFF774FC20B14020606584F87B
:102630003570BAE7206846612046FFF755FC94F8EC
:102640005C203F2191408160656584F835700020F1
:10265000ACE700003F8010F02DE9F0410446866DA4
:1026600090F83400002501280DD0012084F83400B2
:1026700094F835700020012F07D084F8340002252B
:102680002846BDE8F0810220FBE7022784F8357078
:1026900060652046FFF766FC94F85C103F20884098
:1026A000B0602068016841F016010160206C20B123
:1026B0002068016841F0080101602068016841F06C
:1026C00001010160DCE700002DE9F84FDFF8BCA153
:1026D0000022012503264FF00F090AF1040BAAF18D
:1026E000040E00BF0B6805FA02F42340A34270D128
:1026F0000F7907F00307012F01D0022F16D1876849
:102700004FEA420806FA08FC27EA0C07D1F80CC089
:102710000CFA08FC4CEA070CC0F808C04768A7434D
:102720000C79C4F3001494403C4344600C79E443B6
:10273000A4070AD0C4684FEA420C06FA0CF7BC435F
:102740008F6807FA0CF72743C7600C7904F003047D
:10275000022C12D1D40800EB840CDCF8204057077F
:10276000FF0E09FA07F824EA0804D1F8108008FAE5
:1027700007F848EA0408CCF8208004684FEA420CC5
:1027800006FA0CF7BC430F7907F0030707FA0CF7BA
:10279000274307604C6814F4403F70D03C4C2768D6
:1027A00047F480472760246822F0030704F480443C
:1027B0000094384C07EB040CDCF8084897074FEA04
:1027C000177809FA08F7BC43334FB84202D1002703
:1027D00024E054E0314FB84201D101271EE0304FD0
:1027E000B84201D1022719E02E4FB84201D1032788
:1027F00014E02D4FB84201D104270FE02B4FB8420F
:1028000001D105270AE02A4FB84201D1062705E089
:10281000284FB84201D1072700E0082707FA08F738
:102820002743CCF80878DAF800405746D1F804C0BE
:102830009C435FEACC2C00D51C433C60DBF8004095
:102840005F46D1F804C09C435FEA8C2C00D51C4342
:102850003C60DEF800407746D1F804C09C435FEA54
:102860008C3C00D51C433C60084F083F3C68D1F8C5
:1028700004C09C435FEACC3C00D51C433C60521C26
:10288000102AFFF42FAFBDE8F88F0000083C01408C
:102890004438024000300140000002400004024081
:1028A00000080240000C02400010024000140240E8
:1028B00000180240001C02400069084000D00120BE
:1028C0007047426921EA02030A4043EA02418161FA
:1028D00070470AB1816170470904FBE701488068CD
:1028E000704700000000002002488168027811440F
:1028F00081607047000000200B4810B5016841F46A
:1029000000710160016841F480610160016841F477
:1029100080710160032000F057F8032000F006F8F2
:1029200000F024F8002010BD003C024070B50D4DB1
:1029300004464FF47A712878B1FBF0F00A4909682F
:10294000B1FBF0F000F010FB48B9102C07D20022C8
:102950002146501E00F018F800206C6070BD012068
:1029600070BD0000000000200C000020704700280F
:1029700009DB00F01F02012191404009800000F1B5
:10298000E020C0F800117047F0B40E4B1B680C46F5
:10299000C3F30223C3F10705042D00D90425191D33
:1029A000072901D2002300E0DB1E012606FA05F10B
:1029B000491E214099409E40761E16403143F0BC8E
:1029C00001F0E3BC0CED00E0064900F007020868E6
:1029D0004FF6FF03184040EA0220034A1043086004
:1029E000704700000CED00E00000FA05BFF34F8FC8
:1029F00005480168054A01F4E06111430160BFF335
:102A00004F8F00BFFDE700000CED00E00400FA0569
:102A10002DE9F0470E46050065D0DFF81481D8F89F
:102A20000000F7B200F00700B04207D288F800704B
:102A3000D8F8000000F00700B04254D128683D4C9F
:102A4000810712D5400703D5206840F4E05020608C
:102A50002878000703D5206840F460402060206893
:102A6000A96820F0F000084320602878C0072DD026
:102A7000304968680839012812D0022813D0032889
:102A800011D00968890700292DDA216821F0030196
:102A900001432160FFF722FF814641F2883A0EE0B0
:102AA00009688903EFE709688901ECE7FFF716FF7A
:102AB000A0EB0901514502D90320BDE8F087206849
:102AC000696800F00C00B0EB810FEFD1D8F800106E
:102AD000404601F00701B14207D90770006800F0D5
:102AE0000700B04201D00120E7E72878400705D56C
:102AF0002068E96820F4E050084320602878000747
:102B000006D52068296920F4604040EAC1002060B1
:102B100000F038F82168084AC1F30311515CC8403D
:102B20000649086006480068FFF700FF0020C4E778
:102B3000003C024008380240627300080C0000208C
:102B4000040000200448054900680968044AC1F3EC
:102B50008221515CC84070470C00002008380240B8
:102B6000727300080448054900680968044AC1F303
:102B70004231515CC84070470C00002008380240C8
:102B800072730008154810B5006810F00C02144864
:102B900013D04110042A0FD0082A0ED10F4C241F45
:102BA0002268236802F03F025B0207D52068C0F369
:102BB0008810A0FB010106E0084610BD2168C1F3A2
:102BC0008811A1FB00010023FDF7A7FB2168C1F3D9
:102BD0000141491C4900B0FBF1F010BD083802402A
:102BE0000024F4002DE9F84F04006ED02078DFF8BF
:102BF0004C93C007A9F104054AD009F1040001680B
:102C0000C1F38101012908D00068C0F381000228C6
:102C10000AD1D9F80000400206D52868800337D5CC
:102C200060680028E1D033E06068B0F5803F10D0E4
:102C3000B0F5A02F286810D020F4803028602868D4
:102C400020F4802028606068A8B1FFF747FE0646A0
:102C50000DE0286840F48030F4E740F480202860DC
:102C6000F7E700BFFFF73AFE801B642873D8286897
:102C70008003F7D50CE0FFF731FE064605E000BF04
:102C8000FFF72CFE801B6428F0D828688003F7D457
:102C90002078DFF8AC8280074FF0000A3ED5A748C5
:102CA000001D016811F00C0F08D00068C0F381000E
:102CB00002280BD1D9F80000400207D42868800709
:102CC00016D5E068012800D112E033E1E068B8B120
:102CD0000120C8F80000FFF701FE064605E000BF2E
:102CE000FFF7FCFD801B0228C0D828688007F7D5B5
:102CF0002868216920F0F80040EAC10028600DE052
:102D0000C8F800A0FFF7EAFD064604E0FFF7E6FD7D
:102D1000801B02281FD828688007F7D42078000776
:102D200022D5864F87486169703771B101210160F2
:102D3000FFF7D4FD064604E0FFF7D0FD801B022814
:102D400009D838688007F7D50EE0C0F800A0FFF773
:102D5000C5FD064605E082E0FFF7C0FD801B0228A6
:102D60007DD838688007F7D42078400768D5DFF829
:102D7000CCB100270BF13C0BDBF80000C0000BD4FA
:102D8000DBF8001041F08051CBF80010DBF80000B8
:102D9000012700F0805000906B4E3068C00510D4C1
:102DA000306840F480703060FFF798FD009005E0D7
:102DB000FFF794FD0099401A022850D83068C005EA
:102DC000F6D55E4EA0686C3601280FD00528306815
:102DD00010D020F001003060306820F00400306036
:102DE000A068B8B1FFF77AFD00900FE0306840F0BE
:102DF0000100F4E740F004003060F7E7FFF76EFDF4
:102E00000099411A41F28830814266D830688007C3
:102E1000F4D50EE0FFF762FD009007E0FFF75EFDDE
:102E20000099411A41F28830814256D830688007B3
:102E3000F4D42FB1DBF8001021F08051CBF8001052
:102E4000A069C8B33D49091D0968C1F38101022980
:102E50004AD00228504607D0C8F8600000E03CE0A5
:102E6000FFF73CFD04463BE04746C8F86000FFF72B
:102E700035FD064605E000BFFFF730FD801B022848
:102E80002BD828688001F7D4D4E907010843A16A48
:102E90002E4A490802EB0141626A41EA8211084365
:102EA00094F82C1040EA0161C9F80010012038663E
:102EB000FFF714FD044606E03EE000BFFFF70EFDFD
:102EC000001B022809D828688001F7D534E000BF2C
:102ED000FFF704FD001B022802D90320BDE8F88F8C
:102EE00028688001F4D427E00128F7D0D9F8000041
:102EF000E26900F4800191421CD1226A00F03F0196
:102F0000914217D147F6C071626A0140B1EB821F4E
:102F100010D1A26A4FF0FF3300F4403103EB5202AC
:102F2000B1EB024F06D194F82C1000F07060B0EBBA
:102F3000016F01D00120D1E70020CFE70438024023
:102F400000004742800E4742007000400000FFFF33
:102F50004FF0E0210428086903D020F00400086144
:102F6000704740F00400FAE710B5401EB0F1807FD2
:102F700001D3012010BD4FF0E02460610F216017E4
:102F800001F003FA0020A06107202061002010BD9D
:102F90007047704710B5040003D094F83D0010B19D
:102FA00007E0012010BD002084F83C00204600F01E
:102FB0001FF8022084F83D00211D206800F01EFF4C
:102FC000012084F8460084F83E0084F83F0084F82D
:102FD000400084F8410084F8420084F8430084F8FB
:102FE000440084F8450084F83D00002010BD000036
:102FF00008B500680B49884212D10B48016841F0BE
:10300000100101600068032200F01000009001210F
:103010003620FFF7B9FCBDE808403620FFF7A7BC13
:1030200008BD0000001000404038024090F83D10FC
:10303000012901D001207047022180F83D1001686C
:10304000CA6842F00102CA6000681149884214D07F
:10305000B0F1804F11D00F4988420ED00E498842FE
:103060000BD00E49884208D00D49884205D00D4941
:10307000884202D00C49884204D1816801F00701DE
:10308000062903D0016841F001010160002070476A
:10309000000001400004004000080040000C004017
:1030A00000040140004001400018004070472DE935
:1030B000F04104460068C66805694FF00007A9079B
:1030C00013D5B10711D5F91E0161012020772068C1
:1030D00080698007204602D0FFF7E8FF04E000F097
:1030E0007EF8204600F08EF92777680716D570071E
:1030F00014D521686FF00400086102202077206851
:10310000806910F4407F204602D0FFF7CFFF04E033
:1031100000F065F8204600F075F92777280715D5E7
:10312000300713D521686FF008000861042020776C
:103130002068C0698007204602D0FFF7B7FF04E08F
:1031400000F04DF8204600F05DF92777E80616D527
:10315000F00614D521686FF0100008610820207770
:103160002068C06910F4407F204602D0FFF79EFF20
:1031700004E000F034F8204600F044F92777E8072F
:1031800008D0F00706D021686FF0010008612046E2
:1031900000F0DCF9280608D5300606D521686FF066
:1031A000800008612046FFF7F3FE680608D5700628
:1031B00006D521686FF040000861204600F010FB42
:1031C000A8060AD5B00608D521686FF0200008616E
:1031D0002046BDE8F041FFF7DCBEBDE8F081704756
:1031E00070B5044690F83C0000260D4601280FD02B
:1031F000012084F83C006AB1042A1DD0082A2FD08F
:103200000C2A3FD00126002084F83C00304670BDD7
:10321000022070BD206800F06BFE2068816941F0DB
:10322000080181612068816921F0040181612068C1
:1032300081692A69114311E0206800F089FE206845
:10324000816941F4006181612068816921F48061B4
:103250008161206881692A6941EA02218161D2E79E
:10326000206800F0ABFE2068C16941F00801C1612F
:103270002068C16921F00401C1612068C1692A691F
:10328000114311E0206800F0CDFE2068C16941F4CF
:103290000061C1612068C16921F48061C161206859
:1032A000C1692A6941EA0221C161ACE710B5040095
:1032B00003D094F83D0010B107E0012010BD0020BC
:1032C00084F83C00204600F01FF8022084F83D00FE
:1032D000211D206800F092FD012084F8460084F84A
:1032E0003E0084F83F0084F8400084F8410084F8F0
:1032F000420084F8430084F8440084F8450084F8D0
:103300003D00002010BD000070B50068394986B04E
:1033100088426CD138480024016841F00101016005
:10332000006800F00100059033481438016841F04E
:1033300001010160016801F001010591016841F09E
:1033400001010160016801F001010591016841F08E
:1033500001010160016801F001010591016841F07E
:1033600002010160016801F002010591016841F06C
:1033700002010160016801F002010591016841F05C
:103380000201016000681D4E00F0020005904FF43C
:10339000005000900320CDE90240012569460195C7
:1033A0003046FFF791F9A803009069463046FFF7D1
:1033B0008BF9E803009069463046FFF785F928024B
:1033C00000900220CDE90104CDE903050C4C6946CB
:1033D0002046FFF779F96015009069462046FFF70F
:1033E00073F92015009069462046FFF76DF906B085
:1033F00070BD00000000014044380240000402405B
:10340000000002407047000010B50446022249B196
:1034100004290ED0082913D094F84100012816D0B1
:10342000012010BD94F83E000128F9D184F83E2017
:103430000FE094F83F000128F2D184F83F2008E023
:1034400094F840000128EBD184F8402001E084F892
:1034500041200122206800F03DFD16492068164AEF
:10346000884201D0904203D1436C43F4004343644B
:103470002068884213D0B0F1804F10D00F498842A5
:103480000DD00F4988420AD00E49884207D0904299
:1034900005D00D49884202D00C49884204D1816888
:1034A00001F00701062903D0016841F00101016024
:1034B000002010BD00000140000401400004004055
:1034C00000080040000C004000400140001800408F
:1034D00030B504460D460068002200F0FBFC194B95
:1034E00041F2111120688A10984202D0164B98427E
:1034F00009D1036A0B4206D1036A134203D1436C1C
:1035000023F4004343642068036A0B4206D1016A36
:10351000114203D1016821F00101016001203DB198
:10352000042D08D0082D09D084F84100002030BDBA
:1035300084F83E00FAE784F83F00F7E784F840009B
:10354000F4E7000000000140000401402DE9F041D3
:103550009549964E964C00272DED028B84B000685D
:10356000944DDFF8548288426FD1207801286DD1C4
:10357000606A401C6062A07902284FF0010011D0FF
:1035800001F08AFCC0F10700A070A07806280CD8D2
:10359000A07850B1A078894901EB800050F8040C64
:1035A000804705E001F078FCEEE702F057F827705D
:1035B000E07802F0A5F82071207920BBA17980483D
:1035C0000229616AB0FBF1F000D0404200B203F082
:1035D000C8FB9FED7C1B53EC112B03F015FC41EC59
:1035E000180BE06803F0BDFB9FED781B53EC112B2B
:1035F00003F00AFC53EC182B03F03CF903F082FBB8
:10360000E060276267622079012801D12762676242
:103610002079022809D1206A401C2062206A43F6E2
:103620009821884201D92762E7606079A1788842B1
:1036300013D067615E4801F02DFB012802D00228FB
:1036400005D007E0A068401E03E061E056E0A068F6
:10365000401CA060A078607105E02078012802D1AC
:103660006069401C6061534F00205A4B0837B91DF8
:103670004FEA080C06EB4002928823F8102033F83A
:10368000102000EB001808EB48080CEB4808B8F8CD
:103690006480A2EB080212B227F81020002A01DB96
:1036A00021F81020401CC0B20328E3D3A0789FED7E
:1036B0004A0A052813D0A078012813D0A07803283F
:1036C00021D0A07802280AD0A07806280AD0A078B5
:1036D000042813D1B1F90400B1F9021005E0B1F9E1
:1036E0000000F9E7B1F900000FE0084400EE900A8D
:1036F000F8EEE00A20EE800A85ED010A04B0BDEC88
:10370000028BBDE8F081B1F90200B1F90410ECE7D9
:1037100032498842F2D16878401C687020780028CD
:10372000ECD10097019702972878B288414628F893
:10373000102008EB4002F388A2F86630401C338961
:10374000C0B2A2F8CC302870322800D32F700020ED
:10375000009A31F810301A44009201EB4002019BAC
:10376000B2F86640401C23440193B2F8CC20029B7F
:10377000C0B21A4402923228EAD300206B463224A7
:1037800053F8202000EB0015B2FBF4F243F82020A0
:1037900005EB450501EB4505401CC0B2A5F86420CA
:1037A0000328EDD3AAE7000000000140780E0020B6
:1037B0002800002070000020A00A002058000020EF
:1037C000B01E040088F4DBD78173CE3FDE02098A85
:1037D0001F63E83FD20B0020FFD7D6400010004007
:1037E00070477047704710F8411F40780843704792
:1037F000F8B5016804460868CA684B6910F00F0FF5
:103800004FF000055AD003F0010602F490773743D9
:1038100065D0C10705D0D10503D5616C41F0010128
:103820006164410705D5D90703D0616C41F00201FD
:103830006164810705D5D90703D0616C41F00401AB
:103840006164010707D502F02001314303D0616CA8
:1038500041F008016164616C00293BD0800604D509
:10386000900602D5204600F05EFC20684069616C3D
:10387000C0F3801001F00801014320462BD000F076
:103880002BFC20684069400621D52068143050E8A0
:10389000001F21F0400140E80012002AF5D1E06B42
:1038A000A8B16E490165E06BFEF789FD002811D0D3
:1038B000E06B016D01B0BDE8F040084783060ED50E
:1038C00093060CD52046BDE8F84000F02CBC2046FD
:1038D000FFF788FFF8BDFFF785FF6564F8BD266B2D
:1038E0002023012E7DD1C6067BD5D60679D5086862
:1038F0004868009048694FF00206400641D5E16BE8
:10390000086840680004000CE8D0A28D8242E5D926
:10391000E085C869B0F5807F2DD020680C3050E874
:10392000001F21F4807140E80012002AF5D12168BF
:10393000143151E8000F20F0010041E80002002A94
:10394000F5D12068143050E8001F21F0400140E814
:103950000012002AF5D184F84230256320680C302B
:1039600050E8001F21F0100140E80012002AF5D1B4
:10397000E06BFEF7DBFC6663A08DE18D401A81B23F
:103980002AE0A08DE18D401A81B2E08D0028A5D0FB
:103990000029A3D022680C3252E8000F20F4907066
:1039A00042E80007002FF5D12068143050E8002FBE
:1039B00022F0010240E80027002FF5D184F84230C0
:1039C000256320680C3050E8002F22F0100240E8F8
:1039D0000023002BF5D166632046FFF702FFF8BDF8
:1039E000FFE705062BD5150629D594F841002128B7
:1039F000F5D1A068B0F5805F01D12069B0B1206A2F
:103A0000411C2162216800784860E08C401E00045F
:103A1000000CE084E3D12068C16821F08001C1601E
:103A20002068C16841F04001C160D8E7206A008881
:103A3000C0F308004860206A801C2062E5E7400669
:103A4000CDD55006CBD5CA68204622F04002CA60C8
:103A500084F8413000F0AAF8C1E70000C94000082E
:103A600070B5040004D094F84100002510B106E0C0
:103A7000012070BD84F84050204600F023F8242037
:103A800084F841002068C16821F40051C1602046DB
:103A900000F0AAFB2068016921F4904101612068CF
:103AA000416921F02A0141612068C16841F4005157
:103AB000C1606564202084F8410084F84200656399
:103AC000002070BD30B51A4887B0016841F0100180
:103AD0000160006800F01000059015481438016876
:103AE00041F0020101600068072400F00200059027
:103AF0004020009002200190012002900320CDE997
:103B000003040C4D69462846FEF7DEFD8020009038
:103B1000694604942846FEF7D7FD2520FEF727FFC7
:103B2000032211462520FEF72FFF07B030BD00000D
:103B3000443802400004024090F84230202B01D06B
:103B40000220704721B11AB10023036300F0D2BBF9
:103B50000120704730B50068114988420CD11148E6
:103B600041880A0408D402464C0412784FF000033E
:103B700006D50A2A01D0438030BD41F400410DE052
:103B80000D2A09D0C1F30D04074D491C89B22A55ED
:103B90004180C729EFD830BD41F48041418030BD1C
:103BA0000010014088000020840E002070470000B3
:103BB00000B5ADF2844D0AA0FCF726FC11A0FCF77D
:103BC00023FC40F2844213496846FCF765FE6946CF
:103BD00011A0FCF719FCFEF709FF0DF2844D00BDA2
:103BE0000D0A486172644661756C745F48616E6469
:103BF0006C65723A20D3B2BCFEB4EDCEF3C0B12EE8
:103C00000D0A0000B3A2CAD4D6D8C6F42E2E2E0DAB
:103C10000A000000EC740008257300000188406869
:103C2000FEF74FBEF0B587B014216846FCF766FE7C
:103C30002E480025016841F020010160016801F073
:103C400020010591016841F080010160016801F0E7
:103C500080010591016841F001010160016801F0F6
:103C600001010591016841F002010160016801F064
:103C700002010591016841F004010160016801F051
:103C800004010591016841F0100101600068184EBF
:103C900000F010004FF48064059000222146304669
:103CA000FEF717FE134F012203213846FEF711FEDF
:103CB00000940124CDE90145694630460395FEF79D
:103CC00003FD4FF4E050CDE90005694602940A482F
:103CD000FEF7FAFC0320CDE900040220CDE9024002
:103CE00069463846FEF7F0FC07B0F0BD30380240B8
:103CF0000014024000100240001C0240FEE7FEE7F4
:103D000070477047FEF7F0BD30B593B0302168467C
:103D1000FCF7F4FD14210CA8FCF7F0FD1E4800256B
:103D2000016841F080510160006800F080501190FE
:103D30001A48016841F4804101600068022400F4DF
:103D40008040119001200090000401908001CDE995
:103D50000640082008904FF4A870CDE90904072018
:103D60000B906846FEF73EFF08B172B6FEE70CA95D
:103D70000F2081E831004FF4A0500F904FF4805095
:103D8000109005210CA8FEF743FE002801D072B662
:103D9000FEE713B030BD0000403802400070004024
:103DA0000248016841F470010160704788ED00E04D
:103DB0000148FFF77CB90000F409002010B50A4C57
:103DC0002068C068C043C00709D10848006980471F
:103DD00021680020486221686420C862E060216890
:103DE0006FF00100086110BD940F00200001002059
:103DF0000148FFF75CB90000580A0020F0B50268DE
:103E0000294C2A4D2A4E2B4F2B4B4FF0804CA04271
:103E100009D0604507D0A84205D0B04203D0B842CF
:103E200001D0984204D122F0700E4A6842EA0E0294
:103E3000A0421BD0604519D0A84217D0B04215D07F
:103E4000B84213D0984211D01C4DA8420ED01C4D40
:103E5000A8420BD01B4DA84208D01B4DA84205D04C
:103E60001A4DA84202D01A4DA84203D122F440753F
:103E7000CA682A434D6922F080022A4302608A6898
:103E8000C2620A688262A04201D0984201D10969E7
:103E90000163012141610169C90703D0016921F072
:103EA00001010161F0BD000000000140000400407C
:103EB00000080040000C00400004014000400140A8
:103EC000004401400048014000180040001C004030
:103ED0000020004010B501F01F030121046A994041
:103EE0008C430462016A9A401143016210BD0000D4
:103EF000F0B5036A026A22F0010202624268846934
:103F0000124E24F073050C682C4323F002058B68D5
:103F10002B430D4DA84201D0B04205D123F0080734
:103F2000CB683B4323F00403A84201D0B04205D143
:103F30004D6922F4407215438A692A4342608461C4
:103F4000496841630362F0BD000001400004014084
:103F5000F0B5026A036A23F01003036243688469C0
:103F60000D6824F4E64444EA05248D6822F020021A
:103F700042EA05120F4D104EA84201D0B04206D1C0
:103F8000CF6822F0800242EA071222F04002A842E3
:103F900001D0B04207D14D6923F4406343EA850361
:103FA0008D6943EA850343608461496881630262E5
:103FB000F0BD00000000014000040140F0B5026ABD
:103FC000036A23F4807303624368C46922F40072B5
:103FD00024F073050C68124E2C438D6842EA0522CA
:103FE0000E4DA84201D0B04206D1CF6822F4006243
:103FF00042EA072222F48062A84201D0B04207D1EF
:104000004D6923F4405343EA05138D6943EA0513D0
:104010004360C4614968C1630262F0BD00000140B1
:104020000004014030B5046A026A22F48052026240
:104030004268C3690D6823F4E64343EA05238D68AB
:1040400024F4005444EA0534084DA84202D0084D37
:10405000A84204D14D6922F4804242EA85124260AE
:10406000C36149680164046230BD00000000014082
:1040700000040140F8B5064610480D4600240168CA
:1040800041F0040101600068032200F00400009088
:1040900011461E20FEF778FC1E20FEF768FC094A38
:1040A00007481060C2E90154C2E903641046FEF7F4
:1040B00071FFBDE8F8400348FEF7B8BF4038024042
:1040C00000080040940F002010B5806B0021C185CE
:1040D000C184FFF787FB10BD01680C3151E8002F48
:1040E00022F4907241E80023002BF5D101681431CD
:1040F00051E8002F22F0010241E80023002BF5D106
:10410000016B012909D101680C3151E8002F22F01F
:10411000100241E80023002BF5D1202180F8421045
:1041200000210163704708B590F84210222901D0A0
:10413000022008BD82684FF480539A4201D1016980
:1041400021B1816A9A421BD04AB10AE00268816AB1
:104150005268C2F308020A80816A891C08E0026979
:1041600072B10268526802F07F020A70816A491CCB
:104170008162C18D491E0904090CC18503D01BE071
:1041800002685268F1E70168CA6822F02002CA603A
:104190000168CA6822F48072CA6001684A6922F024
:1041A00001024A61202180F8421000214163026B24
:1041B000012A03D0FFF7CEFC002008BD016301688F
:1041C0000C3151E8002F22F0100241E80023002BAF
:1041D000F5D101680A68D20602D50A6849680091DB
:1041E000818DFFF7FEFAE7E770B5044600680169C4
:1041F000E26821F44051114301612169A068E2693C
:1042000008436169114308432168CA6849F20C6395
:104210009A430243CA6020684169A26921F440714F
:104220001143416131492068884202D030498842B7
:1042300002D1FEF797FC01E0FEF784FCE26900235F
:10424000192164253226B2F5004F626828D0A0FB00
:104250000101930F9200FCF760F80146B0FBF5F006
:104260006FF01802504301EB800006EB0010B0FB2A
:10427000F5F000F0F002B1FBF5F002EB0012B1FB3B
:10428000F5F06FF01803584301EB800006EB0010C7
:10429000B0FBF5F000F00F0021681044886070BD9D
:1042A000A0FB010192185B41FCF737F80146B0FB17
:1042B000F5F00201B1FBF5F06FF01803584301EB84
:1042C000800006EBC000B0FBF5F000F0F80002EB58
:1042D0004002B1FBF5F0584301EB800006EBC00053
:1042E000B0FBF5F000F00700D6E700000010014039
:1042F0000014014081628285C2850021416422212F
:1043000080F84210016921B10168CA6842F48072E4
:10431000CA6001684A6942F001024A610068C168E6
:1043200041F02001C16000207047000010B508482E
:10433000FFF75EFA0648FFF756FA2028FAD1012265
:1043400004490348FFF7F8FB0028F8D110BD00002E
:104350004C0F002088000020FEE703B401984100C4
:10436000009850EAC12018BF04204A0D18BF40F041
:10437000010040F2FF72B2EB515F08BF40F0020053
:10438000012808BF052002B070470907090E002860
:1043900004DB00F1E02080F80014704700F00F000B
:1043A00000F1E02080F8141D7047000000000000BC
:1043B00070B5D94B00242DED020B2DED108BDDE9EE
:1043C0001010984205DA20F000429A4201D809D133
:1043D00041B19DED100BBDEC108B02B0BDE87040FB
:1043E00000F05EBAB0F5801F26DA11430BD000282A
:1043F00013DA0120FCF7F3FABDEC108B02B0BDE834
:10440000704000F059BA0220FCF7E9FA00F030FAE7
:1044100051EC100B02F0F0F99EE06FF035049FEDC7
:10442000C00B53EC102B9DED100B51EC100B02F058
:10443000EBFCCDE91001084604EB2051C0F3130456
:10444000B948A1F2FF31204400F4801080F07F626F
:1044500082F04052224301EB20559FEDB50B1192A3
:1044600053EC102B9DED100B51EC100B02F00CFED9
:1044700041EC180BA01CC0F313009FEDAFDB9FEDC8
:10448000B0EBB14E7E4403286CD296ED000B51EC9C
:10449000180B53EC102B02F0F9FB1DD1002D01BFBE
:1044A00096ED000BBDEC108B02B070BD284602F0FB
:1044B00058FC41EC180B53EC1D2B02F0A5FC41EC11
:1044C000190B53EC1E2B51EC180B02F09DFC53EC16
:1044D000192B02F0CFF93FE09FED9D0B51EC180B2B
:1044E00053EC102B02F090FC9FED9B1B53EC112B17
:1044F00002F0BEFD41EC190B53EC182B51EC180BDC
:1045000002F082FC53EC192B02F07EFC41EC190BFB
:10451000002D04BF53EC192B51EC180B1AD0284670
:1045200002F01FFC41EC1A0B53EC1D2B02F06CFC4B
:1045300053EC192B02F09CFD53EC182B02F0A4FD58
:1045400041EC180B53EC1E2B51EC1A0B02F05CFCE7
:1045500053EC182B02F098FDBDEC108B02B041EC2F
:10456000100B70BD9FED7E0B51EC180B53EC102B14
:1045700002F080F941EC100B51EC180B53EC102BAE
:1045800002F02CFA41EC190B284602F0EAFB41EC50
:104590001B0B53EC192B51EC190B02F035FC41ECC1
:1045A0001A0B714853EC1A2B261851EC1A0B02F017
:1045B0002BFC41EC1F0B6D48C4F1510404F5D724CA
:1045C000B0EE4F0AF0EE6F0A0321784400F0D2F803
:1045D00053EC1F2B51EC100B02F016FC41EC1C0BA2
:1045E0006348B0EE4F0AF0EE6F0A0421784400F001
:1045F000C1F853EC1A2B51EC100B02F005FC3443BC
:1046000053EC1C2B02F036F941EC1C0B002C4CDD5A
:104610009FED510B51EC180B53EC102B02F0F4FBF7
:1046200053EC182B02F0F0FB41EC1A0B55B353EC92
:104630001D2B51EC1B0B02F0E7FB41EC1D0B53EC67
:104640001C2B51EC1A0B02F015F953EC192B02F04C
:10465000DBFB53EC1D2B02F00DF953EC1A2B02F08F
:1046600007FD53EC182B02F00FFD41EC180B53EC37
:104670001E2B51EC1B0B02F0C7FB53EC182B02F066
:1046800003FD69E753EC1C2B51EC1A0B02F0F2F816
:1046900053EC192B02F0B8FB53EC1A2B02F0E8FC98
:1046A00053EC182B02F0E4FC56E735B353EC1D2B0A
:1046B00051EC1B0B02F0A8FB41EC1A0B53EC1C2B2A
:1046C00051EC180B02F0E0FC53EC192B02F09CFBB0
:1046D00053EC1A2B02F0D8FC53EC182B02F0D4FC4C
:1046E00041EC180B53EC1E2B51EC1B0B02F08CFB16
:1046F00053EC182B02F0C8FC2EE753EC1C2B51ECAA
:10470000180B02F0C1FC53EC192B02F07DFB53ECAB
:10471000182B02F0ADFC1FE70000F07F0000000046
:104720000000000000005043645F0900000000002A
:10473000000000000000F03F763C7935EF39EA3D9B
:104740000000E0FE422EE63FC82F000000000000FF
:10475000555555555555D53F000000000000E03F28
:10476000000000000000004086EBF9FF222E000050
:10477000182E000070B504462DED028B4D1E00EB87
:10478000C500B0EE408AF0EE608A90ED000B35F087
:10479000060017D053EC182B51EC100B02F034FB31
:1047A00041EC100B6D1E04EBC50090ED001B51ECAD
:1047B000100B53EC112B02F05DF841EC100B35F0AF
:1047C0000600E7D1022D36D0042D1CD0062D1CBFCB
:1047D000BDEC028B70BD53EC182B51EC100B02F0AA
:1047E00013FB94ED0A1B53EC112B02F043F853EC2E
:1047F000182B02F009FB94ED081B53EC112B02F06F
:1048000039F841EC100B53EC182B51EC100B02F063
:10481000FBFA94ED061B53EC112B02F02BF853EC32
:10482000182B02F0F1FA94ED040B53EC102B02F06C
:1048300021F841EC100B53EC182B51EC100B02F04B
:10484000E3FA94ED021B53EC112B02F013F853EC36
:10485000182B02F0D9FA94ED001B53EC112B02F047
:1048600009F8BDEC028B41EC100B70BD000000009C
:104870009FED070B10B553EC102B9FED070B51EC80
:10488000100B02F0ABF841EC100B10BD0000000063
:104890000000000000000000000000000000F03FE9
:1048A00010B553EC102B51EC100B01F0E3FF41EC71
:1048B000100B10BD000000009FED050B10B553EC70
:1048C000102B51EC100B02F089F841EC100B10BDCD
:1048D000000000000000000030380A2801D201204A
:1048E00070470020704770477FB50024214800942E
:1048F000019402941E490394016001254FF4803114
:104900000561C0E90114057680F820401A49C0E924
:104910000A140526C661C46080F830504461FDF772
:10492000F9FB0920CDE90005694602941148FDF71D
:104930002FFB0220CDE9004069460E48FDF728FB19
:1049400008200324CDE9000469460A48FDF720FB4E
:10495000062000900420019069460648FDF718FBE8
:10496000CDE9004669460348FDF712FB7FBD000014
:1049700000200140D00D00200100000F2DE9F04182
:1049800086B014216846FBF7B9FF45480025016849
:1049900041F4807101600068414C00F48070143C67
:1049A0000590206840F002002060206800F00200BE
:1049B0000590206840F001002060206800F00100B0
:1049C0000590206840F002002060206800F002009E
:1049D0000590206840F001002060206800F0010090
:1049E0000590206840F00100206020682D4F00F005
:1049F00001000590022000900320CDE901056946E1
:104A00003846FDF761FEDFF8A08001266946404682
:104A10000096FDF759FE694638460096FDF754FEAC
:104A20004020009069464046FDF74EFE0820009069
:104A300069464046FDF748FEFFF756FF206840F400
:104A40008000206020681A4C00F480000590174810
:104A5000C4E900050015A560C4E903504000606189
:104A60008000A0614011E061000220622046FDF755
:104A700089FDA4F1480001228463A06302213C2047
:104A8000FDF782FF3C20FDF772FFA4F50F71FA22BB
:104A900001F5FA70FDF76AFB06B0BDE8F081000091
:104AA00044380240000402400000024070640240AA
:104AB000180E002038B5254A0024136843F001037E
:104AC00013601268224B02F001020092214AC2E9EF
:104AD0000240146194615461C2E900311046FEF74E
:104AE000E5FB1C48602148300022C0E900148460C6
:104AF000C46004614461014684614838FEF770FB7C
:104B00001449042248311348FEF76AFB1149082270
:104B100048311048FEF764FB00210E48FEF774FC94
:104B200004210C48FEF770FC08210A48FEF76CFCD3
:104B3000022211461920FDF727FF1920FDF717FF64
:104B4000BDE838400348FEF771BA0000443802401F
:104B500000000140F4090020012806D103488171BA
:104B6000BCEEC00A10EE101A4182704728000020E7
:104B70002DE9F041804621480E4686B001680024A8
:104B800041F020010160016801F0200105910168F8
:104B900041F0200101600068012500F0200005902F
:104BA0004FF480600090CDE90154154F69463846B6
:104BB0000394FDF789FD40200090CDE90154039452
:104BC000104C69462046FDF77FFD0022402120461B
:104BD000FDF77FFE0420009069463846FDF774FD1E
:104BE00000F008F931464046FFF764FF532140F2D8
:104BF000E73000F009F806B0BDE8F0813038024037
:104C0000001402400010024010B50A4C084AC4E9E2
:104C100000210021C4E9021020462161FEF7BAF903
:104C20002046FEF703FA21686FF00100086110BD0D
:104C300000100040580A0020F0B585B00446142149
:104C40006846FBF75BFE124800236A46002103EB2F
:104C5000830500BF6F1852F8216030F817703E448A
:104C600042F82160491C0529F4DB5B1C322BEDDB8B
:104C70000020322352F82010B1FBF3F142F820104B
:104C800024F81010401C0528F4DB05B0F0BD00002E
:104C9000DC0B00204279F021062A24D88278062AEB
:104CA00021D84279807802F00F0262F31F10452864
:104CB00016D0512814D0132812D0322810D026280C
:104CC0000ED064280CD062280CD023280AD03128BA
:104CD00008D0152806D0542804D0462802D002E077
:104CE000012100E0022108467047000010B504468B
:104CF0000420FEF72DF90148046010BD8400002057
:104D000070B5054600244FF47A7603E0304600F093
:104D100005F8641CAC42F9D370BD000070B54FF0CB
:104D2000E024002265690949A36909684843A1692B
:104D30009942FCD002D2A3EB010302E0A5EB0106ED
:104D400033441A440B468242F1D370BD84000020E4
:104D500003490A685206FCD5C2B24A607047000097
:104D60000010014000EE100ADFED1A0A9FED1B1A39
:104D7000B8EE400A10B520EE200ADFED170A20EE4B
:104D8000200AC1EE000A9FED160A9FED161A70EE7A
:104D9000C00A80EE810A10EE100A02F05FFA41ECC0
:104DA000100BFFF705FB51EC100B01F031FD00EE8D
:104DB000100A9FED0D1AC0EE010A9FED0C0AB7EE26
:104DC000001A30EE800AC1EE000A9FED090A30EEAB
:104DD000C00A10BD3333534000008039005872467A
:104DE00000E0924500401C46004053450FCF5B3B1E
:104DF00033938843264810B5026886B0002142F0FC
:104E000080020260026802F080020592026842F0AD
:104E100080020260026802F080020592026842F09D
:104E200080020260026802F080020592026842F08D
:104E300008020260026802F008020592026842F06D
:104E400008020260026802F008020592026842F05D
:104E50000202026000680F4C00F0020005904FF45F
:104E60008060CDE900010120029069462046FDF7EF
:104E70002BFCE014009069462046FDF725FCA014A9
:104E8000009069462046FDF71FFC06B010BD0000EB
:104E900030380240001C024070B5124C00216160A5
:104EA00001281DD1104D81022846FDF705FD18B1DE
:104EB000606840F0010060604FF400612846FDF733
:104EC000FBFC18B1606840F0020060604FF4805154
:104ED0002846FDF7F1FC18B1606840F004006060FE
:104EE000606870BD20000020001C02407047000078
:104EF0000F4810B50268002191630E4A528A036878
:104F00005A630068C1630C4C012291032046FDF7EF
:104F1000E0FC00224FF400512046FDF7DAFC204669
:104F2000BDE8104000224FF40041FDF7D2BC000064
:104F3000F409002028000020000402400F4810B5AA
:104F40000268002191630E4A528A03685A6300681E
:104F5000C1630C4C0122D1032046FDF7BAFC0022AC
:104F60004FF400512046FDF7B4FC2046BDE8104048
:104F700000224FF48041FDF7ACBC0000F409002092
:104F800028000020000402400F4810B502680021EC
:104F900051630E4A528A03689A630068C1630C4CDD
:104FA000012251032046FDF794FC00224FF480417A
:104FB0002046FDF78EFC2046BDE8104000224FF44D
:104FC0000041FDF786BC0000F40900202800002005
:104FD000000402400F4810B50268002151630E4AD8
:104FE000528A03689A630068C1630C4C0122D103A2
:104FF0002046FDF76EFC00224FF400512046FDF7DD
:1050000068FC2046BDE8104000224FF48041FDF7C7
:1050100060BC0000F40900202800002000040240C9
:105020000F4810B50268002191630E4A528A036846
:10503000DA63006841630C4C012251032046FDF7FE
:1050400048FC00224FF480412046FDF742FC2046F8
:10505000BDE8104000224FF40041FDF73ABC0000CB
:10506000F409002028000020000402400F4810B579
:105070000268002191630E4A528A0368DA6300686D
:1050800041630C4C012291032046FDF722FC0022D3
:105090004FF400512046FDF71CFC2046BDE81040AF
:1050A00000224FF40041FDF714BC0000F409002079
:1050B000280000200004024008B5FDF71DFCFEF7A3
:1050C00023FEFEF7AFFD0A48016841F4800101604C
:1050D0000068002200F48000009011463C20FDF79B
:1050E00053FC3C20FDF743FCFCF7D8FEFEE7000034
:1050F000303802400FB42DE9F04F8B468246002035
:1051000026498BB00DF15C080870012506463DE08C
:1051100023A11698FBF71AFC002808F10400D8F820
:10512000001080C8894680464FF0000416D02AE05F
:105130001DB959461948FBF7A3FB002559F824006F
:1051400002F08CF8CDE90001202102A8169AFBF7A5
:1051500067F902A91148FBF793FB641CBC42E7DB2B
:1051600013E01DB959460D48FBF78AFB002559F895
:105170002430202102A8169AFBF752F902A9074809
:10518000FBF77EFB641CBC42EBDB761C5645BFDBA9
:105190000BB00248BDE8F00F5DF814FBF4010020ED
:1051A000256600000FB42DE9F04F8B4682460020A3
:1051B00026498BB00DF15C080870012506463DE0DC
:1051C00023A11698FBF7C2FB002808F10400D8F8C9
:1051D000001080C8894680464FF0000416D02AE0AF
:1051E0001DB959461948FBF74BFB002559F8240017
:1051F00002F034F8CDE90001202102A8169AFBF74D
:105200000FF902A91148FBF73BFB641CBC42E7DB2A
:1052100013E01DB959460D48FBF732FB002559F83C
:105220002430202102A8169AFBF7FAF802A90748B1
:10523000FBF726FB641CBC42EBDB761C5645BFDB50
:105240000BB00248BDE8F00F5DF814FBF405002038
:10525000256600002DE9F04190B0264809AC00F128
:10526000100105AD0EC984E80E00F0E80712CDE983
:105270000C121EC885E81E0050E90910CDE90E1079
:1052800004250DF1300803270DF1040C05AE0224AE
:105290004046009704958CE8510009AB16A217A16F
:1052A0003846FFF727FF014615A0FBF7ADF8CDE91B
:1052B0000246CDE9007809AB15A217A10320049599
:1052C000FFF770FF014615A0FBF79EF80EAB1AA280
:1052D0000AA101200094FFF70DFF014617A0FBF77C
:1052E00093F81D490020401C8842FCDB10B00020D0
:1052F000BDE8F0817C730008256400002C000000EC
:10530000C6B4BDD3BDE1B9FB3A2025730D0A000038
:10531000307825303258000020000000C6B4BDD3DC
:10532000BDE1B9FB2028CAAEC1F9BDF8D6C6293AFD
:105330002025730D0A00000025660000C6B4BDD309
:10534000BDE1B9FB2028666C6F6174CAFDD7E929FD
:105350003A25730D0A000000A08601000148FEF7FF
:105360005DBC0000100000204FF47A79002425462F
:105370002E46B0466AA0FBF747F871A0FBF744F849
:1053800077A0FBF741F86420FFF7BAFC9FED790B9B
:105390009FED7A1B51EC100B53EC112B01F032FEF8
:1053A00001D842F27F594946DFF8D891A9F8121086
:1053B000022189F80610012189F8001000F036F961
:1053C0004FF0140A7F1CFFB2B7FBFAF10AFB117011
:1053D00000287DD16C48B0F9001000EE101AF8EEEC
:1053E000C00A9FED6A0AB0F90210B0F9040020EE7D
:1053F000802A00EE901AF8EEE00A20EE801A00EE05
:10540000900AF8EEE00A60EE801A00EE904A9FEDF6
:10541000600A60EE802ADFED5F0A5F4842EE202AD4
:1054200002EE105A22EE002A12EE904A01EE202AD5
:1054300001EE106A21EE001A12EE105A01EEA01AC7
:1054400011EE106A01EE108A21EE000A90ED001AAA
:1054500099F8000001EE200A10EE108A48B99FED7D
:105460004F0A10EE104A10EE105A10EE106A10EEAD
:10547000108ADFF82CB1BBF8000000EE100AB8EE7D
:10548000400ADFED480A20EE200A10EE100A01F073
:10549000E5FE41EC100B44A053EC102BFAF7B4FFDF
:1054A000BBF80200FFF75EFC10EE100A01F0D6FE1A
:1054B00041EC100B41A053EC102BFAF7A5FF20464E
:1054C00001F0CCFE41EC100B40A053EC102B00E09F
:1054D00022E0FAF799FF284601F0C0FE41EC100BDC
:1054E0003FA053EC102BFAF78FFF304601F0B6FEC9
:1054F00041EC100B3FA053EC102BFAF785FF404610
:1055000001F0ACFE41EC100B3FA053EC102BFAF76E
:105510007BFF43A0FAF778FF0A20FFF7F1FB51E782
:10552000B0B4CFC24B45593020D4F6BCD3B1C8BDBE
:10553000CFD6B5BCB4D5FDD7AABCD3CBD90D0A0004
:10554000B0B4CFC24B45593120BCF5C9D9B1C8BDA3
:10555000CFD6B5BCB4B7B4D7AABCD3CBD90D0A004B
:10556000B0B4CFC24B45593220CDA3D6B9B5E7BBB5
:10557000FA0D0A000000000000408F40EB51B81EF9
:1055800085BFC240280000207E000020FFD7D64003
:105590006666663FCDCCCC3D740000200000000064
:1055A000780E00200000A53C56616C746167653A76
:1055B000252E316656200D0A0000000054656D70DE
:1055C0003A252E316643200D0A00000055CFE0B584
:1055D000E7C1F7CEAAA3BA252E33666D410D0A00A6
:1055E00056CFE0B5E7C1F7CEAAA3BA252E33666D34
:1055F000410D0A0057CFE0B5E7C1F7CEAAA3BA25FF
:105600002E33666D410D0A00C4B8CFDFB5E7C1F790
:10561000CEAAA3BA252E33666D410D0A0000000004
:105620000D0A0000704700687047000010B50122A5
:1056300091020848FDF74DF900210748FDF7E4FE07
:1056400004210548FDF7E0FEBDE8104008210248AE
:10565000FDF7DABE00140240F409002010B5002264
:105660004FF480611548FDF734F900211448FDF727
:105670002FFF04211248FDF72BFF08211048FDF7EA
:1056800027FF0F4900200A6890630A685063096881
:10569000C8630C4C02464FF400512046FDF719F93F
:1056A00000224FF480412046FDF713F92046BDE863
:1056B000104000224FF40041FDF70BB900140240E6
:1056C000F4090020000402400B4910B5094AC1E961
:1056D000002000208860C860086188610C20486153
:1056E0000846FEF7BDF9BDE8104001220349024813
:1056F000FEF722BA001001404C0F00208800002065
:1057000005490A78824204D00870002800D00120A0
:105710007047022070470000200000202DE9F04172
:10572000804621A0FAF770FE0025244F2C463E1F2C
:105730000BE0844202D12846BDE8F08157F82410DE
:105740004046FBF703F920B1641C3068411C8C42D1
:10575000EFDB57F824101AA0FAF756FE082C19D2DE
:10576000DFE804F004080A0C12151D1D00F0A0FB70
:10577000054614E0022512E0032510E013A0FAF715
:1057800043FEFDF733F90AE0FFF764FD07E0FFF79A
:10579000E5FD04E0732211A11AA0FAF735FE1EA060
:1057A000FAF732FEC7E700000D0A6974206973201A
:1057B0004749444C45210D0A00000000B00000207C
:1057C0006974206973202573210D0A00D5FDD4DA90
:1057D000D6D8C6F42E2E2E0D0A0000002E2E5C43C5
:1057E0006F72655C436F64655C416C69656E74657E
:1057F0006B5C75736D6172745F636F6E6669672E43
:105800006300000025735B25645D3A20B0A13FD59D
:10581000E22E2E2E0D0A0000656E64206F66206950
:10582000740D0A0070B596B0054614AB01AA03A921
:1058300000F0DEF9002824D18DF84C001D4C042620
:1058400015E000BF216806EBC00014AB08586A469B
:105850000BA900F0CDF9002813D103A90BA800F083
:105860003EFC80B19DF84C00401C8DF84C00217D21
:10587000C0B28142E6D8207D9DF84C1088420ED1FE
:10588000042016B070BD9DF800009DF804108842F9
:1058900001D90220F5E79DF84C00A075EBE713A9AC
:1058A000284600F05DFA0028EBD19DF84C006075A9
:1058B0000020E6E7000100202DE9F0417F4C9AB07E
:1058C000A57D207DA8427DD90421206801EBC5017A
:1058D00019AB405810AA11A900F08AF911A978A0B3
:1058E000FAF792FD00270DF1180833E0208B012113
:1058F000B940084217D0222173A0FAF785FD384637
:1059000000F098FA011971A02431FAF77DFD2221E7
:105910006DA0FAF779FD384600F08CFA2044243067
:1059200048F827000CE0384600F084FA2044416A29
:1059300048F82710E07D08B365A000BFFAF764FDC2
:105940009DF84000401E874202D063A0FAF75CFD3C
:105950007F1CFFB29DF840008742C7D35FA0FAF7D3
:1059600053FD00F0E3FA607D0B2814D2DFE800F06D
:10597000080D31384048525E6B78880058A0DDE74A
:10598000206850F83500804704E0206850F8351052
:1059900006988847064600F05FFA9DF864000128E3
:1059A0007DD050A0FAF730FD94F8EC0000280DD01F
:1059B000D4F8F0100A20B1FBF0F200FB1212B1FB98
:1059C000F0F100E002E048A0FAF71EFD1AB0BDE8D1
:1059D000F081206850F83520DDE906019047D9E7CD
:1059E000206806AE50F8353096E807009847D1E7B2
:1059F000206806AE50F8355096E80F00A847C9E772
:105A00000A980090206806AE50F8355096E80F00CE
:105A1000A847BFE7DDE90A01CDE90001206806AE2D
:105A200050F8355096E80F00A847B3E70AAB06AE2A
:105A300093E807008DE80700206850F8355096E895
:105A40000F00A847A6E70AAE96E80F008DE80F0002
:105A5000206806AE50F8355096E80F00A84799E741
:105A60000BAE96E80F0001AE86E80F000A98009092
:105A7000206806AE50F8355096E80F00A84789E731
:105A80000CAE96E80F0002AE86E80F00DDE90A01D1
:105A9000CDE90001206806AE50F8355000E003E083
:105AA00096E80F00A84775E7E07D314618B116A0CB
:105AB000FAF7AAFC78E717A0FAE700000001002037
:105AC0000D0A2573280000002563000025730000DF
:105AD00030582558000000002C000000290000006C
