:020000040800F2
:10000000E02F0020D9020008833E0008053D0008CB
:10001000813E00085D1E0008F54400080000000055
:10002000000000000000000000000000873E000803
:10003000991F000800000000853E0008893E000866
:10004000F3020008F3020008F3020008F3020008BC
:10005000F3020008F3020008F3020008F3020008AC
:10006000F3020008F3020008F3020008F30200089C
:10007000F3020008F3020008F3020008F30200088C
:10008000F3020008F3020008F3020008F30200087C
:10009000F3020008F3020008F3020008F30200086C
:1000A000F3020008F3020008F3020008F30200085C
:1000B000F3020008353F0008413F0008F302000842
:1000C000F3020008F3020008F3020008F30200083C
:1000D000F3020008C9440008F3020008F302000814
:1000E000F3020008F3020008F3020008F30200081C
:1000F000F3020008F3020008F3020008F30200080C
:10010000F3020008F3020008F3020008F3020008FB
:10011000F3020008F3020008753F0008F30200082C
:10012000F3020008F3020008F3020008F3020008DB
:10013000E91E0008F3020008F3020008F3020008B9
:10014000F3020008F3020008F3020008F3020008BB
:10015000F3020008F3020008F3020008F3020008AB
:10016000F3020008F3020008F3020008F30200089B
:10017000F3020008F3020008F30200080000000088
:10018000F3020008F302000800F002F800F095F80E
:100190000AA090E8000C82448344AAF10107DA45E2
:1001A00001D100F08AF8AFF2090EBAE80F0013F09F
:1001B000010F18BFFB1A43F001031847E87800004D
:1001C000087900000A444FF0000C10F8013B13F0CE
:1001D000070408BF10F8014B1D1108BF10F8015BA0
:1001E000641E05D010F8016B641E01F8016BF9D193
:1001F00013F0080F1EBF10F8014BAD1C0C1B09D1EA
:100200006D1E58BF01F801CBFAD505E014F8016B5B
:1002100001F8016B6D1EF9D59142D6D370470000ED
:100220000023002400250026103A28BF78C1FBD8FF
:10023000520728BF30C148BF0B607047662907F0DE
:100240008280652907F07F80672907F07C8061291B
:1002500007F07B80692900F05F81642900F05C81F0
:10026000752900F059816F2900F0F081782900F09C
:1002700017820368DB0928BF41F08001632900F081
:10028000C887732900F0CD87E32900F0EB870020B1
:1002900070471FB507F04DF801F018F80400002072
:1002A000002106F01BFB401C60600020002106F0CE
:1002B000FFFAE0601FBD10B510BD01F00BF911464B
:1002C000FFF7E7FF04F00EFF01F029F903B4FFF791
:1002D000F2FF03BC04F0D3FB0948804709480047FC
:1002E000FEE7FEE7FEE7FEE7FEE7FEE7FEE7FEE7E6
:1002F000FEE7FEE704480549054A064B7047000043
:10030000253F000889010008E0290020E02F002097
:10031000E02B0020E02B0020704753EA020C00F095
:1003200069802DE9F04B4FF00006002B1FBFB3FA98
:1003300083F503FA05F424FA05F65E4012BF16436E
:10034000B2FA82F502FA05F4C5F120051EBF22FAC1
:1003500005FC44EA0C04203556EA044C4FEA1444E8
:1003600018BF641C4FF000084FF00009904271EB79
:10037000030C39D3002919BFB1FA81F701FA07F646
:10038000B0FA80F700FA07F6C7F120071EBF20FA7F
:1003900007FC46EA0C062037B6FBF4FCA7EB050782
:1003A000103F07F01F0BCBF120060CFA0BFB2CFAC9
:1003B00006F644BFB3460026202FA4BF5E464FF08A
:1003C000000B5BEA060C08BF4FF0010B19EB0B09A1
:1003D000ABFB027C48EB0608C01B06FB02CC0BFB08
:1003E00003CC71EB0C01C1E70B460246414648467F
:1003F000BDE8F08B13B54FF000004FF00001AFF3F4
:100400000080BDE81C4070470FB4044910B503AA32
:10041000029800F00BFF10BC5DF814FB6400002094
:100420000FB41CB50C0007AA009001D02044401E58
:10043000074B7B4469460190069800F0C0FE002CF3
:1004400003D06946002000F0CDFE1CBC5DF814FB13
:10045000B90D000070B5044685690068C10601D574
:10046000302600E02026C00707D070BDD4E9012166
:1004700030469047206A401C20626D1EF6D570BD44
:1004800070B5044685690078C00707D170BDD4E90E
:10049000012120209047206A401C20626D1EF6D565
:1004A00070BD09684A0501D540B27047C905FCD541
:1004B00000B2704709684A0501D5C0B27047C90546
:1004C000FCD580B2704770B50C460546012A05D0B0
:1004D0002878800600D5EA69002302E0012305E0C0
:1004E0005B1C934202D2E05C0028F9D1A869E618AF
:1004F000C01AA861286A184428622846FFF7AAFF94
:1005000004E0D5E9012114F8010B9047B442F8D377
:100510002846FFF7B5FF70BD2DE9F04106460024DF
:1005200010687529314616A510D0FFF7BAFF0028CC
:1005300002DA404213A507E031688A0701D512A507
:1005400002E0490704D511A5012401E0FFF7B2FF3D
:1005500000210A2206F1240709E0B0FBF2FCB0FBFF
:10056000F2F302FB1C00303078541846491C002876
:10057000F3D123462A463046BDE8F04100F035BAB3
:10058000000000002D0000002B00000020000000F3
:100590002DE9FF5F15468A460446DFF8AC80F84433
:1005A0000027D8E900103E46CDE9001010E03AF8E7
:1005B00016106A4602A800F061FE411C07D021789F
:1005C000890603D5E269391891420DD80744761C93
:1005D0002078800602D5E069B84205DDAE42E6DB50
:1005E0003AF816000028E2D1A069C01BA06120469D
:1005F000FFF730FFD8E90010CDE90010002017E028
:100600003AF818106A4602A800F038FEB0F1FF3F31
:1006100081460BD000250DF1080B05E0D4E901213E
:100620001BF8050090476D1C4D45F7D308F10100FC
:10063000B0428046E4DB206A384420622046FFF75F
:100640001FFFBDE8FF9F0000FA6D000070B5044673
:1006500021461068FFF72EFF002104F1240505E074
:1006600000F007023032C0086A54491C0028F7D154
:100670002068002308A2050708D500F020000843E1
:1006800004D0E069012305A2401EE0612046BDE8D8
:10069000704000F0AAB90000000000003000000027
:1006A00070B504460D4621461068FFF703FF218808
:1006B000090502D50F4A7A4402E00E4A7A440E3206
:1006C000002104F1240305E000F00F060009965D07
:1006D0005E54491C0028F7D120780023000704D578
:1006E000702D02D009B1022311322046BDE87040BE
:1006F00000F07BB9EA6C00002DE9F05F8946044602
:100700004FF0000ADFF874B1FB44C0F820A0204687
:10071000E1688847002874D0252806D0D4E9012153
:100720009047206A401C2062F1E700265F46204681
:10073000E16888472028054607DB312D05D2781966
:1007400010F8200C08B10643F1E7B00701D526F0F8
:100750000406C4F81CA00027C4F818A02A2D09D04C
:10076000284604F085F938B304EB8708303DC8F813
:10077000185019E059F8041B204604EB87029161D8
:10078000E1688847012F054618D1E069002820DA82
:1007900026F020061DE0D8F8180000EB800005EBDD
:1007A00040003038C8F818002046E1688847054600
:1007B00004F05EF90028EED1012F0AD02E2D08D1C9
:1007C0002046E16888477F1C0546022F46F0200638
:1007D000C4DBA069002803DA404246F00106A061AC
:1007E000F00701D026F010066C2D0BD0682D09D033
:1007F0004C2D39D06A2D35D0742D35D07A2D33D08B
:1008000016E038E0E1682F4620468847B8420546A2
:1008100009D16C2F26D04FF48060E1680643204652
:100820008847054604E06C2F1AD04FF480700643C9
:100830000DB3A5F14100192802D8203546F4006611
:100840004A462946204626604E46FFF7F7FC80B10F
:1008500001280BD0F61D26F0070000F1080956E725
:100860004020E4E78020D8E70020D6E706F104091D
:100870004DE7284652E7206ABDE8F09FC06C0000B3
:10088000421E12F8013F002BFBD111F8013B002B57
:1008900002F8013BF9D1704710B5203AC0F00B8047
:1008A000B1E81850203AA0E81850B1E81850A0E874
:1008B0001850BFF4F5AF5FEA027C24BFB1E81850CE
:1008C000A0E8185044BF18C918C0BDE810405FEA3E
:1008D000827C24BF51F8043B40F8043B08BF7047BA
:1008E000D20728BF31F8023B48BF11F8012B28BFBF
:1008F00020F8023B48BF00F8012B70474FF0000280
:1009000000B5134694469646203922BFA0E80C5005
:10091000A0E80C50B1F12001BFF4F7AF090728BFE0
:10092000A0E80C5048BF0CC05DF804EB890028BF5C
:1009300040F8042B08BF704748BF20F8022B11F085
:10094000804F18BF00F8012B704700004FF0013CAA
:1009500050F8042B51F8043B9A4221D1A2EB0C032E
:10096000934313EACC1317D150F8042B51F8043BEE
:100970009A4215D1A2EB0C03934313EACC130BD18B
:1009800050F8042B51F8043B9A4209D1A2EB0C0316
:10099000934313EACC13DBD04FF00000704700BF45
:1009A000D01A01BAB1FA81F101F0180122FA01F06E
:1009B000CB40C1F12001DBB2C0B2C01A2CFA01F366
:1009C000D11A914311EAC311E6D1704770477047BD
:1009D0007047704710B500F07DFC006810BD10B581
:1009E000044600F077FC046010BD2DE9F0470D4689
:1009F00099469246044600F124080168880604D509
:100A0000E06921F01001216000E00120A84201DD31
:100A1000471B00E00027A1697A1902EB0900081AB8
:100A2000A0612078C00602D42046FFF713FD0026FF
:100A300008E0D4E901211AF806009047206A401C1A
:100A4000761C20624E45F4DB2078C0060AD520468D
:100A5000FFF700FD06E0D4E9012130209047206A2D
:100A6000401C2062381EA7F10107F4DC07E0D4E93E
:100A7000012118F805009047206A401C2062281EBA
:100A8000A5F10105F3DC2046FFF7FAFC207800060B
:100A900002D50220BDE8F0870120FBE770472DE971
:100AA000FF4F0C461E464FF0FF378BB0D2E90001D6
:100AB000DDF860800A908A46C1F30A5505B93D46C3
:100AC000002108464FF00000BAF1000F00F440008A
:100AD00005DA00EB80004FF4400101EA50004FEAD4
:100AE0009059B9F1010F00DDB9460A9850EA4A0061
:100AF0000ED044F61050A5F2FF3545432F14B8F13F
:100B0000000F1ED07542291E1EDDC9F100021CE037
:100B1000B8F1010F4FF0000001D0302103E0F243A3
:100B200005E02154401CB042FBDB3046002200218E
:100B300021540B99C1F80880C1E900200FB0BDE82D
:100B4000F08FBD1B6D1CDEE74A4600DA694206A83D
:100B500000F04AFC06AB93E8070003AB83E807000C
:100B600050460A9900F0E4FC8DE80700A0F500501B
:100B70001F3800900398002D09DD42F21F014A46FC
:100B8000084403A90390684600F043FF08E0A0F57D
:100B900000504A461F3803A90390684600F04DFFF5
:100BA0008DE807000004000C03D04FF0FF3041082F
:100BB00000E01046B8F1000F03D000220092154665
:100BC0001EE0751E05D400F089FB303262556D1EA3
:100BD000F9D5B3460122084302D000227F1C04E06D
:100BE0002078302801D100227F1E002A099786D064
:100BF0001DE0112D07DA00F071FB303262556D1CDB
:100C000050EA0102F5D1084302D00098C8B10EE0C5
:100C10000021681E05E0235C625C63542254401E80
:100C2000491C8142F7DBAB46A81B401E09900020FF
:100C300004F80B000B98099AC0F80880C0E9002B53
:100C40007CE711264FF0000859E72DE9F04F884660
:100C50000446D21D22F0070191B0D1E90001CDE98F
:100C60000A0103F048FC02460B98C00F01D02D206A
:100C700007E02068810701D52B2002E0202101EA4E
:100C8000C000032A099001D0072A05DB034641462C
:100C9000204600F069FB0BE12078800601D5E06971
:100CA00000E00620B8F1650F814606D0B8F1660F66
:100CB00018D0B8F1670F70D131E00020B9F1110FF1
:100CC000009001DB112301E009F101030AAA01A947
:100CD0000CA8FFF7E4FEDDE90C70002609F1010520
:100CE000834647E001204B4600904FF000470AAA98
:100CF00001A90CA8FFF7D3FEDDE90DB00C995D4604
:100D0000002610B909F101000D18B9EB050003D454
:100D1000C0F1FF3609F10105A5EB09002BE0B9F19F
:100D2000010F01DA4FF001090020B9F1110F009015
:100D3000484601DD112300E003460AAA01A90CA8D8
:100D4000FFF7ADFEDDE90C704D46002683462078A6
:100D500000070AD4AB4500DA5D4601A8012D04DD89
:100D6000411911F8011C302907D04F4502DA17F15B
:100D7000040F04DA012082460FE06D1EEEE7002F1B
:100D800002DCED1B3E4403E0781CA84200DD7D1C24
:100D9000B81B00F1010A4FF000472078000703D488
:100DA000AA4501DB4FF0FF3A0021B7F1004F0DF1EA
:100DB00043088DF8431024D002202B23002F01DAA2
:100DC0007F422D230A21021EA0F1010000DC5FB149
:100DD00097FBF1FC97FBF1F201FB1C7C17460CF131
:100DE000300C08F801CDEEE7A8F10100037021886E
:100DF000090501D5452100E06521A0F1010800F8B1
:100E0000011C09980FA9A1EB0807FF1D00B10120E3
:100E1000411901EBEA70A1693844081A401EA0612B
:100E20002078C00602D42046FFF714FB099828B1A9
:100E3000D4E901219047206A401C20622078C00636
:100E400022D52046FFF706FB1EE0002E04DBB3454B
:100E500002DD01A8805D00E03020D4E90121904747
:100E6000206A401C2062761CAAF101005FEA000A99
:100E70000AD100F02BFAC0680168405CD4E9012176
:100E80009047206A401C2062281EA5F10105DCDC89
:100E900007E0D4E9012118F8010B9047206A401CB3
:100EA0002062381EA7F10107F3DC2046FFF7E8FABD
:100EB000032011B043E600002DE9F04F04460D4633
:100EC000D21D22F0070089B0D0E900974846394684
:100ED00003F011FB0246F80F01D02D2307E0206834
:100EE000810701D52B2302E0202101EAC0038DF800
:100EF00020300BB1012000E00020032A824601D0FF
:100F0000072A04DB2946204600F02EFA3FE120782C
:100F1000800601D40D2500E0E569C7F30A560D2DC2
:100F200049DA00214FEA175B08464FF00000002F16
:100F300000F4400007DA00EB80004FF4400100EBC2
:100F4000D07001EA60008115012901DD4FF0FF3109
:100F500000224FEA850CBCF1180F06D31346ACF102
:100F600018004FF08052C24003E04FF4801323FA80
:100F70000CF30CF10C0CBCF1200F04D3ACF1200CE1
:100F800009FA0CF001E007FA0CF000294FF00048D4
:100F900001DD18B90FE00ED140450CD319EB020961
:100FA0005F4121B9404502D19F4329EA0209BBEBC9
:100FB000175F00D0761C2088000502D57B48784456
:100FC00002E07A487844193808AA302302F80A3037
:100FD000037C0AF10101002E0AF1020A53546A4609
:100FE00002DC4FF0300101E04FF031014FF0010819
:100FF0008DF8001002D0A6F2FF3603E059EA47014F
:1010000000D06B4E002D02DC2178090704D54FF08B
:1010100002082E218DF80110C44600210BE0C7F311
:1010200003433F01C35C491C6D1E02F808300529CB
:1010300008F1010801DA002DF1DC00210CE000EBE1
:101040001973491C1B786D1E082902F808304FEAF5
:10105000091908F1010801DA002DF0DC21688B067E
:1010600002D516E0A8F10108E04505DD02EB080312
:1010700013F8013C302BF5D0B8F1000F09DD02EB7D
:10108000080313F8013C2E2B03D1090701D4A8F162
:101090000108002D05DD3E2102F808106D1E08F143
:1010A0000108407C002E02F8080008F1010804DA6B
:1010B0002D20764202F8080002E02B2002F80800FA
:1010C0000A214FF47A70864208F101080BDB96FB87
:1010D000F0F3303302F8083096FBF0F308F1010822
:1010E00000FB136601E0642E0CDB642096FBF0F33A
:1010F000303302F8083096FBF0F308F1010800FBEA
:10110000136601E00A2E06DB96FBF1F0303002F8A0
:10111000080008F1010896FBF1F001FB1060303087
:1011200002F80800A16908F1010808EB050202EBCA
:101130000A00081AA0612078C00602D42046FFF7F2
:1011400089F9216A08AE01EB0A00206204E0D4E9C3
:10115000012116F8010B9047BAF1010AF7D2207865
:10116000C00602D52046FFF775F96E4609E016F86D
:10117000010B3E280FD0D4E901219047206A401C82
:101180002062B8F10108F2D22046FFF779F909B0E0
:101190000320BDE8F08F206A2844206203E0D4E9F0
:1011A0000121302090476D1EEBD3F8E76964000001
:1011B00002FCFFFF01694A1C02610878704700B514
:1011C0008FB0CDE901310021059105497944CDE980
:1011D000031011466846FFF78FFA0FB000BD0000FC
:1011E000E5FFFFFF0A6802F8010B0A607047D1E9CA
:1011F00000239A4202D2531C0B601070704710B546
:10120000436913B1AFF3008001E0FFF75CF90120FF
:1012100010BD127800F124010A7000224A700122E8
:10122000EDE711684FF0FF32E9E70000074B70B5BA
:101230000D467B44FFF7C3FF0446284600F042F901
:1012400010B14FF0FF3070BD204670BDE33B000091
:1012500010B5436913B1AFF3008001E0FFF798F9CF
:10126000012010BD128800F1240182840022C28472
:101270000122EDE711684FF0FF32E9E770B516463D
:101280000C46054600F01AF8036893F8010101289E
:1012900006D0FF2C0FD8185D68B101202C7070BDEE
:1012A000D3F807013246214603F2071303442846C8
:1012B000BDE8704018474FF0FF3070BD10B500F02A
:1012C00005F8001D10BD00BF15560000004870470E
:1012D000A0290020004870478029002030B5B0F1D7
:1012E0000A024FEA900E71F100034EEA817EB0EBE4
:1012F0000E0061EB91014FEA101E4EEA017E10EBE9
:101300000E0041EB11114FEA102E4EEA016E10EB68
:101310000E0041EB11214FEA104E4EEA014E10EB48
:101320000E0041EB1141401841F100014FEAD0009D
:1013300040EA41704FEAD10110EB80054FEA810489
:1013400044EA907444EB01046D1944EB0404521B0D
:10135000A3414FF0000348BF0A3200D530BD401C06
:1013600041F1000130BD00002DE9F0411F46044667
:1013700003260168072A01F4006004DB08B116A502
:1013800005E016A503E008B115A500E015A521F0BC
:1013900010002060A069C01EA0610FB1401EA061B6
:1013A0002046FFF757F84FB1D4E90121384690475E
:1013B000206A401C2062C01C206206E0206AFAE716
:1013C000D4E9012115F8010B9047761EF8D220468A
:1013D000FFF756F8BDE8F0814E414E006E616E0099
:1013E000494E4600696E66002DE9F0478146164673
:1013F0008AB0334878440DC88DE80D0030487844F1
:10140000801C03AC0DC884E80D0041F69B300844F5
:10141000372190FBF1F290FBF1F5A5F1800501FB7E
:1014200012041B3C02D56442012000E00020DFF8DA
:1014300090A080460027FA44AAF1BE0A0DE0E0071A
:1014400009D03246684607EB47010AEB810100F0FC
:10145000F4FA8DE8070064107F1C002CEFD1184FC0
:101460007F44AC3F18E0E80714D007EB04100DF1FF
:10147000180A90E80E008AE80E00C068F04201D118
:1014800098190890324606A903A800F0D6FA03ABD3
:1014900083E807006D10641C002DE4D132466946D4
:1014A000B8F1000F03A802D000F0B3FA01E000F099
:1014B000C4FAC9E90001C9F808200AB0BDE8F087FC
:1014C000CC600000007B00F080007047004870474F
:1014D000802900207546FFF7F9FFAE4605006946F2
:1014E000534620F00700854618B020B5FEF702FFEE
:1014F000BDE820404FF000064FF000074FF0000815
:101500004FF0000B21F00701AC46ACE8C009ACE895
:10151000C009ACE8C009ACE8C0098D46704710B5F9
:101520000446AFF300802046BDE81040FEF7CEBE73
:101530005FEA400C08BF91F0000F4FEA8C234FEA9E
:10154000C12243EA51514FEA1C5018BF00F5F04048
:101550004FEA300018BF41F000415FEA6C5C00F0D8
:101560002980BCF1FF3F08BF40F080407047130C5A
:1015700006BF12044FF0100C4FF0000C130E04BF06
:1015800012020CF1080C130F04BF12010CF1040C31
:10159000930F04BF92000CF1020CD30F04BF520052
:1015A0000CF1010C11464FF00002A0F11F00A0EB5E
:1015B0000C00704711F0004F08BF704731F0004138
:1015C0003FF4D5AF0B0C06BF09044FF0100C4FF0E1
:1015D000000C0B0E04BF09020CF1080C0B0F04BF2A
:1015E00009010CF1040C8B0F04BF89000CF1020CF3
:1015F000CB0F04BF49000CF1010CCCF12003A0EB90
:101600000C0022FA03F302FA0CF241EA030100F1A2
:101610000100704720F07F4C80EA030023F07F47F1
:10162000ACEB070303F57C5300F0004003F1FF032C
:101630002DE980494FEA154B09B44FEA144325EAD6
:101640000B4E24EA03480FF2042606EB1327490841
:101650003E785FEA320203FB0667C7F5000707FB27
:1016600006F64FEA54374FEAD64606F1020607FB64
:10167000066CCCF1005C4FEA1C472CEA074C07FBD8
:1016800006F40CFB06F504EB15464FEA961634BF3C
:1016900000204FF000404FEAD13706FB07FC4FEA2D
:1016A0001C4C0CFB0BF7D21B03FB0CF761EB070187
:1016B0000CFB0EF7B0EB074072EB17420CFB08F780
:1016C00034BFA2EB0742B2EB074261EB17414FEA8E
:1016D0000C444FEA910706FB07FC4FEA1C4C0CFB3D
:1016E0000BF7B0EBC74072EB573203FB0CF734BF7C
:1016F000A2EBC742B2EBC74261EB57310CFB0EF7CE
:10170000B0EBC70072EB57720CFB08F734BFA2EBCB
:10171000C702B2EBC70261EB5771039F4FEA8161C9
:1017200041EA921104EBCC044FEAD1374FEA8262CE
:1017300006FB07FC42EA90124FEA80604FEA1C4C1D
:101740000CFB0BF7D21B03FB0CF761EB07010CFB47
:101750000EF7B0EB074072EB17420CFB08F734BFF3
:10176000A2EB0742B2EB074261EB17414FEA8C55FF
:101770004FEA910704EB9C2406FB07FC4FEA1C4C44
:101780000CFB0BF7B0EBC74072EB573203FB0CF7C7
:1017900034BFA2EBC742B2EBC74261EB57310CFB3F
:1017A0000EF7B0EBC70072EB57720CFB08F734BFB3
:1017B000A2EBC702B2EBC70261EB577115EB4C25E8
:1017C0004FEA816141EA92114FEA82624FEAD137D2
:1017D00042EA901206FB07FC44F100044FEA8060E5
:1017E0004FEA1C4C0CFB0BF7D21B03FB0CF761EB15
:1017F00007010CFB0EF7B0EB074072EB17420CFB36
:1018000008F734BFA2EB0742B2EB074261EB174186
:1018100015EB1C154FEA813141EA92414FEA8232C1
:1018200042EA90424FEA80304FEA0C7644F10004DD
:1018300048EA03434EEA0B484FF0000EB2EB080CA7
:1018400071EB030724BF624639464EEB0E0E4FF094
:10185000000B0018524149414BEB0B0BB2EB080C4B
:1018600071EB03077BF1000B24BF624639464EEB58
:101870000E0E4FF0000B0018524149414BEB0B0B81
:10188000B2EB080C71EB03077BF1000B24BF62463F
:1018900039464EEB0E0E51EA020718BF46F001061C
:1018A00016EB0E7655F1000254F1000103D5BDE8A8
:1018B0008901BDE80088BDE88901BDE80048B61986
:1018C000524141EB0101A3F10103704780807F7E0B
:1018D0007D7C7B7A797877767675747372717170A6
:1018E0006F6E6E6D6C6C6B6A6A6968686766666558
:1018F0006464636362616160605F5F5E5E5D5D5CE6
:101900005C5B5B5A5A595958585757565655555556
:101910005454535352525251515050504F4F4F4EB6
:101920004E4D4D4D4C4C4C4B4B4B4A4A4A49494904
:101930004848484747474746464645454544444446
:10194000444343434342424242414141002B26D457
:10195000770021D01CB54FEA370703B44FF01000D1
:101960004FF010014FF000000FBCBDE810400BF12C
:10197000010BBBF1010F08BF5FEA170722BF12F18D
:10198000010211F101014FF0004143F1000300F0A9
:10199000004043EA00007047F9D35708DAE746EA07
:1019A000064613F1400F4FEA16461FDD13F1200FD4
:1019B000DFBF16430A46002120335B42C8D0C3F183
:1019C000200746EA064602FA07F74FEA164646EAB5
:1019D0000706C3F1200722FA03F201FA07F721FAFA
:1019E00003F14FF0000342EA0702B1E746EA0206BC
:1019F00046EA06464FEA164646EA0106BCBF46EAF4
:101A00000646360C4FF000034FF000024FF0000185
:101A10009EE72DE9C048934630B491E8380007C8E6
:101A200031EA400C48BF34EA430C03D5FFF7F2FD1E
:101A3000FFF78CFFF0BCBDE800882DE9C048934655
:101A400030B491E8380007C810F0804F08BF13F099
:101A5000804F03D100F005F8FFF778FFF0BCBDE838
:101A6000008820F07F4780EA030023F07F4C07EBDB
:101A70000C03A3F57C5300F00040A3F1FE0392F0A9
:101A8000000F00F0B38095F0000F00F077802DE993
:101A900001494FEA11404FEA144621EA004800FB91
:101AA00006FC24EA064708FB06F607FB08F800FBDD
:101AB00007F718EB06484CEB164C4FEA124B18EBA5
:101AC00007484FEA15464CEB174022EA0B4E0BFB3A
:101AD00006FC25EA06470EFB06F607FB0EFE0BFB8F
:101AE00007F71EEB064E4CEB164C4FF000061EEBB4
:101AF000074E4CEB174B18EB0B0840F1000018EBAE
:101B00000E0B58EB000840F100008F1A4FF0000157
:101B10003CBFC943661B14BFB5EB040C00213CBF9E
:101B2000C943F61B4FEA17444EEA8E0E27EA0445D6
:101B30004FEA1C4704FB07622CEA074C05FB07F73A
:101B40000CFB05F604FB0CFC16EB074642EB1742B8
:101B500016EB0C4642EB1C421BEB060658EB02024E
:101B6000414146EA9E0601D5BDE80189B6195241B8
:101B700041EB0101A3F10103BDE801894FEA1445DE
:101B80004FEA114724EA054621EA074C05FB07F412
:101B900006FB07F70CFB06F105FB0CFC11EB0741FC
:101BA00044EB17444FEA124711EB0C4144EB1C4441
:101BB00022EA074C05FB07F206FB07F70CFB06F6CB
:101BC00005FB0CFC16EB074642EB174216EB0C46E6
:101BD00042EB1C456A1854F1000148BF7047B61922
:101BE000524141EB0101A3F10103704795F0000F51
:101BF00037D04FEA11424FEA144721EA024624EA5D
:101C0000074C02FB07F106FB07F70CFB06F402FB8F
:101C10000CFC14EB074441EB17414FEA154714EB5A
:101C20000C4441EB1C4125EA074C02FB07F506FB7F
:101C300007F70CFB06F602FB0CFC16EB074645EB20
:101C4000174516EB0C4645EB1C42121951F10001E9
:101C500048BF7047B619524141EB0101A3F101039E
:101C600070474FEA14454FEA114724EA054621EA36
:101C7000074C05FB07F106FB07F70CFB06F24FF0DC
:101C8000000605FB0CFC12EB074241EB174112EB7F
:101C90000C4251EB1C4148BF7047921841EB0101C7
:101CA000A3F10103704710B50146806B026C12F07E
:101CB000500F05D0026CD20626D500F096FA10BD62
:101CC000016C41F40071016401688A6812F0405FA0
:101CD00017D1027EAAB9CA6A12F4700F02D08A68BC
:101CE00052050ED44A6822F020024A60016C21F4A9
:101CF00080710164016CC90403D4016C41F00101DD
:101D0000016400F0F3F910BD806BC26CBDE81040B7
:101D10000846104710B5806B40210164416C41F0CA
:101D20000401416400F061FA10BD10B5806B00F051
:101D30005BFA10BD464910B54A6822F440324A6049
:101D40004A6843681A434A6001684A6822F480720C
:101D50004A6001684A68036942EA03224A600168EE
:101D60004A6822F040724A6001684A6883681A43F0
:101D70004A6001688A6822F400628A6001688A68A1
:101D8000C3681A438A60816A6FF07062D142016849
:101D90008A6822F070628A6001688A680CD0836A5F
:101DA0001A438A6001688A6822F040528A6001689A
:101DB0008A68C36A1A4301E022F040528A600168CF
:101DC0008A6822F002028A6001688A68037E42EA19
:101DD00043028A6090F82010002901684A680FD0F9
:101DE00042F400624A6001684A6822F460424A6034
:101DF00001684A68174C436A04EB43331A4301E015
:101E000022F400624A600168CA6A22F47002CA625F
:101E10000168CA6A838B104C04EB03531A43CA62ED
:101E200001688A6822F400728A6001688A6890F802
:101E3000303042EA43228A6001688A6822F4806274
:101E40008A6001688A68406942EA8020886010BD23
:101E50000023014000E0FFFF0000F0FFFEE710B5A7
:101E6000A82002F0A7FF03F0B9F84FF4E13003F027
:101E7000B9FC542004F090F803F05AFB002142F220
:101E8000CF0002F0B5FE02F03FFF02F033FE00216A
:101E90004FF6FF7003F030F8BDE81040532140F2D8
:101EA000E73002F0D9BE0000FFF7D9FF04A0FEF72B
:101EB000ABFA07A10AA0FEF7A7FA03F081FAFEE742
:101EC0000D0AC6F4B6AFB3C9B9A6210D0A000000C9
:101ED000D5FDB5E32D463430372DB5E7BBFA00000C
:101EE00025730D0A00000000014800F0E7BA000069
:101EF0007C26002001681823CAB2103AB2FBF3F224
:101F0000054B6FF30901032A9B5CC36500D9091DCA
:101F100081650846704700004E73000810B5014601
:101F200000208B698A6A4FF0C07453B1B3F5005F2B
:101F300015D072B1012A0CD0022A0AD0032A09D185
:101F400004E01AB1012A06D0022A03D1C96AC901E4
:101F500000D5012010BDC96AA142FAD010BD002AE7
:101F6000F7D0012AF2D0022AF3D0032AF3D010BD11
:101F700030B50468256825F4802525600468636011
:101F80008368402B036803D099600068C26030BD4D
:101F90009A600068C16030BD704772B6FEE700000D
:101FA00078B50024009490F83C20012A19D0012231
:101FB00080F83C200A6807230568092A13D9EE68CF
:101FC0000A3A02EB420293409E43EE600B788A6825
:101FD0000A3B03EB43039A400368DD682A43DA6057
:101FE00010E0022078BD2E6902EB420293409E432E
:101FF0002E610B788A6803EB43039A4003681D69DE
:102000002A431A614A681F23072A13D205686E6B98
:10201000521E02EB820293409E436E630B790A8844
:102020005B1E92B203EB83039A4003685D6B2A4305
:102030005A6327E005680D2A12D22E6BD21F02EBDD
:10204000820293409E432E630B790A88DB1F92B273
:1020500003EB83039A4003681D6B2A431A6311E064
:10206000EE6A0D3A02EB820293409E43EE620B79D8
:102070000A880D3B92B203EB83039A400368DD6A42
:102080002A43DA62164B0568144A9D4206D10D6850
:10209000122D03D1556845F48005556005689D42B1
:1020A00018D10B68102B01D0112B13D1536843F4B6
:1020B00000035360096810290CD10A490A4A0968CB
:1020C000B1FBF2F101EB8101490000E0491E0091F2
:1020D0000029FBD180F83C40002078BD002301405E
:1020E000002001400C00002040420F0010B535498F
:1020F0002DED028B00689FED328A884254D1324C1C
:102100002078401C2070314800F046F904F10C00A2
:1021100002F0BAFD04F10C00D4ED010A808800EE53
:10212000100AB8EE400A70EE200AC4ED010A2078C9
:102130000F2839D300EE100AB8EE401A80EE810A5B
:1021400084ED010A607810280AD8401CC0B2607083
:10215000D4ED020A102870EE800AC4ED020A26D0DF
:10216000C0B211281CD3D4ED020A00BF30EE600AC1
:10217000DFED170A17499FED181A60EE200A91ED5E
:10218000010A174A20EE010A9FED141A00EE810A97
:1021900010EE100A81ED010A904201DC81ED018A06
:1021A00084ED018A00202070BDEC028B10BD9FEDF4
:1021B0000D1A1120607060EE810AC4ED020AD5E7A5
:1021C00000000000002001403C00002034260020D8
:1021D000FFD7D640002800209A99193FCDCCCC3E9D
:1021E0000000A0410000803D7047704770B50400BA
:1021F0004FF0000503D0206C002610B107E001204D
:1022000070BD204600F01CF8666484F83C60206CC9
:10221000C00610D4206C20F4885040F002002064E6
:102220002046FFF787FD6664206C20F0020040F036
:102230000100206400E0012584F83C60284670BD60
:1022400070470000F8B5044600200E46009094F850
:102250003C10012907D0012184F83C1021688B68CB
:10226000DB0702D011E00220F8BD8B6843F00103C8
:102270008B604049404B0968B1FBF3F101EB410130
:1022800000E0491E00910029FBD121688B68DB0525
:1022900003D58B6823F480738B6021688B68DB0720
:1022A0005DD0236C40F20165AB4343F4807323643B
:1022B0004968490505D5216C21F4005141F480514C
:1022C0002164216CC90404D5616C21F006016164AC
:1022D00000E0606484F83C00A16B2948274DC86386
:1022E000A16B28480864A16B2748C86421686FF077
:1022F000220008602068416841F0806141602068E8
:10230000816841F4807181602168134632464C3106
:10231000A06B00F00DFA68681C49C006206806D062
:10232000884224D1816811F0405F13D01FE08842B9
:10233000F8D0174A904203D1D1F80423D206F1D045
:10234000144A904213D1D1F8041301F01F0110294F
:10235000E8D30CE0816841F08041816007E0206CA7
:1023600040F010002064606C40F0010060640020C8
:10237000F8BD00000C00002040420F000023014087
:10238000A71C00082B1D0008151D00080020014097
:10239000002101400022014010B50446002094F8BD
:1023A0003C1001290CD0012184F83C1021688A6876
:1023B00022F001028A6021688A68D20702D01DE0FB
:1023C000022010BD8A6822F480728A60A16B91F8A5
:1023D0003520022A07D1084600F014F818B1216C04
:1023E00041F04001216421684A6822F080624A601D
:1023F000216C21F4885141F001012164002184F80D
:102400003C1010BD2DE9F0410446876D00F0CEFA76
:10241000064694F835000025022806D08020606525
:1024200084F834500120BDE8F0812068016821F073
:10243000160101602068416921F080014161206C32
:1024400008B9A06C20B12068016821F00801016082
:102450002068016821F0010101600CE000F0A6FA9B
:10246000801B052807D920206065032084F83500EB
:1024700084F83450D7E720680068C007EED194F89C
:102480005C103F208840B860012084F8350084F853
:1024900034500020C7E790F83510022903D080217E
:1024A000416501207047052180F8351000680168FA
:1024B00021F0010101600020704700002DE9F84380
:1024C00004464FF00009CDF8009063484FF41651D0
:1024D000A56D0068B0FBF1F72E6894F85C10082039
:1024E00000FA01F131420FD021680A6852070BD57A
:1024F0000A6822F004020A6094F85C108840A86020
:10250000606D40F00100606594F85C104FF00108C8
:1025100008FA01F0304208D021684969090604D55B
:10252000A860606D40F00200606594F85C100420C3
:102530008840304208D021680968890704D5A8601E
:10254000606D40F00400606594F85C1010208840D5
:10255000304218D021680968090714D5A86020689E
:102560000168490304D50068000308D5A16C07E0A1
:102570000168C90503D4016821F008010160216CDC
:1025800009B12046884794F85C10202088403042EA
:1025900031D021680968C9062DD5A86094F83500A6
:1025A00005282068016806D0490347D50068000364
:1025B0001DD4616C1CE021F01601016020684169A6
:1025C00021F080014161206C08B9A06C20B1206825
:1025D000016821F00801016094F85C103F208840F8
:1025E000A86084F8358084F83490216D1FE0E16B99
:1025F00009B120468847606D00282BD0606DC00768
:1026000014D0052084F835002068016821F001010C
:1026100001600098401C0090B84203D82068006810
:10262000C007F6D184F8358084F83490E16C002935
:1026300010D001B02046BDE8F04308470168C90545
:10264000D5D4016821F01001016084F8358084F848
:102650003490CCE7BDE8F8830C0000202DE9F04170
:10266000044600F0A3F906465CB1022084F8350068
:10267000002584F834502068016821F001010160D0
:102680000DE00120BDE8F08100F090F9801B0528E5
:1026900005D920206065032084F83500F2E7206822
:1026A0000068C007F0D12268116820480140D4E9D1
:1026B00001031843D4E903363343184363691843CD
:1026C000A3691843E3691843236A18430843616AFE
:1026D000042903D1D4E90B1319430843106020687F
:1026E0004069666A20F0070130460E43012704283E
:1026F0000CD1A06A0643E06A40B12046FFF70EFC09
:1027000020B14020606584F83570BAE720684661E2
:102710002046FFF7EFFB94F85C203F219140816059
:10272000656584F835700020ACE700003F8010F04C
:102730002DE9F0410446866D90F83400002501280B
:102740000DD0012084F8340094F835700020012F5A
:1027500007D084F8340002252846BDE8F081022025
:10276000FBE7022784F8357060652046FFF700FC20
:1027700094F85C103F208840B0602068016841F008
:1027800016010160206C20B12068016841F0080149
:1027900001602068016841F001010160DCE7000090
:1027A0002DE9F84FDFF8BCA10022012503264FF0E8
:1027B0000F090AF1040BAAF1040E00BF0B6805FA19
:1027C00002F42340A34270D10F7907F00307012FD1
:1027D00001D0022F16D187684FEA420806FA08FC9A
:1027E00027EA0C07D1F80CC00CFA08FC4CEA070CDD
:1027F000C0F808C04768A7430C79C4F3001494409C
:102800003C4344600C79E443A4070AD0C4684FEA0F
:10281000420C06FA0CF7BC438F6807FA0CF7274303
:10282000C7600C7904F00304022C12D1D40800EB29
:10283000840CDCF820405707FF0E09FA07F824EA59
:102840000804D1F8108008FA07F848EA0408CCF820
:10285000208004684FEA420C06FA0CF7BC430F795B
:1028600007F0030707FA0CF7274307604C6814F4D6
:10287000403F70D03C4C276847F48047276024686D
:1028800022F0030704F480440094384C07EB040C56
:10289000DCF8084897074FEA177809FA08F7BC43AD
:1028A000334FB84202D1002724E054E0314FB84200
:1028B00001D101271EE0304FB84201D1022719E0B3
:1028C0002E4FB84201D1032714E02D4FB84201D159
:1028D00004270FE02B4FB84201D105270AE02A4F09
:1028E000B84201D1062705E0284FB84201D1072799
:1028F00000E0082707FA08F72743CCF80878DAF849
:1029000000405746D1F804C09C435FEACC2C00D568
:102910001C433C60DBF800405F46D1F804C09C4398
:102920005FEA8C2C00D51C433C60DEF80040774603
:10293000D1F804C09C435FEA8C3C00D51C433C604A
:10294000084F083F3C68D1F804C09C435FEACC3C88
:1029500000D51C433C60521C102AFFF42FAFBDE889
:10296000F88F0000083C014044380240003001402C
:10297000000002400004024000080240000C024037
:10298000001002400014024000180240001C0240E7
:10299000426921EA02030A4043EA02418161704729
:1029A0000AB1816170470904FBE7000001488068B3
:1029B000704700000000002002488168027811443E
:1029C00081607047000000200B4810B5016841F499
:1029D00000710160016841F480610160016841F4A7
:1029E00080710160032000F057F8032000F006F822
:1029F00000F024F8002010BD003C024070B50D4DE1
:102A000004464FF47A712878B1FBF0F00A4909685E
:102A1000B1FBF0F000F010FB48B9102C07D20022F7
:102A20002146501E00F018F800206C6070BD012097
:102A300070BD0000000000200C000020704700283E
:102A400009DB00F01F02012191404009800000F1E4
:102A5000E020C0F800117047F0B40E4B1B680C4624
:102A6000C3F30223C3F10705042D00D90425191D62
:102A7000072901D2002300E0DB1E012606FA05F13A
:102A8000491E214099409E40761E16403143F0BCBD
:102A900001F049BD0CED00E0064900F007020868AE
:102AA0004FF6FF03184040EA0220034A1043086033
:102AB000704700000CED00E00000FA05BFF34F8FF7
:102AC00005480168054A01F4E06111430160BFF364
:102AD0004F8F00BFFDE700000CED00E00400FA0599
:102AE0002DE9F0470E46050065D0DFF81481D8F8CF
:102AF0000000F7B200F00700B04207D288F800707B
:102B0000D8F8000000F00700B04254D128683D4CCE
:102B1000810712D5400703D5206840F4E0502060BB
:102B20002878000703D5206840F4604020602068C2
:102B3000A96820F0F000084320602878C0072DD055
:102B4000304968680839012812D0022813D00328B8
:102B500011D00968890700292DDA216821F00301C5
:102B600001432160FFF722FF814641F2883A0EE0DF
:102B700009688903EFE709688901ECE7FFF716FFA9
:102B8000A0EB0901514502D90320BDE8F087206878
:102B9000696800F00C00B0EB810FEFD1D8F800109D
:102BA000404601F00701B14207D90770006800F004
:102BB0000700B04201D00120E7E72878400705D59B
:102BC0002068E96820F4E050084320602878000776
:102BD00006D52068296920F4604040EAC1002060E1
:102BE00000F038F82168084AC1F30311515CC8406D
:102BF0000649086006480068FFF700FF0020C4E7A8
:102C0000003C024008380240567300080C000020C7
:102C1000040000200448054900680968044AC1F31B
:102C20008221515CC84070470C00002008380240E7
:102C3000667300080448054900680968044AC1F33E
:102C40004231515CC84070470C00002008380240F7
:102C500066730008154810B5006810F00C0214489F
:102C600013D04110042A0FD0082A0ED10F4C241F74
:102C70002268236802F03F025B0207D52068C0F398
:102C80008810A0FB010106E0084610BD2168C1F3D1
:102C90008811A1FB00010023FDF73FFB2168C1F370
:102CA0000141491C4900B0FBF1F010BD0838024059
:102CB0000024F4002DE9F84F04006ED02078DFF8EE
:102CC0004C93C007A9F104054AD009F1040001683A
:102CD000C1F38101012908D00068C0F381000228F6
:102CE0000AD1D9F80000400206D52868800337D5FC
:102CF00060680028E1D033E06068B0F5803F10D014
:102D0000B0F5A02F286810D020F480302860286803
:102D100020F4802028606068A8B1FFF747FE0646CF
:102D20000DE0286840F48030F4E740F4802028600B
:102D3000F7E700BFFFF73AFE801B642873D82868C6
:102D40008003F7D50CE0FFF731FE064605E000BF33
:102D5000FFF72CFE801B6428F0D828688003F7D486
:102D60002078DFF8AC8280074FF0000A3ED5A748F4
:102D7000001D016811F00C0F08D00068C0F381003D
:102D800002280BD1D9F80000400207D42868800738
:102D900016D5E068012800D112E033E1E068B8B14F
:102DA0000120C8F80000FFF701FE064605E000BF5D
:102DB000FFF7FCFD801B0228C0D828688007F7D5E4
:102DC0002868216920F0F80040EAC10028600DE081
:102DD000C8F800A0FFF7EAFD064604E0FFF7E6FDAD
:102DE000801B02281FD828688007F7D420780007A6
:102DF00022D5864F87486169703771B10121016022
:102E0000FFF7D4FD064604E0FFF7D0FD801B022843
:102E100009D838688007F7D50EE0C0F800A0FFF7A2
:102E2000C5FD064605E082E0FFF7C0FD801B0228D5
:102E30007DD838688007F7D42078400768D5DFF858
:102E4000CCB100270BF13C0BDBF80000C0000BD429
:102E5000DBF8001041F08051CBF80010DBF80000E7
:102E6000012700F0805000906B4E3068C00510D4F0
:102E7000306840F480703060FFF798FD009005E006
:102E8000FFF794FD0099401A022850D83068C00519
:102E9000F6D55E4EA0686C3601280FD00528306844
:102EA00010D020F001003060306820F00400306065
:102EB000A068B8B1FFF77AFD00900FE0306840F0ED
:102EC0000100F4E740F004003060F7E7FFF76EFD23
:102ED0000099411A41F28830814266D830688007F3
:102EE000F4D50EE0FFF762FD009007E0FFF75EFD0E
:102EF0000099411A41F28830814256D830688007E3
:102F0000F4D42FB1DBF8001021F08051CBF8001081
:102F1000A069C8B33D49091D0968C1F381010229AF
:102F20004AD00228504607D0C8F8600000E03CE0D4
:102F3000FFF73CFD04463BE04746C8F86000FFF75A
:102F400035FD064605E000BFFFF730FD801B022877
:102F50002BD828688001F7D4D4E907010843A16A77
:102F60002E4A490802EB0141626A41EA8211084394
:102F700094F82C1040EA0161C9F80010012038666D
:102F8000FFF714FD044606E03EE000BFFFF70EFD2C
:102F9000001B022809D828688001F7D534E000BF5B
:102FA000FFF704FD001B022802D90320BDE8F88FBB
:102FB00028688001F4D427E00128F7D0D9F8000070
:102FC000E26900F4800191421CD1226A00F03F01C5
:102FD000914217D147F6C071626A0140B1EB821F7E
:102FE00010D1A26A4FF0FF3300F4403103EB5202DC
:102FF000B1EB024F06D194F82C1000F07060B0EBEA
:10300000016F01D00120D1E70020CFE70438024052
:1030100000004742800E4742007000400000FFFF62
:103020004FF0E0210428086903D020F00400086173
:10303000704740F00400FAE710B5401EB0F1807F01
:1030400001D3012010BD4FF0E02460610F21601713
:1030500001F069FA0020A06107202061002010BD66
:103060007047704710B590F83C20012A22D0012209
:1030700080F83C20CA688C6822F4407222434C6875
:1030800022F4806222430C6822F4006222430C691D
:1030900022F4805222434C6922F400522243C9692F
:1030A000002322F480420A4301684A6480F83C30DD
:1030B000002010BD022010BD10B50446022249B107
:1030C00004290ED0082913D094F84500012816D001
:1030D000012010BD94F842000128F9D184F8422063
:1030E0000FE094F843000128F2D184F8432008E06F
:1030F00094F844000128EBD184F8442001E084F8DE
:1031000045200422206800F0B4FF2068416C41F49F
:103110000041416411492068884214D0B0F1804FC9
:1031200011D00F4988420ED00E4988420BD00E496B
:10313000884208D00D49884205D00D49884202D006
:103140000C49884204D1816801F00701062903D0A7
:10315000016841F001010160002010BD0000014044
:103160000004004000080040000C00400004014042
:10317000004001400018004070B504460D4600684C
:10318000002200F076FF2068036A41F211110B4221
:1031900040F2444206D1036A134203D1436C23F444
:1031A000004343642068036A0B4206D1016A11425E
:1031B00003D1016821F00101016001203DB1042D1E
:1031C00008D0082D09D084F84500002070BD84F88F
:1031D0004200FAE784F84300F7E784F84400F4E794
:1031E00010B5040003D094F83D0010B107E00120B1
:1031F00010BD002084F83C00204600F01FF802209B
:1032000084F83D00211D206800F0BAFE012084F8FA
:10321000460084F83E0084F83F0084F8400084F8BB
:10322000410084F8420084F8430084F8440084F8A4
:10323000450084F83D00002010BD000008B500687E
:103240000B49884212D10B48016841F0100101601E
:103250000068032200F01000009001213620FFF7E3
:10326000FBFBBDE808403620FFF7E9BB08BD0000C6
:10327000001000404038024090F83D10012901D074
:1032800001207047022180F83D100168CA6842F0B1
:103290000102CA6000681149884214D0B0F1804F21
:1032A00011D00F4988420ED00E4988420BD00E49EA
:1032B000884208D00D49884205D00D49884202D085
:1032C0000C49884204D1816801F00701062903D026
:1032D000016841F0010101600020704700000140D9
:1032E0000004004000080040000C004000040140C1
:1032F00000400140001800402DE9F0410D46040057
:1033000003D094F83D0018B108E00120BDE8F08139
:10331000002084F83C00204600F040F8022084F8A9
:103320003D002068816844F2070291438160211DBD
:10333000206800F025FE226890689169166A2B6863
:10334000AF69034340F20330814341EA0721A86893
:10335000EF6908434FF6FC418843E96840EA0720DB
:10336000014328692F6A000140EA07300843696871
:103370006D6926F0AA0646EA05152943936022687E
:10338000906154F8460B0162012004F81F09E075B2
:103390002076E0762077A0750020B7E770B500684A
:1033A000224986B088423FD121480025016841F07A
:1033B00004010160016801F004010591016841F018
:1033C00004010160006800F0040005901848103006
:1033D000016841F002010160016801F002010591FC
:1033E000016841F0020101600068022400F002005F
:1033F000059040208DE831000E4E0394694630461A
:103400000494FFF7CDF980208DE8310003946946DC
:1034100030460494FFF7C4F9002202211D20FFF773
:103420001BFB1D20FFF70BFB06B070BD0004004026
:10343000303802400008024070B590F83E60044603
:1034400090F83F5090F8423090F84320022021B18C
:1034500004290ED0012E1BD114E0012E18D1012B0E
:1034600016D184F83E0084F8420001220021206831
:1034700020E0012D0CD1012A0AD184F83F0084F804
:10348000430014E0012D03D1012B01D1012A01D009
:10349000012070BD84F83E0084F83F0084F84200AB
:1034A00084F8430001220021206800F0D5FD0122AC
:1034B0000421206800F0D0FD2068016841F001017E
:1034C0000160002070BD70472DE9F041044600689E
:1034D000C66805694FF00007A90713D5B10711D5D4
:1034E000F91E01610120207720688069800720464D
:1034F00002D0FFF7E8FF04E000F07EF8204600F07D
:103500004FF92777680716D5700714D521686FF033
:1035100004000861022020772068806910F4407F51
:10352000204602D0FFF7CFFF04E000F065F8204608
:1035300000F036F92777280715D5300713D521680D
:103540006FF008000861042020772068C0698007B8
:10355000204602D0FFF7B7FF04E000F04DF8204608
:1035600000F01EF92777E80616D5F00614D5216875
:103570006FF010000861082020772068C06910F4FF
:10358000407F204602D0FFF79EFF04E000F034F8B1
:10359000204600F005F92777E80708D0F00706D0A5
:1035A00021686FF001000861204600F09DF92806AF
:1035B00008D5300606D521686FF0800008612046E6
:1035C000FFF74EFD680608D5700606D521686FF036
:1035D00040000861204600F0ADF9A8060AD5B00603
:1035E00008D521686FF0200008612046BDE8F04151
:1035F000FFF737BDBDE8F081704770B5044690F81D
:103600003C0000260D4601280FD0012084F83C0024
:103610006AB1042A1DD0082A2FD00C2A3FD00126D7
:10362000002084F83C00304670BD022070BD206848
:1036300000F02CFD2068816941F00801816120685B
:10364000816921F004018161206881692A6911433F
:1036500011E0206800F04AFD2068816941F40061B2
:1036600081612068816921F48061816120688169BC
:103670002A6941EA02218161D2E7206800F06CFDED
:103680002068C16941F00801C1612068C16921F069
:103690000401C1612068C1692A69114311E02068F1
:1036A00000F08EFD2068C16941F40061C1612068AD
:1036B000C16921F48061C1612068C1692A6941EA58
:1036C0000221C161ACE710B5040003D094F83D00BD
:1036D00010B107E0012010BD002084F83C00204616
:1036E00000F01EF8022084F83D00211D206800F043
:1036F00047FC012084F8460084F83E0084F83F002F
:1037000084F8400084F8410084F8420084F84300C3
:1037100084F8440084F8450084F83D00002010BD82
:1037200000B500681A4987B088422FD11948002196
:10373000026842F001020260026802F00102059292
:10374000026842F002020260006800F00200059088
:1037500010481430026842F001020260006800F074
:10376000010005904FF4807000900220CDE9010126
:1037700003900120049069460748FFF711F84FF4C1
:103780000050009069460548FFF70AF807B000BDF1
:1037900000000140303802400000024000040240B6
:1037A0007047000010B50446022249B104290ED02A
:1037B000082913D094F84100012816D0012010BD2B
:1037C00094F83E000128F9D184F83E200FE094F8E7
:1037D0003F000128F2D184F83F2008E094F840002F
:1037E0000128EBD184F8402001E084F84120012237
:1037F000206800F031FC16492068164A884201D042
:10380000904203D1436C43F40043436420688842F0
:1038100013D0B0F1804F10D00F4988420DD00F491E
:1038200088420AD00E49884207D0904205D00D49FF
:10383000884202D00C49884204D1816801F0070116
:10384000062903D0016841F001010160002010BD8C
:103850000000014000040140000400400008004056
:10386000000C0040004001400018004030B5044604
:103870000D460068002200F0EFFB194B41F21111D8
:1038800020688A10984202D0164B984209D1036AE8
:103890000B4206D1036A134203D1436C23F4004365
:1038A00043642068036A0B4206D1016A114203D1C6
:1038B000016821F00101016001203DB1042D08D013
:1038C000082D09D084F84100002030BD84F83E0066
:1038D000FAE784F83F00F7E784F84000F4E70000D7
:1038E000000001400004014010B500680D49884205
:1038F0000BD10D4800680068C1060C48416801D52D
:10390000491E00E0491C416010BD09498842FBD1B5
:1039100001F0E6FA052101F049FEBDE81040322031
:1039200001F0E0BE000400404C27002050000020C1
:103930000010004070477047704710F8411F4078F2
:1039400008437047F8B5016804460868CA684B69BF
:1039500010F00F0F4FF000055AD003F0010602F4EB
:103960009077374365D0C10705D0D10503D5616C89
:1039700041F001016164410705D5D90703D0616CAD
:1039800041F002016164810705D5D90703D0616C5C
:1039900041F004016164010707D502F020013143C1
:1039A00003D0616C41F008016164616C00293BD077
:1039B000800604D5900602D5204600F082FC2068DF
:1039C0004069616CC0F3801001F00801014320469A
:1039D0002BD000F04FFC20684069400621D52068BC
:1039E000143050E8001F21F0400140E80012002A86
:1039F000F5D1E06BA8B16E490165E06BFEF74BFDB8
:103A0000002811D0E06B016D01B0BDE8F04008471F
:103A100083060ED593060CD52046BDE8F84000F08D
:103A200050BC2046FFF788FFF8BDFFF785FF6564AF
:103A3000F8BD266B2023012E7DD1C6067BD5D60688
:103A400079D508684868009048694FF0020640063A
:103A500041D5E16B086840680004000CE8D0A28DF5
:103A60008242E5D9E085C869B0F5807F2DD0206815
:103A70000C3050E8001F21F4807140E80012002A49
:103A8000F5D12168143151E8000F20F0010041E820
:103A90000002002AF5D12068143050E8001F21F000
:103AA000400140E80012002AF5D184F84230256335
:103AB00020680C3050E8001F21F0100140E800128F
:103AC000002AF5D1E06BFEF79DFC6663A08DE18DC9
:103AD000401A81B22AE0A08DE18D401A81B2E08DBA
:103AE0000028A5D00029A3D022680C3252E8000F8C
:103AF00020F4907042E80007002FF5D120681430C0
:103B000050E8002F22F0010240E80027002FF5D1F5
:103B100084F84230256320680C3050E8002F22F0F2
:103B2000100240E80023002BF5D166632046FFF722
:103B300002FFF8BDFFE705062BD5150629D594F839
:103B400041002128F5D1A068B0F5805F01D120693E
:103B5000B0B1206A411C2162216800784860E08C85
:103B6000401E0004000CE084E3D12068C16821F00D
:103B70008001C1602068C16841F04001C160D8E7A0
:103B8000206A0088C0F308004860206A801C206218
:103B9000E5E74006CDD55006CBD5CA68204622F0D1
:103BA0004002CA6084F8413000F0AAF8C1E7000082
:103BB0006542000870B5040004D094F84100002567
:103BC00010B106E0012070BD84F84050204600F09E
:103BD00023F8242084F841002068C16821F40051B2
:103BE000C160204600F0CEFB2068016921F49041BD
:103BF00001612068416921F02A0141612068C168A2
:103C000041F40051C1606564202084F8410084F8CB
:103C100042006563002070BD30B51A4887B0016866
:103C200041F010010160006800F010000590154897
:103C30001438016841F0020101600068072400F0B7
:103C40000200059040200090022001900120029087
:103C50000320CDE903040C4D69462846FEF7A0FD7C
:103C600080200090694604942846FEF799FD25209F
:103C7000FEF7E5FE032211462520FEF7EDFE07B014
:103C800030BD0000443802400004024090F8423049
:103C9000202B01D00220704721B11AB10023036309
:103CA00000F0F6BB0120704730B50068114988422A
:103CB0000CD1114841880A0408D402464C041278F9
:103CC0004FF0000306D50A2A01D0438030BD41F4ED
:103CD00000410DE00D2A09D0C1F30D04074D491C28
:103CE00089B22A554180C729EFD830BD41F48041BF
:103CF000418030BD001001406000002028280020D5
:103D00007047000000B5ADF2844D0AA0FCF77CFBC3
:103D100011A0FCF779FB40F2844213496846FCF796
:103D2000BBFD694611A0FCF76FFBFEF7C7FE0DF265
:103D3000844D00BD0D0A486172644661756C745F04
:103D400048616E646C65723A20D3B2BCFEB4EDCEAD
:103D5000F3C0B12E0D0A0000B3A2CAD4D6D8C6F45F
:103D60002E2E2E0D0A000000DC74000825730000C2
:103D700030B50B4C0A4B803C22050CE01D68401C02
:103D8000ED0708D02568ED0705D000E000BF1568F5
:103D9000002DFBD0117001780029EFD130BD00005B
:103DA000800E00E001884068FEF7F2BDF0B587B0F4
:103DB00014216846FCF7A2FD2E480025016841F059
:103DC00020010160016801F020010591016841F0C6
:103DD00080010160016801F080010591016841F0F6
:103DE00001010160016801F001010591016841F0E4
:103DF00002010160016801F002010591016841F0D2
:103E000004010160016801F004010591016841F0BD
:103E100040010160016801F040010591016841F035
:103E2000100101600068144E00F0100040F20444DC
:103E30000590002221463046FEF7B2FD0F4F0122C9
:103E400003213846FEF7ACFD00940124CDE901457D
:103E5000694630460395FEF7A3FC0320CDE9000434
:103E60000220CDE9024069463846FEF799FC07B0CA
:103E7000F0BD000030380240001402400010024043
:103E8000FEE7FEE770477047FEF796BD30B593B08A
:103E900030216846FCF732FD14210CA8FCF72EFDFA
:103EA0001E480025016841F080510160006800F063
:103EB000805011901A48016841F480410160006807
:103EC000022400F480401190012000900004019031
:103ED0008001CDE90640082008904FF4A870CDE994
:103EE000090404200B906846FEF7E4FE08B172B6A0
:103EF000FEE70CA90F2081E831004FF4A0500F908D
:103F00004FF48050109005210CA8FEF7E9FD002821
:103F100001D072B6FEE713B030BD00004038024059
:103F2000007000400248016841F470010160704770
:103F300088ED00E00148FFF7C7BA00004C270020D9
:103F400010B50A4C2068C068C043C00709D10848B2
:103F50000069804721680020486221686420C862A7
:103F6000E06021686FF00100086110BD3829002071
:103F7000D80000200148FFF7A7BA0000B8270020AA
:103F8000F0B50268294C2A4D2A4E2B4F2B4B4FF08F
:103F9000804CA04209D0604507D0A84205D0B0426D
:103FA00003D0B84201D0984204D122F0700E4A6882
:103FB00042EA0E02A0421BD0604519D0A84217D099
:103FC000B04215D0B84213D0984211D01C4DA8422F
:103FD0000ED01C4DA8420BD01B4DA84208D01B4D43
:103FE000A84205D01A4DA84202D01A4DA84203D1CA
:103FF00022F44075CA682A434D6922F080022A43A0
:1040000002608A68C2620A688262A04201D0984255
:1040100001D109690163012141610169C90703D027
:10402000016921F001010161F0BD000000000140C3
:104030000004004000080040000C00400004014063
:104040000040014000440140004801400018004089
:10405000001C00400020004010B501F01F030121AA
:10406000046A99408C430462016A9A4011430162D8
:1040700010BD10B501F00F030421046A99408C4370
:104080000462016A9A401143016210BDF0B5036AEF
:10409000026A22F00102026242688469124E24F030
:1040A00073050C682C4323F002058B682B430D4DE0
:1040B000A84201D0B04205D123F00807CB683B43AA
:1040C00023F00403A84201D0B04205D14D6922F487
:1040D000407215438A692A4342608461496841639A
:1040E0000362F0BD0000014000040140F0B5026A27
:1040F000036A23F010030362436884690D6824F4A3
:10410000E64444EA05248D6822F0200242EA0512C2
:104110000F4D104EA84201D0B04206D1CF6822F018
:10412000800242EA071222F04002A84201D0B042C7
:1041300007D14D6923F4406343EA85038D6943EA5F
:10414000850343608461496881630262F0BD0000B9
:104150000000014000040140F0B5026A036A23F444
:10416000807303624368C46922F4007224F073050B
:104170000C68124E2C438D6842EA05220E4DA8426F
:1041800001D0B04206D1CF6822F4006242EA072291
:1041900022F48062A84201D0B04207D14D6923F4D5
:1041A000405343EA05138D6943EA05134360C46134
:1041B0004968C1630262F0BD000001400004014093
:1041C00030B5046A026A22F4805202624268C3690E
:1041D0000D6823F4E64343EA05238D6824F4005474
:1041E00044EA0534084DA84202D0084DA84204D143
:1041F0004D6922F4804242EA85124260C3614968F7
:104200000164046230BD0000000001400004014070
:10421000F8B5064610480D460024016841F0040137
:1042200001600068032200F00400009011461E2087
:10423000FEF712FC1E20FEF702FC094A0748106038
:10424000C2E90154C2E903641046FEF7C9FFBDE8A4
:10425000F8400348FFF710B840380240000800401B
:104260003829002010B5806B0021C185C184FFF77B
:1042700063FB10BD01680C3151E8002F22F49072ED
:1042800041E80023002BF5D10168143151E8002FDB
:1042900022F0010241E80023002BF5D1016B012936
:1042A00009D101680C3151E8002F22F0100241E8D9
:1042B0000023002BF5D1202180F84210002101635A
:1042C000704708B590F84210222901D0022008BD9D
:1042D00082684FF480539A4201D1016921B1816A09
:1042E0009A421BD04AB10AE00268816A5268C2F35E
:1042F00008020A80816A891C08E0026972B10268BA
:10430000526802F07F020A70816A491C8162C18D85
:10431000491E0904090CC18503D01BE002685268DC
:10432000F1E70168CA6822F02002CA600168CA6821
:1043300022F48072CA6001684A6922F001024A616F
:10434000202180F8421000214163026B012A03D032
:10435000FFF7AAFC002008BD016301680C3151E899
:10436000002F22F0100241E80023002BF5D1016854
:104370000A68D20602D50A6849680091818DFFF764
:10438000DAFAE7E770B5044600680169E26821F4EB
:104390004051114301612169A068E26908436169E4
:1043A000114308432168CA6849F20C639A430243E7
:1043B000CA6020684169A26921F4407111434161DA
:1043C00031492068884202D03049884202D1FEF744
:1043D00031FC01E0FEF71EFCE2690023192164258F
:1043E0003226B2F5004F626828D0A0FB0101930F7E
:1043F0009200FBF792FF0146B0FBF5F06FF0180258
:10440000504301EB800006EB0010B0FBF5F000F02C
:10441000F002B1FBF5F002EB0012B1FBF5F06FF02A
:104420001803584301EB800006EB0010B0FBF5F0D9
:1044300000F00F0021681044886070BDA0FB0101EE
:1044400092185B41FBF769FF0146B0FBF5F00201F2
:10445000B1FBF5F06FF01803584301EB800006EB59
:10446000C000B0FBF5F000F0F80002EB4002B1FB39
:10447000F5F0584301EB800006EBC000B0FBF5F00F
:1044800000F00700D6E700000010014000140140D2
:1044900081628285C28500214164222180F8421018
:1044A000016921B10168CA6842F48072CA6001687A
:1044B0004A6942F001024A610068C16841F0200186
:1044C000C16000207047000010B50848FFF73AFAB5
:1044D0000648FFF732FA2028FAD10122044903489E
:1044E000FFF7D4FB0028F8D110BD0000F028002011
:1044F00060000020FEE703B401984100009850EAF4
:10450000C12018BF04204A0D18BF40F0010040F23E
:10451000FF72B2EB515F08BF40F00200012808BFF4
:10452000052002B070470907090E002804DB00F1DE
:10453000E02080F80014704700F00F0000F1E02048
:1045400080F8141D7047000070B5D94B00242DED84
:10455000020B2DED108BDDE91010984205DA20F0EA
:1045600000429A4201D809D141B19DED100BBDEC3A
:10457000108B02B0BDE8704000F05EBAB0F5801F4D
:1045800026DA11430BD0002813DA0120FCF727FAB2
:10459000BDEC108B02B0BDE8704000F059BA0220AB
:1045A000FCF71DFA00F030FA51EC100B02F0ACF9F8
:1045B0009EE06FF035049FEDC00B53EC102B9DED8A
:1045C000100B51EC100B02F04FFCCDE91001084626
:1045D00004EB2051C0F31304B948A1F2FF31204489
:1045E00000F4801080F07F6282F04052224301EBA1
:1045F00020559FEDB50B119253EC102B9DED100B38
:1046000051EC100B02F03AFD41EC180BA01CC0F36A
:1046100013009FEDAFDB9FEDB0EBB14E7E4403285E
:104620006CD296ED000B51EC180B53EC102B02F0F2
:10463000B5FB1DD1002D01BF96ED000BBDEC108B1D
:1046400002B070BD284602F0E5FB41EC180B53ECBC
:104650001D2B02F009FC41EC190B53EC1E2B51EC05
:10466000180B02F001FC53EC192B02F08BF93FE020
:104670009FED9D0B51EC180B53EC102B02F0F4FB4B
:104680009FED9B1B53EC112B02F0ECFC41EC190B42
:1046900053EC182B51EC180B02F0E6FB53EC192BE2
:1046A00002F0E2FB41EC190B002D04BF53EC192B77
:1046B00051EC180B1AD0284602F0ACFB41EC1A0B57
:1046C00053EC1D2B02F0D0FB53EC192B02F0CAFC6B
:1046D00053EC182B02F0D2FC41EC180B53EC1E2BC0
:1046E00051EC1A0B02F0C0FB53EC182B02F0C6FC85
:1046F000BDEC108B02B041EC100B70BD9FED7E0B3A
:1047000051EC180B53EC102B02F03CF941EC100B60
:1047100051EC180B53EC102B02F0E8F941EC190B9B
:10472000284602F077FB41EC1B0B53EC192B51ECA4
:10473000190B02F099FB41EC1A0B714853EC1A2B40
:10474000261851EC1A0B02F08FFB41EC1F0B6D4841
:10475000C4F1510404F5D724B0EE4F0AF0EE6F0A0D
:104760000321784400F0D2F853EC1F2B51EC100BCE
:1047700002F07AFB41EC1C0B6348B0EE4F0AF0EEFE
:104780006F0A0421784400F0C1F853EC1A2B51EC65
:10479000100B02F069FB344353EC1C2B02F0F2F8CF
:1047A00041EC1C0B002C4CDD9FED510B51EC180B18
:1047B00053EC102B02F058FB53EC182B02F054FB77
:1047C00041EC1A0B55B353EC1D2B51EC1B0B02F0B3
:1047D0004BFB41EC1D0B53EC1C2B51EC1A0B02F064
:1047E000D1F853EC192B02F03FFB53EC1D2B02F0D8
:1047F000C9F853EC1A2B02F035FC53EC182B02F0DD
:104800003DFC41EC180B53EC1E2B51EC1B0B02F042
:104810002BFB53EC182B02F031FC69E753EC1C2BFB
:1048200051EC1A0B02F0AEF853EC192B02F01CFB02
:1048300053EC1A2B02F016FC53EC182B02F012FC6E
:1048400056E735B353EC1D2B51EC1B0B02F00CFB60
:1048500041EC1A0B53EC1C2B51EC180B02F00EFC24
:1048600053EC192B02F000FB53EC1A2B02F006FC60
:1048700053EC182B02F002FC41EC180B53EC1E2BEE
:1048800051EC1B0B02F0F0FA53EC182B02F0F6FB84
:104890002EE753EC1C2B51EC180B02F0EFFB53EC02
:1048A000192B02F0E1FA53EC182B02F0DBFB1FE7A7
:1048B0000000F07F000000000000000000005043F6
:1048C000645F090000000000000000000000F03FED
:1048D000763C7935EF39EA3D0000E0FE422EE63FB6
:1048E000202E000000000000555555555555D53F68
:1048F000000000000000E03F000000000000004059
:1049000086EBF9FF7A2C0000702C000070B504468D
:104910002DED028B4D1E00EBC500B0EE408AF0EE8F
:10492000608A90ED000B35F0060017D053EC182B81
:1049300051EC100B02F098FA41EC100B6D1E04EBD9
:10494000C50090ED001B51EC100B53EC112B02F045
:1049500019F841EC100B35F00600E7D1022D36D0E6
:10496000042D1CD0062D1CBFBDEC028B70BD53EC7A
:10497000182B51EC100B02F077FA94ED0A1B53EC54
:10498000112B01F0FFFF53EC182B02F06DFA94EDA0
:10499000081B53EC112B01F0F5FF41EC100B53EC0D
:1049A000182B51EC100B02F05FFA94ED061B53EC40
:1049B000112B01F0E7FF53EC182B02F055FA94EDA0
:1049C000040B53EC102B01F0DDFF41EC100B53EC0A
:1049D000182B51EC100B02F047FA94ED021B53EC2C
:1049E000112B01F0CFFF53EC182B02F03DFA94EDA0
:1049F000001B53EC112B01F0C5FFBDEC028B41EC09
:104A0000100B70BD000000009FED070B10B553ECBC
:104A1000102B9FED070B51EC100B02F067F841ECE7
:104A2000100B10BD0000000000000000000000009E
:104A3000000000000000F03F10B553EC102B51ECCB
:104A4000100B01F09FFF41EC100B10BD00000000A7
:104A50009FED050B10B553EC102B51EC100B02F031
:104A600045F841EC100B10BD0000000000000000F4
:104A700030380A2801D20120704700207047704763
:104A80007FB50024194800940194029416490394B8
:104A9000016001254FF480310561C0E901140576FC
:104AA00080F820401249C0E90A140326C661C46098
:104AB00080F830504461FDF799FB0920CDE90005ED
:104AC00069460A480295FDF76BFA0220CDE90040DD
:104AD00069460648FDF764FA0820CDE900066946F4
:104AE0000248FDF75DFA7FBD00200140342600201A
:104AF0000100000FF0B587B014216846FBF7FEFEF9
:104B000035480025016841F4807101600068324C2D
:104B100000F48070143C0590206840F00200206092
:104B2000206800F002000590206840F0010020603D
:104B3000206800F001000590206840F0020020602D
:104B40002068264F00F0020005900220009003200C
:104B5000CDE9010569463846FDF722FE0126694682
:104B60001F480096FDF71CFE694638460096FDF783
:104B700017FEFFF785FF206840F480002060206862
:104B8000194C00F4800005901648C4E90005001592
:104B9000A560C4E90350400060618000A06140113D
:104BA000E061000220622046FDF758FDA4F14800B4
:104BB00001228463A06302213C20FDF74DFF3C20CD
:104BC000FDF73DFF09494FF4616201F5E150FDF742
:104BD00039FB07B0F0BD0000443802400004024039
:104BE00000000240706402407C260020140A00206D
:104BF00010B5184A90B00024C2E902408020C2E9F2
:104C00000540134BC2E900311046FEF75CFD602001
:104C1000CDE9080402200A9008200B900420CDE979
:104C20000C04002208A90B480E94FEF7E6FC4FF492
:104C30000060CDE900040F20CDE902400494059402
:104C4000694604480794FEF70DFA10B010BD000045
:104C5000000001400427002010B50A4C084AC4E9AE
:104C600000210021C4E9021020462161FEF7B8FAB4
:104C70002046FEF701FB21686FF00100086110BDBE
:104C800000100040B8270020F0B500210A460F4E62
:104C900013460C464FF4966504EB4407641C36F843
:104CA00017C006EB47076144B7F802C0BF886244EB
:104CB0003B44AC42F0DBB1FBF5F4B2FBF5F1B3FBE6
:104CC000F5F2048041808280F0BD0000140A0020CB
:104CD00010B5044600210B48FEF7C8FD0021094825
:104CE000FEF74AFA3CB1012C0BD1BDE8104000217F
:104CF0000448FEF7E1B9BDE8104000210148FEF785
:104D000051BD10BD0427002030B5144887B00021E4
:104D1000026842F020020260006840F2044400F0A1
:104D20002000009405900120CDE901010C4D039174
:104D300069462846FDF734FD002221462846FDF746
:104D40002FFE00F021F80020FFF7C2FF002000F046
:104D500009F800F011F807B030BD0000303802400B
:104D60000014024003490968CA6A0F3A824200D916
:104D70004863704704270020012291020148FDF793
:104D80000FBE00000014024010B500210748FEF7D6
:104D90006DFD00210548FEF7EFF9BDE81040002247
:104DA0004FF480610248FDF7FBBD0000042700209E
:104DB0000014024010B504460420FEF731F9014802
:104DC000046010BD5C00002070B5054600244FF45F
:104DD0007A7603E0304600F005F8641CAC42F9D363
:104DE00070BD000070B54FF0E024002265690949EC
:104DF000A36909684843A1699942FCD002D2A3EB98
:104E0000010302E0A5EB010633441A440B4682423B
:104E1000F1D370BD5C0000200B490A685206FCD536
:104E2000C2B24A6009490968C90706D007498039F2
:104E30000968CA074FF0604101D1704700BF0A6896
:104E4000002AFBD00870704700100140800E00E07F
:104E500000EE100ADFED1A0A9FED1B1AB8EE400AA9
:104E600010B520EE200ADFED170A20EE200AC1EE71
:104E7000000A9FED160A9FED161A70EEC00A80EE2A
:104E8000810A10EE100A02F0E3F941EC100BFFF773
:104E90005BFB51EC100B01F043FD00EE100A9FED9F
:104EA0000D1AC0EE010A9FED0C0AB7EE001A30EEA3
:104EB000800AC1EE000A9FED090A30EEC00A10BD5B
:104EC00033335340000080390058724600E0924569
:104ED00000401C46004053450FCF5B3B3393884353
:104EE00003480068406A0349496800EB0140704785
:104EF0004C2700205000002010B5164C144A0A23FD
:104F0000C4E900210021C4E9030104F1480003229F
:104F1000C0E9002101220361C0E90221C0E90512B4
:104F2000C0E9071301464838FEF7E6F9002120469C
:104F3000FEF782FA04212046FEF77EFA2068C16857
:104F400041F00101C16021686FF00100086110BDEE
:104F5000000400404C2700201F49D0ED000AC1ED9D
:104F6000010A81ED020AD1ED020A91ED011A70EEFB
:104F7000C10AC1ED030AD0ED000A30EEC00A80ED8F
:104F8000060A90ED020AD0ED060A30EE200A80ED06
:104F9000020A90ED030AD0ED060A90ED021A20EE07
:104FA000200AD0ED040A00EE810AD0ED060A90ED49
:104FB000071A70EEC10A90ED051A01EE200A80ED85
:104FC000010A90ED060A80ED070A90ED010ABDEE98
:104FD000C00A10EE100A70471000002030B52B48B0
:104FE00099B00024016841F480410160016801F436
:104FF0008041179126490A6842F080720A60264A69
:1050000024491160254A03211160244B0122803B71
:105010001A60036843F020030360006800F020007A
:1050200017901A481438036843F04003036000687F
:105030001B4D00F0400017900220CDE9130208201C
:10504000CDE915108001129012A92846FDF7A8FBA2
:105050004FF48040129012A92846FDF7A1FB114899
:1050600000904FF4E130CDE901040C20CDE904407B
:10507000039468460694FEF79DFD08B1FCF78DFF8A
:1050800009A0FEF775FE19B030BD0000443802409B
:10509000FCED00E055CEACC5B00F00E0800E00E0A6
:1050A00000180240001401400D0A55534152543675
:1050B00020544553540D0A0090ED021AB4EEC01A64
:1050C000F1EE10FA0BDC90ED020AB4EEE00AF1EE1C
:1050D00010FA02D2B0EE600A01E090ED020A80ED13
:1050E000020A704708B5FDF76FFCFEF7CFFEFEF72A
:1050F0005DFE0A48016841F48001016000680122F8
:1051000000F48000009002213C20FDF7A5FC3C202B
:10511000FDF795FCFCF7C8FEFEE7000030380240C2
:10512000BDEEC00A10B510EE104A002C04DB0020C2
:10513000FFF7CEFDA0B204E00120FFF7C9FD6042F9
:1051400080B2BDE81040FFF70DBE00000FB42DE99E
:10515000F04F8B468246002026498BB00DF15C084B
:105160000870012506463DE023A11698FBF7EEFBEB
:10517000002808F10400D8F8001080C8894680464D
:105180004FF0000416D02AE01DB959461948FBF724
:1051900077FB002559F8240002F05AF8CDE9000108
:1051A000202102A8169AFBF73BF902A91148FBF748
:1051B00067FB641CBC42E7DB13E01DB959460D4890
:1051C000FBF75EFB002559F82430202102A8169A2F
:1051D000FBF726F902A90748FBF752FB641CBC4207
:1051E000EBDB761C5645BFDB0BB00248BDE8F00F89
:1051F0005DF814FBCC010020256600000FB42DE9FA
:10520000F04F8B468246002026498BB00DF15C089A
:105210000870012506463DE023A11698FBF796FB92
:10522000002808F10400D8F8001080C8894680469C
:105230004FF0000416D02AE01DB959461948FBF773
:105240001FFB002559F8240002F002F8CDE9000107
:10525000202102A8169AFBF7E3F802A91148FBF7F0
:105260000FFB641CBC42E7DB13E01DB959460D4837
:10527000FBF706FB002559F82430202102A8169AD6
:10528000FBF7CEF802A90748FBF7FAFA641CBC4208
:10529000EBDB761C5645BFDB0BB00248BDE8F00FD8
:1052A0005DF814FBCC050020256600002DE9F041D7
:1052B00090B0264809AC00F1100105AD0EC984E894
:1052C0000E00F0E80712CDE90C121EC885E81E009A
:1052D00050E90910CDE90E1004250DF1300803271F
:1052E0000DF1040C05AE02244046009704958CE8AD
:1052F000510009AB16A217A13846FFF727FF014658
:1053000015A0FBF781F8CDE90246CDE9007809AB9D
:1053100015A217A103200495FFF770FF014615A001
:10532000FBF772F80EAB1AA20AA101200094FFF756
:105330000DFF014617A0FBF767F81D490020401C30
:105340008842FCDB10B00020BDE8F08170730008DB
:10535000256400002C000000C6B4BDD3BDE1B9FB3C
:105360003A2025730D0A00003078253032580000AD
:1053700020000000C6B4BDD3BDE1B9FB2028CAAEF1
:10538000C1F9BDF8D6C6293A2025730D0A000000E0
:1053900025660000C6B4BDD3BDE1B9FB2028666C0C
:1053A0006F6174CAFDD7E9293A25730D0A00000020
:1053B000A08601000148FEF7F5BC00003000002087
:1053C0002DE9F04F2DED028B8BB01E20069096201C
:1053D00009903C2000240890474D01200790B5F823
:1053E00004B02646A98801EB0B00C0F34E0B012048
:1053F000FFF7EAFC761CB6F57A7FF3DB3F48012124
:105400009FED3F8ADFED3F8A01703F48006901F060
:105410001FFF394D88460746A988B1EB0B0000D520
:10542000404200EE100AB8EEC00A20EE080A10EE64
:10543000100A01F00DFF81462F488A464088FFF789
:1054400007FD10EE100A01F003FF05462A480E463C
:10545000008800EE100AB8EE400A20EE280A10EE8E
:10546000100A01F0F5FE8DE8600641EC100BCDE965
:10547000047853EC102B21462448FAF7C5FF052089
:10548000B4FBF0F100FB1140F8B9099906984942C4
:10549000884201DC0120079009990698884202DBC6
:1054A0004FF0FF30079006AB93E8070001FB0200C6
:1054B0000146069016A0FAF7A7FF069800EE100A1C
:1054C0001848B8EEC00A80ED000A641C1E2C0CD3EC
:1054D00015A0FAF799FF0948002101700BB0BDEC47
:1054E000028BBDE8F04FFFF74FBCFFF763FF4FF4AF
:1054F0007A70FFF769FC88E7480000205800002018
:10550000FFD7D6400000A53C0028002060790008A5
:1055100073706565645F76616C75653A2025640D0E
:105520000A000000CC0900200D0A000070470000AE
:105530001A489FED190AF7EE080A80ED000A80ED7F
:10554000010A80ED020A80ED060A80ED070A80ED6F
:10555000080AC0ED030ADFED120AC0ED040ADFED10
:10556000110AC0ED050A2430F7EE000A80ED000AAA
:1055700080ED010A80ED020A80ED060A80ED070A3F
:1055800080ED080AC0ED030AF0EE0E0AC0ED040A31
:1055900080ED050A7047000000000000CC090020E3
:1055A0007F6ABC3C6F12033B006870472DE9F041F5
:1055B000424D06462DED048B002428789FED3E8A4F
:1055C000884271D13E4F7E603868301A00EE100A72
:1055D0004FF47A70B0FBF1F0F8EEC08AC7ED028AA2
:1055E00001F02FFC9FED371B53EC112B01F03CFC1D
:1055F00041EC190B18EE900A01F02AFE53EC192B1E
:1056000001F032FC9FED311B53EC112B01F06EFACF
:105610009FED301B53EC112B01F068FA01F080F97B
:105620006A78A7F5A071002341F82200521CD0B27D
:1056300068703E600A2802D035E000240EE001EBDD
:10564000840292EC020AB4EEE00AF1EE10FA03DDF5
:10565000C2ED000A82ED010A641CE4B2421E9442CB
:10566000EDDB12F0FF00E8D15FF0020001EB8002F9
:10567000401C92ED000AC0B2082830EE088AF5D32B
:10568000F1EE080A0E4888EE200ADFED140A1C38F5
:105690009FED131A20EE200AD0ED040A00EE810AD5
:1056A00080ED040A6B702B702878401C2870BDECCC
:1056B000048BBDE8F08100000000000050000020D5
:1056C0001C2800200000000000004E4000000000E8
:1056D00000003E4000000000000046408FC2F53E42
:1056E000B81E053F70B5374C2178B1FBF0F200FBD6
:1056F0001210002862D13448007801285CD1354866
:10570000DFED320A9FED320AFFF7D6FC3148DFEDBC
:10571000320A9FED320A2430FFF7CEFC304D2D487F
:1057200095ED040AFFF718FC2061206900EE100ACD
:10573000B8EEC00A84ED060A2069002801DD0020C9
:1057400003E02069404220610120FFF7C1FA20698F
:10575000C82801DDC82005E02069002801DA002002
:1057600000E020692061206900EE100A1948B8EEB7
:10577000C00A243080ED000A95ED010AFFF7ECFB2A
:105780006061606900EE100AB8EEC00A84ED070A95
:10579000616941F26800814205DC6069002801DA34
:1057A000002000E0606960616069A86100EE100A95
:1057B000B8EEC00AFFF7B4FC002020702078401C2F
:1057C000207070BD1000002058000020004083C5EC
:1057D00000408345CC09002000409CC400409C440C
:1057E000002800200B4910B5094AC1E9002000201B
:1057F0008860C860086188610C2048610846FEF72F
:10580000D9F9BDE81040012203490248FEF73EBA2B
:1058100000100140F0280020600000202DE9F04138
:10582000804625A0FAF7F0FD0025284F2C463E1FA4
:105830000BE0844202D12846BDE8F08157F82410DD
:105840004046FBF783F820B1641C3068411C8C4251
:10585000EFDB57F824101EA0FAF7D6FD082C21D252
:10586000DFE804F004080A0C1215181D00F0A8FB6C
:1058700005461CE002251AE0032518E017A0FAF7F8
:10588000C3FDFDF71BF912E0FFF710FD0FE0FFF776
:1058900091FD0CE0FFF770FAFFF792FD07E0FFF7CC
:1058A00073FA04E0732211A11AA0FAF7ADFD1EA04D
:1058B000FAF7AAFDBFE700000D0A6974206973209A
:1058C0004749444C45210D0A000000008800002093
:1058D0006974206973202573210D0A00D5FDD4DA7F
:1058E000D6D8C6F42E2E2E0D0A0000002E2E5C43B4
:1058F0006F72655C436F64655C416C69656E74656D
:105900006B5C75736D6172745F636F6E6669672E31
:105910006300000025735B25645D3A20B0A13FD58C
:10592000E22E2E2E0D0A0000656E64206F6620693F
:10593000740D0A0070B596B0054614AB01AA03A910
:1059400000F0DEF9002824D18DF84C001D4C04260F
:1059500015E000BF216806EBC00014AB08586A468A
:105960000BA900F0CDF9002813D103A90BA800F072
:105970003EFC80B19DF84C00401C8DF84C00217D10
:10598000C0B28142E6D8207D9DF84C1088420ED1ED
:10599000042016B070BD9DF800009DF804108842E8
:1059A00001D90220F5E79DF84C00A075EBE713A99B
:1059B000284600F05DFA0028EBD19DF84C00607598
:1059C0000020E6E7D80000202DE9F0417F4C9AB096
:1059D000A57D207DA8427DD90421206801EBC50169
:1059E00019AB405810AA11A900F08AF911A978A0A2
:1059F000FAF70AFD00270DF1180833E0208B01218A
:105A0000B940084217D0222173A0FAF7FDFC3846AE
:105A100000F098FA011971A02431FAF7F5FC22215F
:105A20006DA0FAF7F1FC384600F08CFA20442430DF
:105A300048F827000CE0384600F084FA2044416A18
:105A400048F82710E07D08B365A000BFFAF7DCFC3A
:105A50009DF84000401E874202D063A0FAF7D4FCB4
:105A60007F1CFFB29DF840008742C7D35FA0FAF7C2
:105A7000CBFC00F0E3FA607D0B2814D2DFE800F0E5
:105A8000080D31384048525E6B78880058A0DDE739
:105A9000206850F83500804704E0206850F8351041
:105AA00006988847064600F05FFA9DF864000128D2
:105AB0007DD050A0FAF7A8FC94F8EC0000280DD097
:105AC000D4F8F0100A20B1FBF0F200FB1212B1FB87
:105AD000F0F100E002E048A0FAF796FC1AB0BDE849
